:020000040000FA
:1000000080311628003008007E1480310B1F142820
:100010002100911E14282000911E142821004B0855
:100020008A004A080A0080317E10090080311828B1
:10003000743084008C308500633086000030870087
:100040000D308C31072480313A3084008E308500A9
:10005000A03086000030870024308C3107248031A6
:10006000FC0149308400003085001A308C310124B5
:100070008031CC3084000030850008308C31012480
:100080008031203084000130850040308C310124E3
:100090007E1020008D31CE2D2000AD00A801A901D9
:1000A000AA01AB01A701A401A5012D0803198B2802
:1000B0007B0803198B282D08083E860087018119CB
:1000C0006F287B08083E86008701811D6F282D0858
:1000D000083E860087018115A401A40A9F287B0899
:1000E000083E86008701811983282D08083E860076
:1000F0008701811D83287B08083E860087018115C2
:10010000A501A50A9F282D08083E860087018119B0
:100110009F287B0898282D08031D91287B08031D24
:1001200089282D0803199F287B08031D9F282D0867
:10013000083E8600870181199F28003008007B084F
:100140008C3167248031003A0319A9282000A701C7
:10015000A70A2E0012082000A0002008A1002E00EF
:1001600013082000A0002008A2002F001308200080
:10017000A0002008A3008C31BB24803120002D0872
:100180000319D4282D08043E860087010108FF3E8C
:10019000A0002008AC00A60140302E0098002F00DF
:1001A000980122001D10E6287B08043E8600870186
:1001B0000108FF3EA0002008AC00A601A60A2E0000
:1001C000980140302F00980022001D14F2012000F9
:1001D0002D0882310A228031F201F20A7B08823135
:1001E0000A22803120005B105B11DB116F088B311C
:1001F000D22380318B31C12380312000D501D6013B
:100200002608031D0929111FDB10111F05291113D1
:100210000F29121B0C29DB10121F0C29121321307D
:10022000A00020082E00980621302000A000200801
:100230002F009806C0302000A00020082E00940651
:10024000C0302000A00020082F00940620002C18A9
:100250006F292E001A082000D1072E001B0820004D
:10026000D23D2F001A082000D3072F001B082000C2
:10027000D43D2708031D54292E001A0820002A0205
:10028000F1002E001B0820002B3BF2008D31B7251A
:10029000803171082000D5077208D63D2E001B085A
:1002A0002000AB002E006B292F001A0820002A0224
:1002B000F1002F001B0820002B3BF2008D31B725E9
:1002C000803171082000D5077208D63D2F001B0829
:1002D0002000AB002F001A082000AA00A3292E003E
:1002E0001A082000D1022E001B082000D23B2F004C
:1002F0001A082000D3022F001B082000D43B270837
:10030000031D89292E001A0820002802F1002E0062
:100310008F292F001A0820002802F1002F001B0847
:100320002000293BF2008D31B72580317108200073
:10033000D5077208D63D2E001B082000A9002E000C
:100340001A082000A8002C0803195B140130AC0225
:10035000DB1CAC295B155B14DB145B1C00298B31A7
:10036000C4238031200021082E00920020002208A2
:100370002E009300200023082F00930020005B1D17
:10038000C329FB300800DB1DC729FA300800240808
:100390000319CF292D08083E860087018111250801
:1003A0000319D7297B08083E8600870181112D0893
:1003B0008C31CB248031003A0319EB2920002D0821
:1003C0008C3139248031003A031DEB2920002D089F
:1003D00084317A2480317B088C31CB248031003AFF
:1003E0000319FD297B088C3139248031003A031D23
:1003F000FD297B0884317A2480312E0096012F005C
:1004000096012E0097012F0097012E0011102F004A
:1004100011109D28F9007908031908007208031DBE
:10042000142AF601F701182A8030F6000030F70090
:100430007608F3007308F800790A8600870101083E
:10044000F3007808113EF400F5010730F53D74081B
:10045000860075088700730881007908053E8600CC
:1004600087010108F3007808193EF400F501073010
:10047000F53D7408860075088700730881007808C8
:10048000133EF300F4010730F43D7308860074084E
:10049000870050308100FE30F3007808183E860057
:1004A00087010730873D7308810579088C3139242D
:1004B0008231003A03196F2A7908023E86008701CB
:1004C0000108F3007808163EF400F5010730F53D09
:1004D000740886007508870073088100822A7808EE
:1004E000163EF300F4010730F43D730886007408EB
:1004F00087002030810079088C3129248231003A2C
:100500000319942A7908033E860087010108F30045
:100510007808173EF400F5010730F53D74088600B1
:100520007508870073089F2A7808173EF300F401C6
:100530000730F43D7308860074088700203081007E
:100540007908043E860087010108F300F4010930B0
:10055000F335F40D890BA82A7235513E86008701C8
:100560007308C03F7408C13F080020002408093EFA
:100570008600013087000108803AA50024080E3E5D
:100580008600013087000103FF3A803AA502031874
:10059000F42A24080A3E86000130870001308107D2
:1005A00041310318810A24080A3E86000130870081
:1005B000403FA500413FA60000302602413003190C
:1005C0002502031C352B24080A3E860001308700D3
:1005D0000030C03FC13F2408860001308700010879
:1005E0008F3193278231352B2408093E8600013054
:1005F00087000108A500A601A51BA60324080E3E3E
:100600008600013087002608803A803C031D0A2BB3
:100610002508010203182C2B02302000A500240815
:10062000023E8600013087002508810024080A3E2A
:100630008600013087000030C03FC13F240886009B
:10064000013087000108A5002508F1006C088A0028
:100650006B080A008331352B200024080A3E8600EF
:10066000013087000030C03FC13F200024080C3E0D
:100670008600013087000130810741310318810A6B
:1006800024080C3E8600013087001600403AA50081
:100690001600A504031D080024080C3E8600013046
:1006A00087000030C03FC13F24088331EB2308009E
:1006B0002000C2004208BF00C001BF35C00D053098
:1006C0003F0784009030403D85000008C10041088C
:1006D000C4004208BF00C001BF35C00D06303F074F
:1006E00084009030403D85000008C1004108C500ED
:1006F0004508BF003F08BB0044088631C926833146
:100700002000C0004008C300C52B44088C31CB2416
:100710008331003A0319A42B20005C08031D942B9D
:1007200044088E315E268331200044088C311B241E
:10073000833120004408860087010108BF003F087C
:10074000F1008B31BD238331200045088C31CB244F
:100750008331003A0319E82B20005C08031DB42BF9
:1007600045088E315E268331200045088C311B24DC
:10077000833120004508860087010108BF003F083B
:10078000F1008B31BD238331E82B4308BF00C0014A
:10079000BF1BC0034008003A0319D22BFF3A0319CC
:1007A000D72BE82B3F08003A0319852BE82B3F088D
:1007B000FB3A0319E82B073A0319E82B013A03190E
:1007C000E82B033A0319E82B013A0319E82BE82B2D
:1007D000200043080800F7008B1F352C8B13770887
:1007E000053E860001308700403FF100413FF200A6
:1007F000423FF300433FF4000430F436F30CF20CB4
:10080000F10C890BFD2B7708053E8600013087002F
:100810007108810241317208813B41317308813B8B
:1008200041317408813B7D317708033E86000130F9
:100830008700403FF100413FF2007108F300720869
:10084000F400F501F6017708053E860001308700C7
:100850007308810741317408813D41317508813D3C
:1008600041317608813D8B1708007708053E8600E8
:1008700001308700403FF100413FF200423FF3006A
:10088000433FF4000430F436F30CF20CF10C890B06
:10089000432C7708053E86000130870071088102ED
:1008A00041317208813B41317308813B4131740809
:1008B000813B7D317708033E860001308700403F51
:1008C000F100413FF2007108F3007208F400F501F5
:1008D000F6017708053E860001308700730881071E
:1008E00041317408813D41317508813D41317608BF
:1008F000813D0800FA007A088E31D6268431F50051
:100900007508F9007A088C3129248431003A031DD6
:10091000B92C7935513E86008701403FF500413FB3
:10092000F6007A08043E860087010108F700F80106
:100930000930F735F80D890B992C76087802031DDC
:10094000A32C750877020318B52C0130F5007A083E
:10095000053E86008701750881070F300102031CE0
:1009600008007A088C315A2408007A088C315A24FD
:1009700008007A08043E860087010108F500F601A8
:10098000F535F60D7A08063E860087017935513E29
:1009900084008501403F0002F1000131413F003BEE
:1009A000F2008D31B725843176087202031DDA2CEE
:1009B000750871020318E82C2030F5007A08023E11
:1009C00086008701750881007A088C31422408006E
:1009D0000230F5007A08033E86008701750881071A
:1009E0007A08033E8600870120300102031C0800BC
:1009F0002030F5007A08023E8600870175088100E4
:100A00007A088C31422408002000A0002008053E0E
:100A1000860001308700403FF100413FF200423F35
:100A2000F300433FF4000430F436F30CF20CF10C05
:100A3000890B142D2008033E860001308700403FBB
:100A4000F500413FF6007508F7007608F800F90157
:100A5000FA017108F7027208F83B7308F93B740851
:100A6000FA3B7A08A4007908A3007808A200770866
:100A7000A1002108F1002208F2002308F300240855
:100A8000F40020080F3E860001308700010A4C2D3B
:100A9000F437F30CF20CF10C890B482D7408A40008
:100AA0007308A3007208A2007108A100A41B6D2D99
:100AB0002408031D652D2308031D652D2208031D31
:100AC000652D80302102031C6D2D0030A400003004
:100AD000A3000030A2007F30A100A41F812D803030
:100AE0002102FF30223BFF30233BFF30243B031821
:100AF000812DFF30A400FF30A300FF30A200803022
:100B0000A1002108F1002008093E8600013087007D
:100B10007108810008002000B1005608B000550897
:100B2000AF00B036AF0CB036AF0C55082F07B2008F
:100B30005608303DB3006F08AF002F08B4005208CC
:100B4000B7005108B6005408B9005308B800BA01FC
:100B50003A08003E840090300318013E85000008EA
:100B6000AF002F08EF07AE306F020318BB2DAE3079
:100B7000AF002F08EF070530AF002F08B5002E0893
:100B8000AF002F08FB00310880314C208531003A3E
:100B90000319D22D01302000B5023508031DBF2DE9
:100BA000FC300800200056083302031DD92D5508DB
:100BB00032020318EB2D5608B3005508B2006F0837
:100BC000AF002F08B4005208B7005108B60054080F
:100BD000B9005308B8000130AF002F08BA0705303C
:100BE0003A02031CA82D3408AF002F08EF00370885
:100BF000D2003608D1003908D4003808D3000030BC
:100C00000800200024080A3E860001308700403F8B
:100C1000A500413FA60007302602D0300319250267
:100C2000031C292E240886000130870001088F311B
:100C300093278631200024088600013087000108B0
:100C4000A5002508F1006A088A0069080A008631B3
:100C500008002408093E8600013087000108803A18
:100C6000A50024080E3E86000130870024080E3EB1
:100C700084000130850000360102803AA502031885
:100C800008002408023E8600013087008101810AA5
:100C900024080A3E8600013087000030C03FC13F73
:100CA00024080C3E860001308700FF30C03FFB3037
:100CB000C13F24088600013087000108A5002508EF
:100CC000F1006A088A0069080A00863108002000DD
:100CD00024080A3E860001308700403FA500413FBE
:100CE000A6000030260209300319250203187D2EC4
:100CF00024088F3103278631812E24088331EB238A
:100D00008631200024080A3E860001308700013029
:100D1000810741310318810A24080A3E8600013008
:100D20008700403FA500413FA6000030260210305A
:100D300003192502031C08002408053E8600013023
:100D40008700403FA500413FA600423FA700433F28
:100D5000A8000430A836A70CA60CA50C890BAA2E57
:100D60002408033E8600013087002508C03F26087E
:100D7000C13F2408023E8600013087008101810ABC
:100D800024080A3E8600013087000030C03FC13F82
:100D900008002000BE000530BC003C08BD003E0835
:100DA000031DDF2E3B08031DDF2EFF30080001303E
:100DB0002000BD023D08031DDF2EFC3008003B086B
:100DC000BC003C08FB003E0880314C208631003AD4
:100DD000031DD72E20003E080319F22E3E088F3146
:100DE000C927863120003B080319FA2E3B088F31B2
:100DF000C927863120003E088C3167248631003AAD
:100E000003190A2F20003E088C3139248631003A1C
:100E1000031D1A2F20003B088C3167248631003ACD
:100E20000319232F20003B088C3139248631003AE6
:100E30000319232F20003B08BC003C08AE003E08ED
:100E400085318B250800003008002000AB002B08FE
:100E5000A9000330A935FF3E031D2A2F2935203E66
:100E6000AA002A08AC002C0A86000130870001087D
:100E70008C318F248731003A0319080020002C0A96
:100E800086000130870001088D3133258731003A13
:100E90000319080020002C088C31812487312000A0
:100EA0002C0885310425873120002C08023E86005D
:100EB0000130870003300102031C662F2C088600D6
:100EC0000130870001088F319327873120002C08DB
:100ED000A9002908A4002C08023E860001308700E2
:100EE0000135633E86008701413F8A00403F0A008A
:100EF00087310800FB007B08023E86000130870036
:100F000001080319B62F7B08033E860001308700D5
:100F1000403FF900413FFA00FA36F90CFA36F90C75
:100F20007B08033E86000130870079088102413149
:100F30007A08813B7F317B0A8600013087000108F7
:100F40008D31A0257508F9007608FA00FA36F90CFB
:100F5000FA36F90C7B08033E8600013087007908D9
:100F6000810741317A08813D7F3108007B0A860084
:100F70000130870001088D31A0257B08033E8600E3
:100F8000013087007508C03F7608C13F0800003473
:100F900001340034003400340034003400340034B0
:100FA000003400340034003400346434013401343B
:100FB000033400340034003400340034003400348E
:100FC000003400340034003400346434013402341A
:100FD000023400340034003400340034003400346F
:100FE00000340034003400340034643401340334F9
:100FF0000034003400340034003400340034003451
:0E100000003400340034003400346434013411
:10177200080008000800080008008D3189250800CB
:1017820020001C15080020001C1108008D31732553
:10179200080023001D121D160800163021009700B4
:1017A2000800F100710820009B0008007208200068
:1017B200EA007108E900080072082000EC007108D4
:1017C200EB00080072082100C5007108C40008007F
:1017D20072082100C9007108C800080072082100BF
:1017E200C7007108C600080072082100CB0071080A
:1017F200CA000800F030210099002200960108007A
:10180200640080010131890B022C0034FE001200B9
:101812001E00FE0B082C0034F1007108083E860001
:10182200870181140800F1007108083E86008701D3
:1018320081100800F1007108083E8600870101143A
:101842000800F1007108083E8600870101100800B7
:10185200F1007108083E86008701010E0139080077
:10186200FF3020009B009A01911004309C00080078
:10187200F1007108083E86008701010C890C0139CC
:101882000800F1007108083E860087010115710801
:10189200083E86008701011208008C319D248C319C
:1018A2008E3101268C318D3120258C318C31BB2437
:1018B2000800F1007108083E8600870101167108D0
:1018C200033E860087018101810A0800F100710848
:1018D200031D6D2C003008007108083E8600870148
:1018E200010C0139080067340634B534023401347E
:1018F2000634BB340B34BB340B34BD340B34AE343E
:101902002000A0008B1F8B2C8B13200887317A2795
:101912008B170800200887317A270800F600093063
:10192200F5007508F10076088C31DB24A83E8600AC
:101932008701010801390800FA017A088D3148252A
:101942008C310130F9007908FA0704307A02031861
:1019520008009E2C2000AE012E08873125278C31ED
:1019620001302000AD002D08AE0704302E0203180E
:101972000800AD2CFC3020009C052E0091012F00A8
:10198200910190302E0092004030940040302F00A0
:1019920094000800F20072080319D92C7208083E5C
:1019A20086008701010CF100F10C710C013908006D
:1019B20000300800F400F301741CE32C7108F200FB
:1019C2007208F3070310F10D0310F40C7408031DE1
:1019D200DD2C73080800F6000430760203180800B4
:1019E2000930F5007508F10076088C31DB24A83E39
:1019F2008600870101110800F60004307602031800
:101A020008000930F5007508F10076088C31DB24F6
:101A1200A83E86008701811508008E311D268D3172
:101A22008B31FB238D318B31CE238D318C3131249F
:101A32008D318F3131278D318C314E240800A03009
:101A4200F2007208F300BB30F20073087202031C4A
:101A5200080073088C3122248D310930F20072089B
:101A6200F307242DF600043076020318462D0930C0
:101A7200F5007508F10076088C31DB24A83E86005B
:101A82008701010C890C0139080000300800F800B8
:101A920078088C31FD248D3178088C31EC248D311D
:101AA2000930F7007708F10078088C31DB248D319A
:101AB200A03E8C31222408002000C7014708833150
:101AC20058238D31003A0319682D00300800013087
:101AD2002000C6004608C70702304702031C5F2DDC
:101AE20001300800F5017508F4000330F435FF3EBB
:101AF200031D772D7435203E8E3184268D310130C1
:101B0200F4007408F5070430750203180800742DF8
:101B120023001908F0007C08CC3E8600870170087B
:101B220081000130F0007008FC0708307C020318C5
:101B3200FC010130F00070082000E1070800F80005
:101B4200043078020318B42D0930F7007708F10049
:101B520078088C31DB24A63E86008701403FF500E1
:101B6200413FF6000800F501F60108007208803ACC
:101B7200F30080307302031DC02D0130710203187F
:101B820008007109F3007209F400F30A0319F40A58
:101B92007308F1007408F20008008D310E258D31B2
:101BA2008B170B17BC30F1000B30F2008B31DD23A9
:101BB2008D31BA30F1000B30F2008B31D7238D31E9
:101BC2008D31E5258D31E12D2000DD01DD0A8D31DC
:101BD2005D258D31003A031DF02D003008008C3157
:101BE200AB248D31803102208D312000C80048089D
:101BF200DD008D3120258D318B31C7230130080066
:101C0200C730F1008730F2004030F3000030F400BA
:101C120020308E31AB268E312000A00120088F317A
:101C220093278E310130FB007B082000A00704308F
:101C32002002031808000F2E373022008C00C0301B
:101C42008D00BF308E003F3021008C0060308D004F
:101C5200E8308E00E83023008E0040308D003730AF
:101C62008C0024008D018C012100951722009D011A
:101C72000800003469343034103420340034003425
:101C82000034003401343134303410342034003420
:101C920000340034003402345D34303410342034E3
:101CA200003400340034003403343534303410341A
:101CB20020340034003400340034F70077088E31C9
:101CC200D6268E31F5007508F6008B1F772E8B1302
:101CD2007635513E860087017708063E84008501ED
:101CE200403F803F413F813F8B1708007635513E90
:101CF200860087017708063E84008501403F803FC9
:101D0200413F813F0800F3007308023E8600013024
:101D1200870002300106031D080073080A3E860090
:101D2200013087000130810741310318810A7308AD
:101D32000A3E86000130870016000104031D0800D8
:101D420073080A3E860001308700FF30C03FFF3033
:101D5200C13F0800F9007208F8007108F70079081D
:101D6200F5007508FA000130F3020030F43B730A03
:101D72000319740A0319080077088400780885009B
:101D82000008F5007508F6000130F7070030F83D4D
:101D92007608F5007A088600013087007508810010
:101DA2000130F5007508FA07B42EF300F401740847
:101DB200F100F201F135F20D053071078400903027
:101DC200723D850000087306031DE92E00300800ED
:101DD2007408F100F201F135F20D0630710784004A
:101DE2009030723D850000087306031DFA2E013003
:101DF20008000130F1007108F40702307402031880
:101E0200E72ED82EF900790A8600013087000108F2
:101E12008D31A0258F3175082000A0007608A10021
:101E2200A201A3017908053E86000130870020083F
:101E3200C03F2108C13F2208C23F2308C33F79089F
:101E4200053E860001308700043081354131810D25
:101E52004131810D4131810D7D31890B262F0800E1
:101E6200210091126130F1000F30F2008B31F52325
:101E72008F31083023009F0090309D0024309E0057
:101E820040309B0003309C00B930F1000B30F2006F
:101E92008B31E9238F31CA30F1000B30F2008B31E4
:101EA200EF238F31BE30F1000B30F2008B31E32390
:101EB2002000E001FC01E201E1012100911608008D
:101EC2007C08493E86008701810123001D1D742F75
:101ED2007C08493E860087018114210049088A0056
:101EE20048080A008F3123009D1C822F7C08493E3E
:101EF200860087010115210047088A0046080A006A
:101F02008F317C08493E8600870101080319902F12
:101F1200210045088A0044080A008F3108008D31EB
:101F220089250800F9007908F7000330F735FF3EEC
:101F3200031D972F7735203EF8007808FA007A08BB
:101F4200023E86000130870081017A08053E860044
:101F5200013087000030C03F0030C13FC23FC33F65
:101F62007A080A3E8600013087000030C03FC13F38
:101F72007A080C3E8600013087000030C03FC13F26
:101F82007A0A86000130870001088C31EC240800AF
:101F9200F90079088E31D6268F31F5007508F800E0
:101FA20079088C31CB248F31003A0319EF2F79084D
:101FB200063E860087017835513E84008501403F08
:101FC2000002F1000131413F003BF2008D31B725A3
:101FD2008F317208F7007108F600F12FF601F70150
:101FE20000307702653003197602031CFC2F790852
:101FF2008C310D24080079088C3114240800003437
:102002000D341C341E341734A934A034BB34B2341A
:020000040001F9
:04000E00E4FDFFFF0F
:00000001FF
