:020000040000FA
:1000000080311628003008007E1480310B1F142820
:100010002100911E14282000911E14282100690837
:100020008A0068080A0080317E1009008031182893
:10003000D6308400953085006C3086000030870013
:1000400003308831002080310F3084008A308500F1
:10005000A0308600003087002E30883100208031AB
:10006000FC0152308400003085001A30963115268C
:100070008031CE3084000030850014309631152652
:1000800080312030840001308500403096311526C3
:100090008031A03084000130850020309631152653
:1000A0007E1020008231122A2000AD00A801A90193
:1000B000AA01AB01A701A401A5012D0803199328EA
:1000C0007B08031993282D08083E860087018119B3
:1000D00077287B08083E86008701811D77282D0838
:1000E000083E860087018115A401A40AA7287B0881
:1000F000083E8600870181198B282D08083E86005E
:100100008701811D8B287B08083E860087018115A9
:10011000A501A50AA7282D08083E86008701811998
:10012000A7287B08A0282D08031D99287B08031DFC
:1001300091282D080319A7287B08031DA7282D083F
:10014000083E860087018119A728003008007B0837
:1001500096317D268031003A0319B1282000A7018D
:10016000A70A2E0012082000A0002008A1002E00DF
:1001700013082000A0002008A2002F001308200070
:10018000A0002008A3009631C426803120002D084D
:100190000319DC282D08043E860087010108FF3E74
:1001A000A0002008AC00A60140302E0098002F00CF
:1001B000980122001D10EE287B08043E860087016E
:1001C0000108FF3EA0002008AC00A601A60A2E00F0
:1001D000980140302F00980022001D14F2012000E9
:1001E0002D08833106238031F201F20A7B08833126
:1001F00006238031200060106011E0116E089531F7
:10020000E62580319531CD2580312000DA01DB01F2
:100210002608031D1129111FE010111F0D291113AC
:100220001729121B1429E010121F14291213213050
:10023000A00020082E00980621302000A0002008F1
:100240002F009806C0302000A00020082E00940641
:10025000C0302000A00020082F00940620002C1899
:1002600077292E001A082000D2072E001B08200034
:10027000D33D2F001A082000D4072F001B082000B0
:10028000D53D2708031D5C292E001A0820002A02EC
:10029000F1002E001B0820002B3BF2009731D127E4
:1002A000803171082000DA077208DB3D2E001B0840
:1002B0002000AB002E0073292F001A0820002A020C
:1002C000F1002F001B0820002B3BF2009731D127B3
:1002D000803171082000DA077208DB3D2F001B080F
:1002E0002000AB002F001A082000AA00AB292E0026
:1002F0001A082000D2022E001B082000D33B2F003A
:100300001A082000D4022F001B082000D53B270824
:10031000031D91292E001A0820002802F1002E004A
:1003200097292F001A0820002802F1002F001B082F
:100330002000293BF2009731D1278031710820003D
:10034000DA077208DB3D2E001B082000A9002E00F2
:100350001A082000A8002C08031960140130AC0210
:10036000E01CB42960156014E014601C0829953164
:10037000D0258031200021082E0092002000220884
:100380002E009300200023082F0093002000601D02
:10039000CB29FB300800E01DCF29FA3008002408E3
:1003A0000319D7292D08083E8600870181112508E9
:1003B0000319DF297B08083E8600870181112D087B
:1003C0009631D4268031003A0319F32920002D08F4
:1003D00096314F268031003A031DF32920002D0865
:1003E0008E31542680317B089631D4268031003AF4
:1003F0000319052A7B0896314F268031003A031DE8
:10040000052A7B088E31542680312E0096012F005C
:1004100096012E0097012F0097012E0011102F003A
:100420001110A5289731282782318B170B175E30C2
:10043000F1000930F2009531F1258231C530F1002B
:100440001530F2009531EB25823122000C1120008D
:10045000DC01DD019531CA258231003A03198F2A6A
:100460008831762082312100EA006A082000E80005
:1004700068088B3170238231003A03198F2A2000DB
:100480006408031D4E2A68082100EA006A0820005B
:10049000E700680889310E2182318F2A6503031D28
:1004A000822A54306806031D692A0F308631EC26F3
:1004B000823152302100EB002B30EA000030890BF2
:1004C0005F2AEA0B5F2AEB0B5F2A00002000E6019F
:1004D000E60A46306806031D8F2A00308631EC2676
:1004E000823152302100EB002B30EA000030890BC2
:1004F000772AEA0B772AEB0B772A00002000E60127
:10050000E60A8F2A54306806031D8A2A6708843158
:100510005B2482314630200068060319E4018831EB
:1005200021208231003A03192A2A20006508031D80
:10053000DA2A0030883106208231013A031DD62A9A
:100540000130883106208231003A031DD62A02305C
:10055000883106208231003A031DD62A03308831C3
:1005600006208231013A031DD62A01302000DE0721
:100570000030DF3D20305E06033003195F06031DA7
:100580002A2ADE01DF010030C7009830C80096310A
:10059000E42682312000E501E50AE401E40A0030A6
:1005A0008631EC2682312000E3012A2A2000DE0178
:1005B000DF012A2A6308031DF22A0F308631EC2658
:1005C00082312000E301E30A0D302100EB002D30E1
:1005D000EA00D730890BEA2AEA0BEA2AEB0BEA2A6F
:1005E00000322A2A00308631EC2682312000E301D5
:1005F00015302100EB004B30EA00BE30890BFE2A9B
:10060000EA0BFE2AEB0BFE2A00002A2AF9007908E1
:10061000031908007208031D102BF601F701142BB3
:100620008030F6000030F7007608F3007308F80019
:10063000790A860087010108F3007808113EF4006A
:10064000F5010730F53D74088600750887007308CA
:1006500081007908053E860087010108F3007808CB
:10066000193EF400F5010730F53D74088600750861
:100670008700730881007808133EF300F401073007
:10068000F43D730886007408870050308100FE3006
:10069000F3007808183E860087010730873D73080D
:1006A0008105790896314F268331003A03196B2B67
:1006B0007908023E860087010108F3007808163E9B
:1006C000F400F5010730F53D7408860075088700D1
:1006D000730881007E2B7808163EF300F401073082
:1006E000F43D730886007408870020308100790883
:1006F00096313F268331003A0319902B7908033E47
:10070000860087010108F3007808173EF400F50120
:100710000730F53D740886007508870073089B2B29
:100720007808173EF300F4010730F43D73088600A3
:1007300074088700203081007908043E8600870114
:100740000108F300F4010930F335F40D890BA42BF3
:100750007235523E860087017308C03F7408C13F5E
:100760000800222C0E30C7009830C8009631E426CD
:1007700008001330C7009830C8009631E4260800FE
:100780001830C7009830C8009631E42608001D30A4
:10079000C7009830C8009631E42608002230C70010
:1007A0009830C8009631E42608002730C7009830FA
:1007B000C8009631E42608002C30C7009830C800E5
:1007C0009631E42608003130C7009830C8009631D1
:1007D000E42608003630C7009830C8009631E42679
:1007E00008003B30C7009830C8009631E426080066
:1007F0004030C7009830C8009631E42608004530E4
:10080000C7009830C8009631E42608004A30C70077
:100810009830C8009631E42608004F30C700983061
:10082000C8009631E42608005430C7009830C8004C
:100830009631E42608005930C7009830C800963138
:10084000E426080020005D08003A0319282C5A2CE1
:100850005C08003A0319B22B013A0319B92B033A89
:100860000319C02B013A0319C72B073A0319CE2BE2
:10087000013A0319D52B033A0319DC2B013A03196A
:10088000E32B0F3A0319EA2B013A0319F12B033A30
:100890000319F82B013A0319FF2B073A0319062C09
:1008A000013A03190D2C033A0319142C013A0319C8
:1008B0001B2C5A2C08002000D100C52C003086319A
:1008C000EC268431003086314F262000E4010800F8
:1008D00001308631EC2684310130632C02308631C0
:1008E000EC2684310230632C03308631EC268431CF
:1008F0000330632C04308631EC2684310430632CC1
:1009000005308631EC2684310530632C0630863183
:10091000EC2684310630632C07308631EC26843196
:100920000730632C08308631EC2684310830632C84
:1009300009308631EC2684310930632C0A30863147
:10094000EC2684310A30632C0B308631EC2684315E
:100950000B30632C0C308631EC2684310C30632C48
:100960000D308631EC2684310D30632C0E3086310B
:10097000EC2684310E30632C0F308631EC26843126
:100980000F30632C8331B12308005108CF00D00110
:100990005008003A0319CD2C652C4F08303A031942
:1009A0005E2C013A0319682C033A03196E2C013AA4
:1009B0000319742C073A03197A2C013A0319802C75
:1009C000033A0319862C013A03198C2C0F3A0319A8
:1009D000922C013A0319982C783A03199E2C033A69
:1009E0000319A42C013A0319AA2C073A0319B02CB5
:1009F000013A0319B62C023A0319BC2C123A031916
:100A0000C22C652C08002000BE0036088600870135
:100A1000403FB800413FB9003808840039088500DC
:100A20001200253A031D882D360886008701013003
:100A3000810741310318810AD601D701D801D901B4
:100A4000FF302100E000FF30E10020003608860082
:100A50008701403FB800413FB90038088400390899
:100A600085001200633A031D562D36088600870163
:100A70000130810741310318810A37088600870158
:100A8000010884008501023081070008B800380899
:100A9000BD003D08B8003808B0003E088931352156
:100AA00020003108B7003008B6000800360886007C
:100AB0008701403FB800413FB90038088400390839
:100AC00085001200253A031D7D2D3608860087011A
:100AD0000130810741310318810A2530F3000030CD
:100AE000F4003E08B8003808F5008A31CE22013003
:100AF0002000B6000030B7000800360886008701E5
:100B00000130810741310318810AB601B70108009D
:100B1000360886008701403FB800413FB9003808D9
:100B20008400390885000008BA00BB013A08F300C8
:100B30003B08F4003E08BC003C08F5008A31CE2298
:100B40008531200036088600870101308107413158
:100B50000318810A772D20002408093E8600013001
:100B600087000108803AA50024080E3E8600013067
:100B700087000103FF3A803AA5020318EA2D2408F2
:100B80000A3E860001308700013081074131031899
:100B9000810A24080A3E860001308700403FA500F4
:100BA000413FA60000302602413003192502031CF4
:100BB0002C2E24080A3E8600013087000030C03FFA
:100BC000C13F240886000130870001088B310323D0
:100BD00085312C2E2408093E86000130870001084B
:100BE000A500A601A51BA60324080E3E8600013021
:100BF00087002608803A803C031D002E250801024C
:100C00000318232E02302000A5002408023E86008F
:100C1000013087002508810024080A3E8600013043
:100C200087000030C03FC13F2408860001308700A4
:100C30000108A5002508F400210027088A002608DD
:100C40000A0086312C2E200024080A3E860001303E
:100C500087000030C03FC13F200024080C3E8600C2
:100C6000013087000130810741310318810A2408CF
:100C70000C3E8600013087001600403AA5001600A1
:100C8000A504031D080024080C3E860001308700DF
:100C90000030C03FC13F24088E31DE260800F3003B
:100CA000B12E22000D178E168C160C16080022008D
:100CB0000D178E168C160C12080022000D178E16BA
:100CC0008C120C16080022000D178E168C120C12B6
:100CD000080022000D178E128C160C160800220038
:100CE0000D178E128C160C12080022000D178E1292
:100CF0008C120C16080022000D178E128C120C128A
:100D0000080022000D138E168C160C160800220007
:100D10000D138E168C160C12080022000D138E1661
:100D20008C120C16080022000D138E168C120C1259
:100D3000080022000D138E128C160C1608002200DB
:100D40000D138E128C160C12080022000D138E1239
:100D50008C120C16080022000D138E128C120C122D
:100D600008007308F100F2017208003A0319B92E65
:100D7000EB2E7108003A0319512E013A0319572E30
:100D8000033A03195D2E013A0319632E073A03193A
:100D9000692E013A03196F2E033A0319752E013A91
:100DA00003197B2E0F3A0319812E013A0319872E5E
:100DB000033A03198D2E013A0319932E073A0319AA
:100DC000992E013A03199F2E033A0319A52E013AD1
:100DD0000319AB2EEB2E0800F3004E2F22000C144B
:100DE0008E178C148E15080022000C148E178C148C
:100DF0008E11080022000C148E178C108E1508001E
:100E000022000C148E178C108E11080022000C1476
:100E10008E138C148E15080022000C148E138C1463
:100E20008E11080022000C148E138C108E150800F1
:100E300022000C148E138C108E11080022000C104E
:100E40008E178C148E15080022000C108E178C142F
:100E50008E11080022000C108E178C108E150800C1
:100E600022000C108E178C108E11080022000C101E
:100E70008E138C148E15080022000C108E138C1407
:100E80008E11080022000C108E138C108E15080095
:100E900022000C108E138C108E1108007308F100C4
:100EA000F2017208003A0319562F882F7108003A90
:100EB0000319EE2E013A0319F42E033A0319FA2E00
:100EC000013A0319002F073A0319062F013A0319B3
:100ED0000C2F033A0319122F013A0319182F0F3A56
:100EE00003191E2F013A0319242F033A03192A2F3D
:100EF000013A0319302F073A0319362F013A031923
:100F00003C2F033A0319422F013A0319482F882F27
:100F100008002000B1005B08B0005A08AF00B036EE
:100F2000AF0CB036AF0C5A082F07B2005B08303D4B
:100F3000B3006E08AF002F08B4005308B700520882
:100F4000B6005508B9005408B800BA013A08093E7D
:100F5000840098300318013E85000008AF002F0878
:100F6000EE07AE306E020318B92FAE30AF002F0877
:100F7000EE070530AF002F08B5002E08AF002F0890
:100F8000FB003108803154208731003A0319D02FFB
:100F900001302000B5023508031DBD2FFC300800CC
:100FA00020005B083302031DD72F5A0832020318B2
:100FB000E92F5B08B3005A08B2006E08AF002F0893
:100FC000B4005308B7005208B6005508B9005408D9
:100FD000B8000130AF002F08BA0705303A02031CF1
:100FE000A62F3408AF002F08EE003708D3003608CC
:100FF000D2003908D5003808D400003008000800B5
:10100000FE0012001E00FE0B01280034F200043026
:10101000720203181F287208F1000330F135FF3EF9
:10102000031D0E287135223E8600013087000230F4
:101030000106031D1D2801300800003008000030A3
:1010400008002000E201E20A973177278831003A50
:10105000031D2C28003008009631B42688318031D9
:10106000022088312000C8004808E20097313A2762
:1010700088319531D325013008000030F1009030DF
:10108000F2004030F3000030F40020308931892133
:1010900088312000A00120088B31032388310130E2
:1010A000FB007B082000A007043020020318080082
:1010B0004B28373022008C00C0308D00BF308E00AE
:1010C000083021008C0020308D0040308E00E83048
:1010D00023008E0040308D0037308C0024008D01BD
:1010E0008C012100951722009D01080020006A084C
:1010F000031976286B08CE3E860087010108F100AF
:101100007108E9006B08D63E860087010108F100EE
:101110007108F2000130F1007108EB0708306B0232
:101120000318EB012100911201302000EA02210096
:101130009116720808002000A600A401A501240849
:101140002607A00020088600013087000108A100C2
:101150002108A3002308031908002308A000A10107
:101160002008F3002108F4007B08A2002208F50003
:101170008A31CE22883101302000A4070030A53DFD
:101180009F28F70077088931B4218831F500750868
:10119000F6008B1FDA288B137635523E86008701C6
:1011A0007708063E84008501403F803F413F813FF4
:1011B0008B1708007635523E860087017708063E79
:1011C00084008501403F803F413F813F0800F3009C
:1011D0007308023E86000130870002300106031DBD
:1011E000080073080A3E860001308700013081073D
:1011F00041310318810A73080A3E860001308700D6
:1012000016000104031D080073080A3E8600013021
:101210008700FF30C03FFF30C13F08002000D100F1
:101220002429E40108006230C7009830C800510842
:10123000CF00D0014F08C9005008CA009631E426FB
:101240002000E401E40A08005108CF00D001500852
:10125000003A03192C2913294F08463A031911297A
:10126000123A03191129132908002000B500560865
:101270005704031D40295708B4005608B3004629F7
:101280005608FF3EB300FF30573DB4003008B200AF
:1012900032082300A000A101A0302000B2003208D3
:1012A000A7003408A9003308A80035088B31BA23F9
:1012B00020002808B1002708B000080020006508B9
:1012C000031D08007408031D69290130DC06003085
:1012D000DD067403031D70290230DC060030DD06D4
:1012E00002307406031D78290430DC060030DD0668
:1012F00003307406031D80290830DC060030DD064B
:101300005C088631EC26893120005C0886314F2646
:101310000800F9007208F8007108F7007908F50074
:101320007508FA000130F3020030F43B730A031928
:10133000740A0319080077088400780885000008FB
:10134000F5007508F6000130F7070030F83D760823
:10135000F5007A08860001308700750881000130A9
:10136000F5007508FA079229F300F4017408F100FA
:10137000F201F135F20D5E30710784009830723D54
:10138000850000087306031DC72900300800740893
:10139000F100F201F135F20D5F30710784009830F1
:1013A000723D850000087306031DD829013008002E
:1013B0000130F1007108F407023074020318C529E6
:1013C000B629F900790A86000130870001089731B3
:1013D000BA27893175082000A0007608A100A20173
:1013E000A3017908053E8600013087002008C03F30
:1013F0002108C13F2208C23F2308C33F7908053EA8
:10140000860001308700043081354131810D413142
:10141000810D4131810D7D31890B042A080005348D
:101420000D34AB34053467340D34C6341534FF3411
:10143000073400346934303410342034003400343C
:10144000003400340134313430341034203400346A
:1014500000340034003402345D343034103420342D
:101460000034003400340034033435343034103464
:10147000203400340034003400342000C40040081C
:10148000C6003F08C5002100DE01DF01200045083D
:1014900084004608850012000319632A4530C20003
:1014A0004208B6004108C3004308B700440885312C
:1014B00003258A31200036082100DE072000370886
:1014C0002100DF3D462A21005F082000C0002100E6
:1014D0005E082000BF000800210091129C30F1003E
:1014E0000A30F200963109268A31083023009F0025
:1014F00090309D0024309E0040309B0003309C00C3
:10150000C430F1001530F2009531FD258A31D93013
:10151000F1001530F200963103268A31C730F10010
:101520001530F2009531F7252000E901FC01EB01AF
:10153000EA012100911608007C08CE3E8600870152
:10154000810123001D1DAF2A7C08CE3E8600870145
:101550008114210067088A0066080A008A31230086
:101560009D1CBD2A7C08CE3E860087010115210006
:1015700065088A0064080A008A317C08CE3E86002D
:10158000870101080319CB2A210063088A00620839
:101590000A008A3108009731A32708007508031D47
:1015A0007508031DD72A73089531E12508007508D1
:1015B000033E86008701160001040319FA2A750804
:1015C000033E86008701403FF600413FF700750A61
:1015D00086008701403FF800413FF9007908803AD2
:1015E000FA007708803A7A02031DF82A7608780212
:1015F00003180800750A8600870101308107413110
:101600000318810A0800F9007908F7000330F7355C
:10161000FF3E031D072B7735203EF8007808FA00BF
:101620007A08023E86000130870081017A08053E73
:101630008600013087000030C03F0030C13FC23F0C
:10164000C33F7A080A3E8600013087000030C03F61
:10165000C13F7A080C3E8600013087000030C03F51
:10166000C13F7A0A860001308700010897310627BA
:101670000800F90079088931B4218B31F50075082B
:10168000F80079089631D4268B31003A03195F2B84
:101690007908063E860087017835523E8400850130
:1016A000403F0002F1000131413F003BF200973121
:1016B000D1278B317208F7007108F600612BF60113
:1016C000F70100307702653003197602031C6C2B9A
:1016D000790896311B2608007908963122260800E1
:1016E000F300762B01300800003008007308F10089
:1016F000F2017208003A03197E2B742B7108303AFC
:101700000319722B013A0319722B033A0319722B36
:10171000013A0319722B073A0319722B013A031984
:10172000722B033A0319722B013A0319722B0F3AE9
:101730000319722B013A0319722B783A0319722B91
:10174000033A0319722B013A0319722B073A031952
:10175000722B013A0319722B033A0319722B013AC7
:101760000319722B133A0319722B013A0319722BC6
:10177000742B08002000AF00581CC62B2F08AA00AD
:101780002A08FB00270888319B208B312000A91BE9
:10179000CE2B2908AE002808AD00D02BAD01AE013C
:1017A000AB01AC012C08803AAA002E08803A2A022C
:1017B000031DDC2B2D082B020318F02B2030F30027
:1017C0000030F40020002F08AA002A08F5008A3112
:1017D000CE228B3101302000AB070030AC3DD22B44
:1017E00020005818FB2B2F08AA002A08FB00270806
:1017F00088319B208B31200027089731E827200073
:101800002D087107A7002E08723DA8000800FB00F4
:101810007B08023E86000130870001080319432C33
:101820007B08033E860001308700403FF900413FBE
:10183000FA00FA36F90CFA36F90C7B08033E8600FA
:10184000013087007908810241317A08813B7F317C
:101850007B0A86000130870001089731BA27750896
:10186000F9007608FA00FA36F90CFA36F90C7B081A
:10187000033E8600013087007908810741317A08EC
:10188000813D7F3108007B0A860001308700010816
:101890009731BA277B08033E860001308700750820
:1018A000C03F7608C13F08002000AB002B08A9000C
:1018B0000330A935FF3E031D592C2935203EAA00CF
:1018C0002A08AC002C0A86000130870001089631F6
:1018D00098268C31003A0319080020002C0A860053
:1018E00001308700010897314D278C31003A0319E8
:1018F000080020002C0896318A268C3120002C0804
:101900008D31CD258C3120002C08023E860001301F
:10191000870003300102031C952C2C08860001303F
:10192000870001088B3103238C3120002C08A9008B
:101930002908A4002C08023E8600013087000135EA
:10194000A03E86008701413F8A00403F0A008C315B
:1019500008002000BE000530BC003C08BD003E0869
:10196000031DBF2C3B08031DBF2CFF3008000130B6
:101970002000BD023D08031DBF2CFC3008003B08C1
:10198000BC003C08FB003E08803154208C31003AFA
:10199000031DB72C20003E080319D22C3E088B31C2
:1019A00039238C3120003B080319DA2C3B088B319A
:1019B00039238C3120003E0896317D268C31003A47
:1019C0000319EA2C20003E0896314F268C31003A4C
:1019D000031DFA2C20003B0896317D268C31003AFD
:1019E0000319032D20003B0896314F268C31003A15
:1019F0000319032D20003B08BC003C08AE003E0844
:101A000087318927080000300800200024080A3E9A
:101A1000860001308700403FA500413FA60000300E
:101A2000260209300319250203181B2D24088931C9
:101A3000E1218D311F2D24088E31DE268D312000CD
:101A400024080A3E860001308700013081074131B9
:101A50000318810A24080A3E860001308700403FAF
:101A6000A500413FA60000302602103003192502D0
:101A7000031C08002408053E860001308700403F13
:101A8000A500413FA600423FA700433FA800043005
:101A9000A836A70CA60CA50C890B482D2408033EDC
:101AA0008600013087002508C03F2608C13F240872
:101AB000023E8600013087008101810A24080A3E27
:101AC0008600013087000030C03FC13F0800200081
:101AD00024080A3E860001308700403FA500413FB0
:101AE000A60007302602D03003192502031C8F2DD3
:101AF000240886000130870001088B3103238D31D3
:101B0000200024088600013087000108A500250870
:101B1000F4006D088A006C080A008D310800240862
:101B2000093E8600013087000108803AA50024089C
:101B30000E3E86000130870024080E3E84000130EE
:101B4000850000360102803AA50203180800240827
:101B5000023E8600013087008101810A24080A3E86
:101B60008600013087000030C03FC13F24080C3E92
:101B7000860001308700FF30C03FFB30C13F2408A2
:101B80008600013087000108A5002508F4006D08D3
:101B90008A006C080A008D3108002000A00020088F
:101BA000053E860001308700403FF100413FF200D2
:101BB000423FF300433FF4000430F436F30CF20CE0
:101BC000F10C890BDD2D2008033E860001308700D3
:101BD000403FF500413FF6007508F7007608F80031
:101BE000F901FA017108F7027208F83B7308F93B32
:101BF0007408FA3B7A08A4007908A3007808A200C8
:101C00007708A1002108F1002208F2002308F30060
:101C10002408F40020080F3E860001308700010AE6
:101C2000152EF437F30CF20CF10C890B112E7408FD
:101C3000A4007308A3007208A2007108A100A41BED
:101C4000362E2408031D2E2E2308031D2E2E2208B7
:101C5000031D2E2E80302102031C362E0030A400DE
:101C60000030A3000030A2007F30A100A41F4A2E44
:101C700080302102FF30223BFF30233BFF30243BEA
:101C800003184A2EFF30A400FF30A300FF30A2004B
:101C90008030A1002108F1002008093E86000130B3
:101CA0008700710881000800FA007A088931B421A0
:101CB0008E31F5007508F9007A0896313F268E318D
:101CC000003A031D932E7935523E86008701403F2E
:101CD000F500413FF6007A08043E860087010108BE
:101CE000F700F8010930F735F80D890B732E7608E7
:101CF0007802031D7D2E7508770203188F2E0130A0
:101D0000F5007A08053E86008701750881070F30C7
:101D10000102031C08007A089631702608007A0830
:101D20009631702608007A08043E86008701010873
:101D3000F500F601F535F60D7A08063E86008701B6
:101D40007935523E84008501403F0002F1000131A7
:101D5000413F003BF2009731D1278E317608720265
:101D6000031DB42E750871020318C22E2030F50031
:101D70007A08023E86008701750881007A0896314C
:101D8000582608000230F5007A08033E86008701D5
:101D9000750881077A08033E86008701203001021A
:101DA000031C08002030F5007A08023E86008701F7
:101DB000750881007A08963158260800F7008B1FB5
:101DC000282F8B137708053E860001308700403F9F
:101DD000F100413FF200423FF300433FF400043082
:101DE000F436F30CF20CF10C890BF02E7708053E5B
:101DF0008600013087007108810241317208813B01
:101E000041317308813B41317408813B7D31770852
:101E1000033E860001308700403FF100413FF20061
:101E20007108F3007208F400F501F6017708053E29
:101E30008600013087007308810741317408813DB5
:101E400041317508813D41317608813D8B1708008D
:101E50007708053E860001308700403FF100413F92
:101E6000F200423FF300433FF4000430F436F30C39
:101E7000F20CF10C890B362F7708053E86000130F5
:101E800087007108810241317208813B413173083A
:101E9000813B41317408813B7D317708033E8600E8
:101EA00001308700403FF100413FF2007108F3002C
:101EB0007208F400F501F6017708053E860001304E
:101EC00087007308810741317408813D41317508ED
:101ED000813D41317608813D08002000C200420862
:101EE000BF00C001BF35C00D5E303F078400983091
:101EF000403D85000008C1004108C4004208BF0001
:101F0000C001BF35C00D5F303F0784009830403DB1
:101F100085000008C1004108C5004508BF003F0812
:101F2000BB0044088C31A9248F312000C000400838
:101F3000C300DA2F44089631D4268F31003A0319B2
:101F4000B92F20006108031DA92F44088831C12042
:101F50008F3120004408963129268F312000440813
:101F6000860087010108BF003F08F1008731FF2785
:101F70008F31200045089631D4268F31003A03195D
:101F8000FD2F20006108031DC92F45088831C1209D
:101F90008F3120004508963129268F3120004508D1
:101FA000860087010108BF003F08F1008731FF2745
:101FB0008F31FD2F4308BF00C001BF1BC003400885
:101FC000003A0319E72FFF3A0319EC2FFD2F3F08C2
:101FD000003A03199A2FFD2F3F08FB3A0319FD2FF2
:101FE000073A0319FD2F013A0319FD2F033A03198C
:101FF000FD2F013A0319FD2FFD2F20004308080093
:10200000003401340034003400340034003400342F
:1020100000340034003400340034003464340134BB
:10202000013400340034003400340034003400340F
:10203000003400340034003400340034643401349B
:1020400002340334003400340034003400340034EB
:10205000003400340034003400340034643401347B
:1020600003340234003400340034003400340034CB
:10207000003400340034003400340034643401345B
:102B88000800080008009731A327080020006A08F9
:102B9800080020001C15080020001C1108009731AF
:102BA8008D270800C6341534AE3423001D121D16B7
:102BB80008001630210097000800F20072089631CC
:102BC80037260800F100710820009B0008007208F1
:102BD8002000ED007108EC00080072082100A70031
:102BE8007108A600080072082100E3007108E200DD
:102BF800080072082100E7007108E6000800720862
:102C08002100E5007108E400080072082100E900CD
:102C18007108E8000800F0302100990022009601B0
:102C28000800640080010131890B162E0034F10080
:102C38007108083E8600870181140800F1007108B8
:102C4800083E8600870181100800F1007108083EDF
:102C58008600870101140800F1007108083E86000B
:102C6800870101100800F1002000111E382E71089C
:102C780023009A000800F1007108083E86008701C9
:102C8800010E01390800FF3020009B009A019110C5
:102C980004309C000800F1007108083E8600870196
:102CA800010C890C01390800F1007108083E860002
:102CB800870101157108083E860087010112080086
:102CC8009631A626963188313D20963197313A279C
:102CD80096319631C4260800F1007108083E860036
:102CE800870101167108033E860087018101810A68
:102CF8000800F1007108031D832E003008007108D8
:102D0800083E86008701010C013908002000A00058
:102D18008B1F942E8B1320088C3107248B170800E7
:102D280020088C3107240800F6000930F5007508E2
:102D3800F10076089631F526B23E86008701010833
:102D480001390800FA017A08973162279631013073
:102D5800F9007908FA0704307A0203180800A72E48
:102D68002000AE012E088C31542496310130200009
:102D7800AD002D08AE0704302E0203180800B62E49
:102D8800FC3020009C052E0091012F00910190300D
:102D98002E0092004030940040302F00940008002C
:102DA800F20072080319E22E7208083E86008701B5
:102DB800010CF100F10C710C013908000030080019
:102DC80049302000CB004B08CE004808C000470817
:102DD800BF004E30CB004B08C10000308A313D2285
:102DE8000800F400F301741CFD2E7108F20072084B
:102DF800F3070310F10D0310F40C7408031DF72EEC
:102E080073080800F6000430760203180800093039
:102E1800F5007508F10076089631F526B23E860071
:102E2800870101110800F600043076020318080033
:102E38000930F5007508F10076089631F526B23E9E
:102E4800860087018115080088315920973196310D
:102E58000F2697319531DD259731963147269731E1
:102E68008A316C229731963164260800AA30F20024
:102E78007208F300C530F20073087202031C0800E0
:102E880073089631302697310930F2007208F3073B
:102E98003E2FF600043076020318602F0930F50043
:102EA8007508F10076089631F526B23E860087014E
:102EB800010C890C0139080000300800F800780876
:102EC80097311727973178089731062797310930B6
:102ED800F7007708F10078089631F5269731AA3E71
:102EE8009631302608002000C70147088F316D272A
:102EF8009731003A0319822F003008000130200072
:102F0800C6004608C70702304702031C792F013064
:102F18000800F5017508F4000330F435FF3E031D81
:102F2800912F7435203E8831E72097310130F40025
:102F38007408F50704307502031808008E2F230063
:102F48001908F0007C08D63E8600870170088100C9
:102F58000130F0007008FC0708307C020318FC01FF
:102F68000130F00070082000EA070800F80004307B
:102F780078020318CE2F0930F7007708F100780897
:102F88009631F526B03E86008701403FF500413F67
:102F9800F6000800F501F60108007208803AF3000F
:102FA80080307302031DDA2F013071020318080004
:102FB8007109F3007209F400F30A0319F40A73089B
:102FC800F1007408F2000800F5007508F3007308B2
:102FD800F400750886000130870001080319F92FED
:102FE8000130F3007308F507ED2F74087502F1003E
:102FF800F201F11BF20308005034493443345334CE
:103008004D34413452345434003400340D341C34BB
:103018001E34173450344934433430340034503477
:10302800493443343134003450344934433432342D
:103038000034503449344334333400345034493440
:103048004334343400345034493443343534003450
:1030580050344934433436340034503449344334DA
:10306800373400345034493443343834003450341D
:1030780049344334393400345034493443344134C6
:1030880000345034493443344234003450344934E1
:1030980043344334003450344934433444340034E2
:1030A800503449344334453400345034493443347B
:1030B80047340034B334AA34C534BC3425346334BB
:0230C8000034D2
:020000040001F9
:04000E00E4FDFFFF0F
:00000001FF
