:020000040000FA
:1000000080311528003008007E1480310B1F132822
:100010002100911E13282000911E13286F088A00CA
:100020006E080A0080317E100900803117283730B1
:1000300084008C30850061308600003087000D30F0
:100040008B31CA238031FF3084008D308500A03091
:1000500086000030870024308B31CA238031FC01B8
:10006000493084000030850018308B31C423803142
:10007000C43084000030850008308B31C4238031C7
:10008000203084000130850040308B31C4237E1045
:1000900020008D31912D2000AD00A801A901AA01F9
:1000A000AB01A701A401A5012D0803198A287B082B
:1000B00003198A282D08083E8600870181196E28B9
:1000C0007B08083E86008701811D6E282D08083EAA
:1000D000860087018115A401A40A9E287B08083E9A
:1000E00086008701811982282D08083E8600870135
:1000F000811D82287B08083E860087018115A501A5
:10010000A50A9E282D08083E8600870181199E2891
:100110007B0897282D08031D90287B08031D88283D
:100120002D0803199E287B08031D9E282D08083ED4
:100130008600870181199E28003008007B088C31D9
:100140002A248031003A0319A8282000A701A70A11
:100150002E0012082000A0002008A1002E00130885
:100160002000A0002008A2002F0013082000A000FB
:100170002008A3008C317E24803120002D08031933
:10018000D3282D08043E860087010108FF3EA00009
:100190002008AC00A60140302E0098002F009801E6
:1001A00022001D10E5287B08043E86008701010817
:1001B000FF3EA0002008AC00A601A60A2E00980170
:1001C00040302F00980022001D14F20120002D085D
:1001D000823109228031F201F20A7B088231092240
:1001E0008031200059105911D9116D088B31952398
:1001F00080318B31842380312000D501D60126083F
:10020000031D0829111FD910111F042911130E29CC
:10021000121B0B29D910121F0B2912132130A00019
:1002200020082E00980621302000A00020082F0072
:100230009806C0302000A00020082E009406C03090
:100240002000A00020082F00940620002C186E2902
:100250002E001A082000D1072E001B082000D23DD6
:100260002F001A082000D3072F001B082000D43DC0
:100270002708031D53292E001A0820002A02F10026
:100280002E001B0820002B3BF2008D317A25803197
:1002900071082000D5077208D63D2E001B082000EB
:1002A000AB002E006A292F001A0820002A02F10054
:1002B0002F001B0820002B3BF2008D317A25803166
:1002C00071082000D5077208D63D2F001B082000BA
:1002D000AB002F001A082000AA00A2292E001A083D
:1002E0002000D1022E001B082000D23B2F001A084C
:1002F0002000D3022F001B082000D43B2708031D39
:1003000088292E001A0820002802F1002E008E29CC
:100310002F001A0820002802F1002F001B082000DF
:10032000293BF2008D317A25803171082000D507F4
:100330007208D63D2E001B082000A9002E001A08C6
:100340002000A8002C08031959140130AC02D91C54
:10035000AB2959155914D914591CFF288B318723FF
:100360008031200021082E009200200022082E005B
:100370009300200023082F0093002000591DC2295C
:10038000FB300800D91DC629FA30080024080319DB
:10039000CE292D08083E8600870181112508031902
:1003A000D6297B08083E8600870181112D088C31F3
:1003B0008E248031003A0319EA2920002D088B3160
:1003C000FC238031003A031DEA2920002D088431E6
:1003D000792480317B088C318E248031003A0319D6
:1003E000FC297B088B31FC238031003A031DFC295A
:1003F0007B088431792480312E0096012F009601EC
:100400002E0097012F0097012E0011102F001110C0
:100410009C28F9007908031908007208031D132AA3
:10042000F601F701172A8030F6000030F700760851
:10043000F3007308F800790A860087010108F300C9
:100440007808113EF400F5010730F53D7408860088
:1004500075088700730881007908053E86008701CA
:100460000108F3007808193EF400F5010730F53D66
:100470007408860075088700730881007808133EA9
:10048000F300F4010730F43D730886007408870018
:1004900050308100FE30F3007808183E8600870156
:1004A0000730873D7308810579088B31FC23823141
:1004B000003A03196E2A7908023E86008701010876
:1004C000F3007808163EF400F5010730F53D740896
:1004D00086007508870073088100812A7808163E17
:1004E000F300F4010730F43D7308860074088700B8
:1004F0002030810079088B31EC238231003A0319D6
:10050000932A7908033E860087010108F3007808E2
:10051000173EF400F5010730F53D740886007508B4
:10052000870073089E2A7808173EF300F40107300D
:10053000F43D730886007408870020308100790834
:10054000043E860087010108F300F4010930F33509
:10055000F40D890BA72A7235513E86008701730876
:10056000C03F7408C13F080020002408093E8600EF
:10057000013087000108803AA50024080E3E86005D
:10058000013087000103FF3A803AA5020318F32ADD
:1005900024080A3E8600013087000130810741317E
:1005A0000318810A24080A3E860001308700403F74
:1005B000A500413FA6000030260241300319250264
:1005C000031C342B24080A3E8600013087000030CB
:1005D000C03FC13F240886000130870001088F31E9
:1005E00058278231342B2408093E860001308700C9
:1005F0000108A500A601A51BA60324080E3E86003F
:10060000013087002608803A803C031D092B25080D
:10061000010203182B2B02302000A5002408023E03
:100620008600013087002508810024080A3E8600E4
:10063000013087000030C03FC13F240886000130F0
:1006400087000108A5002508F1006A088A006908EA
:100650000A008331342B200024080A3E8600013032
:1006600087000030C03FC13F200024080C3E8600B8
:10067000013087000130810741310318810A2408C5
:100680000C3E8600013087001600403AA500160097
:10069000A504031D080024080C3E860001308700D5
:1006A0000030C03FC13F24088331EA230800200006
:1006B000C2004208BF00C001BF35C00D05303F0772
:1006C00084009030403D85000008C1004108C4000E
:1006D0004208BF00C001BF35C00D06303F0784008F
:1006E0009030403D85000008C1004108C500450824
:1006F000BF003F08BB0044088631C8268331200074
:10070000C0004008C300C42B44088C318E248331C0
:10071000003A0319A32B20005A08031D932B440809
:100720008E3123268331200044088B31DE23833130
:1007300020004408860087010108BF003F08F1003F
:100740008B3180238331200045088C318E24833106
:10075000003A0319E72B20005A08031DB32B450864
:100760008E3123268331200045088B31DE238331EF
:1007700020004508860087010108BF003F08F100FE
:100780008B3180238331E72B4308BF00C001BF1B9F
:10079000C0034008003A0319D12BFF3A0319D62BA6
:1007A000E72B3F08003A0319842BE72B3F08FB3A5D
:1007B0000319E72B073A0319E72B013A0319E72B33
:1007C000033A0319E72B013A0319E72BE72B200023
:1007D00043080800F7008B1F342C8B137708053E65
:1007E000860001308700403FF100413FF200423F68
:1007F000F300433FF4000430F436F30CF20CF10C38
:10080000890BFC2B7708053E8600013087007108B4
:10081000810241317208813B41317308813B413192
:100820007408813B7D317708033E860001308700E4
:10083000403FF100413FF2007108F3007208F400FC
:10084000F501F6017708053E860001308700730840
:10085000810741317408813D41317508813D413145
:100860007608813D8B1708007708053E8600013029
:100870008700403FF100413FF200423FF300433F19
:10088000F4000430F436F30CF20CF10C890B422C1A
:100890007708053E860001308700710881024131EA
:1008A0007208813B41317308813B41317408813BBF
:1008B0007D317708033E860001308700403FF1001C
:1008C000413FF2007108F3007208F400F501F601EF
:1008D0007708053E860001308700730881074131A3
:1008E0007408813D41317508813D41317608813D73
:1008F0000800FA007A088E319B268431F5007508CD
:10090000F9007A088B31EC238431003A031DB82CAE
:100910007935513E86008701403FF500413FF600A2
:100920007A08043E860087010108F700F8010930C3
:10093000F735F80D890B982C76087802031DA22C48
:10094000750877020318B42C0130F5007A08053ECB
:1009500086008701750881070F300102031C08001B
:100960007A088C311D2408007A088C311D24080077
:100970007A08043E860087010108F500F601F53586
:10098000F60D7A08063E860087017935513E8400CF
:100990008501403F0002F1000131413F003BF20080
:1009A0008D317A25843176087202031DD92C7508A1
:1009B00071020318E72C2030F5007A08023E860009
:1009C0008701750881007A088C31052408000230FF
:1009D000F5007A08033E86008701750881077A08CA
:1009E000033E8600870120300102031C08002030EE
:1009F000F5007A08023E86008701750881007A08B2
:100A00008C31052408002000A0002008053E860047
:100A100001308700403FF100413FF200423FF300C8
:100A2000433FF4000430F436F30CF20CF10C890B64
:100A3000132D2008033E860001308700403FF5005B
:100A4000413FF6007508F7007608F800F901FA0151
:100A50007108F7027208F83B7308F93B7408FA3B17
:100A60007A08A4007908A3007808A2007708A100FA
:100A70002108F1002208F2002308F3002408F40002
:100A800020080F3E860001308700010A4B2DF43705
:100A9000F30CF20CF10C890B472D7408A4007308B9
:100AA000A3007208A2007108A100A41B6C2D2408E9
:100AB000031D642D2308031D642D2208031D642DCE
:100AC00080302102031C6C2D0030A4000030A300F4
:100AD0000030A2007F30A100A41F802D80302102B1
:100AE000FF30223BFF30233BFF30243B0318802D97
:100AF000FF30A400FF30A300FF30A2008030A1002F
:100B00002108F1002008093E8600013087007108A5
:100B1000810008002000B1005608B0005508AF0061
:100B2000B036AF0CB036AF0C55082F07B2005608E0
:100B3000303DB3006D08AF002F08B4005208B70075
:100B40005108B6005408B9005308B800BA013A0871
:100B5000003E840090300318013E85000008AF007D
:100B60002F08ED07AE306D020318BA2DAE30AF007E
:100B70002F08ED070530AF002F08B5002E08AF0095
:100B80002F08FB00310880314B208531003A0319D2
:100B9000D12D01302000B5023508031DBE2DFC30DB
:100BA0000800200056083302031DD82D55083202D4
:100BB0000318EA2D5608B3005508B2006D08AF00BF
:100BC0002F08B4005208B7005108B6005408B90005
:100BD0005308B8000130AF002F08BA0705303A02B9
:100BE000031CA72D3408AF002F08ED003708D200F2
:100BF0003608D1003908D4003808D3000030080086
:100C0000200024080A3E860001308700403FA500EE
:100C1000413FA60007302602D03003192502031CED
:100C2000282E240886000130870001088F315827BC
:100C30008631200024088600013087000108A500C5
:100C40002508F10068088A0067080A008631080054
:100C50002408093E8600013087000108803AA5007B
:100C600024080E3E86000130870024080E3E8400D2
:100C70000130850000360102803AA5020318080001
:100C80002408023E8600013087008101810A240881
:100C90000A3E8600013087000030C03FC13F240873
:100CA0000C3E860001308700FF30C03FFB30C13F63
:100CB00024088600013087000108A5002508F100FE
:100CC00068088A0067080A008631080020002408A6
:100CD0000A3E860001308700403FA500413FA60044
:100CE0000030260209300319250203187C2E24083F
:100CF0008E31C8268631802E24088331EA2386313E
:100D0000200024080A3E8600013087000130810758
:100D100041310318810A24080A3E86000130870009
:100D2000403FA500413FA6000030260210300319C5
:100D30002502031C08002408053E860001308700B8
:100D4000403FA500413FA600423FA700433FA80007
:100D50000430A836A70CA60CA50C890BA92E2408D4
:100D6000033E8600013087002508C03F2608C13FAA
:100D70002408023E8600013087008101810A240890
:100D80000A3E8600013087000030C03FC13F0800A6
:100D90002000BE000530BC003C08BD003E08031D1D
:100DA000DE2E3B08031DDE2EFF3008000130200040
:100DB000BD023D08031DDE2EFC3008003B08BC00D0
:100DC0003C08FB003E0880314B208631003A031D71
:100DD000D62E20003E080319F12E3E088F318E27B3
:100DE000863120003B080319F92E3B088F318E27EE
:100DF000863120003E088C312A248631003A0319BE
:100E0000092F20003E088B31FC238631003A031D58
:100E1000192F20003B088C312A248631003A03190F
:100E2000222F20003B088B31FC238631003A031926
:100E3000222F20003B08BC003C08AE003E08853154
:100E40008A250800003008002000AB002B08A9000C
:100E50000330A935FF3E031D292F2935203EAA0066
:100E60002A08AC002C0A86000130870001088C316A
:100E700052248731003A0319080020002C0A86000A
:100E80000130870001088C31F6248731003A0319BC
:100E9000080020002C088C314424873120002C08C5
:100EA00085310325873120002C08023E8600013061
:100EB000870003300102031C652F2C0886000130D7
:100EC000870001088F315827873120002C08A9009E
:100ED0002908A4002C08023E860001308700013555
:100EE000613E86008701413F8A00403F0A0087310A
:100EF0000800FB007B08023E8600013087000108E5
:100F00000319B52F7B08033E860001308700403F60
:100F1000F900413FFA00FA36F90CFA36F90C7B0871
:100F2000033E8600013087007908810241317A084A
:100F3000813B7F317B0A86000130870001088D31BB
:100F400063257508F9007608FA00FA36F90CFA36C6
:100F5000F90C7B08033E8600013087007908810781
:100F600041317A08813D7F3108007B0A86000130DB
:100F7000870001088D3163257B08033E8600013020
:100F800087007508C03F7608C13F0800003401346F
:100F900000340034003400340034003400340034B1
:100FA000003400340034003464340134013400343B
:100FB0000034003400340034003400340034003491
:100FC0000034003400340034643401340234033417
:100FD0000034003400340034003400340034003471
:100FE00000340034003400346434013403340234F7
:100FF0000034003400340034003400340034003451
:0C10000000340034003400346434013447
:1016FA0008000800080008008D314C250800200069
:10170A001C15080020001C1108008D313625080020
:10171A0023001D121D16080016302100970008002C
:10172A00F100710820009B00080072082000E80000
:10173A007108E700080072082000EA007108E90051
:10174A00080072082100CD007108CC000800720858
:10175A002100D1007108D000080072082100CF00D2
:10176A007108CE00080072082000EF007108EE0030
:10177A000800F03021009900220096010800640058
:10178A0080010131890BC52B0034FE0012001E00B6
:10179A00FE0BCB2B0034F1007108083E860087014E
:1017AA0081140800F1007108083E86008701811043
:1017BA000800F1007108083E86008701011408003C
:1017CA00F1007108083E8600870101100800F10047
:1017DA007108083E86008701010E01390800FF30B2
:1017EA0020009B009A01911004309C000800F1002F
:1017FA007108083E86008701010C890C013908002E
:10180A00F1007108083E8600870101157108083E3B
:10181A0086008701011208008C3160248C318D31D9
:10182A00C6258C318C31E3248C318C317E2408001E
:10183A00F1007108083E8600870101167108033E0F
:10184A00860087018101810A0800F1007108031DE1
:10185A00302C003008007108083E86008701010C10
:10186A000139080066340634B434023400340634CC
:10187A007F340B347F340B3480340B34AE34200085
:10188A00A0008B1F4E2C8B132008873179278B17CA
:10189A0008002008873179270800F6000930F5008A
:1018AA007508F10076088C319E24A83E86008701CF
:1018BA00010801390800FA017A088D310B258C31AB
:1018CA000130F9007908FA0704307A02031808008F
:1018DA00612C2000AE012E08873124278C3101307B
:1018EA002000AD002D08AE0704302E0203180800B0
:1018FA00702CFC3020009C052E0091012F009101D4
:10190A0090302E0092004030940040302F00940016
:10191A000800F200720803199C2C7208083E86001F
:10192A008701010CF100F10C710C0139080000303B
:10193A000800F400F301741CA62C7108F200720866
:10194A00F3070310F10D0310F40C7408031DA02C07
:10195A0073080800F60004307602031808000930FC
:10196A00F5007508F10076088C319E24A83E8600A1
:10197A00870101110800F6000430760203180800F6
:10198A000930F5007508F10076088C319E24A83ECE
:10199A0086008701811508008D31E2258C318B3153
:1019AA00BE238C318B3191238C318B31F4238C31D2
:1019BA008E31F6268C318C3111240800A030F200C9
:1019CA007208F300BB30F20073087202031C0800AD
:1019DA0073088B31E5238C310930F2007208F30762
:1019EA00E72CF600043076020318092D0930F500B9
:1019FA007508F10076088C319E24A83E860087017E
:101A0A00010C890C0139080000300800F800780838
:101A1A008C31C0248D3178088C31AF248D31093056
:101A2A00F7007708F10078088C319E248D31A03EAA
:101A3A008B31E52308002000C7014708833157236B
:101A4A008D31003A03192B2D003008000130200097
:101A5A00C6004608C70702304702031C222D013080
:101A6A000800F5017508F4000330F435FF3E031D44
:101A7A003A2D7435203E8E3149268D310130F400DD
:101A8A007408F5070430750203180800372D23007F
:101A9A001908F0007C08C43E86008701700881009E
:101AAA000130F0007008FC0708307C020318FC01C2
:101ABA000130F00070082000DF070800F800043049
:101ACA0078020318772D0930F7007708F1007808B3
:101ADA008C319E24A63E86008701403FF500413F97
:101AEA00F6000800F501F60108007208803AF300D2
:101AFA0080307302031D832D013071020318080020
:101B0A007109F3007209F400F30A0319F40A73085D
:101B1A00F1007408F20008008C31D1248D318B1742
:101B2A000B17C530F1000F30F2008B31A0238D3135
:101B3A007E30F1000B30F2008B319A238D31220076
:101B4A000C118D31AA258D31A62D2000DB01DB0A6F
:101B5A008D3120258D31003A031DB52D0030080046
:101B6A008C316E248D31803102208D312000C800E5
:101B7A004808DB008C31E3248D318B318A23013014
:101B8A000800C630F1008730F2004030F300003020
:101B9A00F40020308E3170268D312000A0012008FB
:101BAA008F3158278D310130FB007B082000A007B8
:101BBA000430200203180800D42D373022008C008C
:101BCA00C0308D00BF308E00383021008C0060306C
:101BDA008D0060308E00E83023008E0040308D008A
:101BEA0037308C0024008D018C01210095172200CA
:101BFA009D01080000346934303410342034003434
:101C0A000034003400340134313430341034203498
:101C1A00003400340034003402345D34303410347B
:101C2A002034003400340034003403343534303482
:101C3A00103420340034003400340034F7007708BC
:101C4A008E319B268E31F5007508F6008B1F3C2ECF
:101C5A008B137635513E860087017708063E84004D
:101C6A008501403F803F413F813F8B170800763511
:101C7A00513E860087017708063E84008501403F71
:101C8A00803F413F813F0800F3007308023E86000F
:101C9A000130870002300106031D080073080A3E5E
:101CAA008600013087000130810741310318810A1B
:101CBA0073080A3E86000130870016000104031DDE
:101CCA00080073080A3E860001308700FF30C03FD3
:101CDA00FF30C13F0800F9007208F8007108F700E8
:101CEA007908F5007508FA000130F3020030F43B78
:101CFA00730A0319740A031908007708840078081C
:101D0A0085000008F5007508F6000130F707003075
:101D1A00F83D7608F5007A088600013087007508D4
:101D2A0081000130F5007508FA07792EF300F401F5
:101D3A007408F100F201F135F20D053071078400E3
:101D4A009030723D850000087306031DAE2E0030E8
:101D5A0008007408F100F201F135F20D063071073E
:101D6A0084009030723D850000087306031DBF2E63
:101D7A00013008000130F1007108F40702307402E2
:101D8A000318AC2E9D2EF900790A860001308700CF
:101D9A0001088D3163258E3175082000A000760870
:101DAA00A100A201A3017908053E8600013087003F
:101DBA002008C03F2108C13F2208C23F2308C33F71
:101DCA007908053E860001308700043081354131AB
:101DDA00810D4131810D4131810D7D31890BEB2E10
:101DEA000800210091122630F1000F30F2008B31E9
:101DFA00B8238E31083023009F0090309D00243094
:101E0A009E0040309B0003309C007D30F1000B3077
:101E1A00F2008B31AC238E318D30F1000B30F200A1
:101E2A008B31B2238E318130F1000B30F2008B31CD
:101E3A00A6232000DE01FC01E001DF01210091164A
:101E4A0008007C08493E86008701810123001D1D88
:101E5A00392F7C08493E86008701811421005108E8
:101E6A008A0050080A008F3123009D1C472F7C08E6
:101E7A00493E86008701011521004F088A004E0855
:101E8A000A008F317C08493E860087010108031940
:101E9A00552F21004D088A004C080A008F3108008E
:101EAA008D314C250800F9007908F7000330F73521
:101EBA00FF3E031D5C2F7735203EF8007808FA00B4
:101ECA007A08023E86000130870081017A08053EC1
:101EDA008600013087000030C03F0030C13FC23F5A
:101EEA00C33F7A080A3E8600013087000030C03FAF
:101EFA00C13F7A080C3E8600013087000030C03F9F
:101F0A00C13F7A0A86000130870001088C31AF246C
:101F1A000800F90079088E319B268F31F500750883
:101F2A00F80079088C318E248F31003A0319B42FC6
:101F3A007908063E860087017835513E840085017E
:101F4A00403F0002F1000131413F003BF2008D3178
:101F5A007A258F317208F7007108F600B62FF6015C
:101F6A00F70100307702653003197602031CC12F8E
:101F7A0079088B31D023080079088B31D7230800E0
:101F8A007108031DD32F031022008E1D0314031C96
:101F9A00D12F22008E15D32F22008E117103031D1B
:101FAA00E12F031022008C1C0314031CDF2F2200D4
:101FBA008C14E12F22008C1002307106031DF02FC1
:101FCA00031022008E1F0314031CEE2F22008E170B
:101FDA00F02F22008E1303307106031D0800031030
:101FEA0022000C1C0314031CFD2F22000C140800F1
:101FFA0022000C10080000340D341C341E3417342F
:08200A00A934A034BB34B23448
:020000040001F9
:04000E00E4FDFFFF0F
:00000001FF
