:020000040000FA
:1000000080312628003008007E1480318B1A0B1DA9
:100010000D289C310624803124280B1F2428210020
:10002000911E1C282000911E1C28220064088A00B2
:1000300063080A00803124282100111C2428200094
:10004000111C24289F31D0277E10090080312828D8
:100050001A3084009A3085006630860001308700AF
:1000600007309A3114228031D43084009D308500CD
:10007000A03086000130870021309A31142280316F
:10008000EE01EF01203084000130850020309A31EC
:100090000E228031C13084000130850010309A3149
:1000A0000E228031203084000230850050309A3199
:1000B0000E227E10200080315D289C3194248031F6
:1000C0008B170B178B120B112200B801B701AE0171
:1000D000AF019931E32180312100A101A201A20ADF
:1000E00001309231132280312100A101A201A20A24
:1000F00002309231132280312100A101A201A20A13
:10010000033092311322803122008C160C160D1709
:1001100035302100A1001530A2009A313A228031F9
:10012000BD302100A1001E30A2009A313122803161
:100130002200B901BA012300D80122003803031DAF
:10014000D5282E1EA8282100A101A10AA201AC28B1
:100150002100A101A201A20A0130923113228031B3
:100160002200AE1EB8282100A101A10AA201BC28CC
:100170002100A101A201A20A023092311322803192
:1001800022002E1FC8282100A101A10AA201CC280B
:100190002100A101A201A20A033092311322803171
:1001A0002200B8018731F42780319931E021803174
:1001B000003A0319242A9E31922680312200DB0066
:1001C0005B082300DA005A0890315C208031003A45
:1001D0000319242A22003908031DFA2823005A088B
:1001E0002200DB005B082300D9005A089E316926F3
:1001F0008031242A3A03031D142A543023005A065E
:10020000031D88292100A101A10AA2010130923118
:10021000132280312100A101A10AA20102309231F2
:10022000132280312100A101A10AA20103309231E1
:100230001322803115302200DC004B30DB00BE3051
:10024000890B2029DB0B2029DC0B2029000015302D
:100250002200DC004B30DB00BE30890B2D29DB0B8C
:100260002D29DC0B2D29000015302200DC004B303D
:10027000DB00BE30890B3A29DB0B3A29DC0B3A292B
:10028000000015302200DC004B30DB00BE30890B53
:100290004729DB0B4729DC0B4729000015302200DA
:1002A000DC004B30DB00BE30890B5429DB0B5429BA
:1002B000DC0B5429000015302200DC004B30DB0041
:1002C000BE30890B6129DB0B6129DC0B6129000041
:1002D00015302200DC004B30DB00BE30890B6E296C
:1002E000DB0B6E29DC0B6E29000015302200DC00D0
:1002F0004B30DB00BE30890B7B29DB0B7B29DC0B11
:100300007B2900002200BA010130DB005B08B80045
:10031000463023005A06031D242A2100A101A20110
:10032000A20A01309231132280312100A101A201E1
:10033000A20A02309231132280312100A101A201D0
:10034000A20A033092311322803115302200DC00E2
:100350004B30DB00BE30890BAB29DB0BAB29DC0B50
:10036000AB29000015302200DC004B30DB00BE3032
:10037000890BB829DB0BB829DC0BB8290000153034
:100380002200DC004B30DB00BE30890BC529DB0BC3
:10039000C529DC0BC529000015302200DC004B30DC
:1003A000DB00BE30890BD229DB0BD229DC0BD22932
:1003B000000015302200DC004B30DB00BE30890B22
:1003C000DF29DB0BDF29DC0BDF29000015302200E1
:1003D000DC004B30DB00BE30890BEC29DB0BEC2959
:1003E000DC0BEC29000015302200DC004B30DB0078
:1003F000BE30890BF929DB0BF929DC0BF929000048
:1004000015302200DC004B30DB00BE30890B062AA1
:10041000DB0B062ADC0B062A00002200BA010130A1
:10042000DB005B08B800242A543023005A06031D61
:100430001D2A59088B3116238031463023005A0675
:10044000031D242A2200B9019D3161258031003A23
:1004500003199D2822003A08031D7F2A01309D318F
:1004600045258031013A031D7B2A00309D31452509
:100470008031003A031D7B2A02309D3145258031B1
:10048000003A031D7B2A01302200AC070030AD3D4D
:10049000DC302C06053003192D06031D9D28AC0108
:1004A000AD013E30C5009830C6009B31AF2380318E
:1004B00001302200DB005B08BA000130DB005B0882
:1004C000B9002100A101A201A20A02309231132237
:1004D00080312100A101A201A20A01309231132230
:1004E00080312100A101A201A20A0330923113221E
:1004F00080312300C62A2200AC01AD019D280130C5
:10050000DB005B082300D8075708031DA82A210039
:10051000A101A201A20A01309231132280312100EF
:10052000A101A201A20A02309231132280312100DE
:10053000A101A201A20A0330923113228031C830F6
:1005400023005806031D9D28D801D701D70A9D28EE
:100550002100A101A10AA2010130923113228031B0
:100560002100A101A10AA20102309231132280319F
:100570002100A101A10AA20103309231132280318E
:10058000C83023005806031D9D28D801D7019D2897
:100590002100CC00C701C801C901CA01C601C301BD
:1005A000C4014C0803190E2B3E0803190E2B4C08EE
:1005B000083E8600013087008119EE2A3E08083E79
:1005C000860001308700811DEE2A4C08083E860017
:1005D000013087008115C301C30A232B3E08083E62
:1005E0008600013087008119052B4C08083E8600E3
:1005F00001308700811D052B3E08083E8600013032
:1006000087008115C401C40A232B4C08083E8600CC
:10061000013087008119232B3E081B2B4C08031D3A
:10062000142B3E08031D0C2B4C080319232B3E08EA
:10063000031D232B4C08083E8600013087008119DA
:10064000232B003008003E089A31F5228231003A0F
:1006500003192D2B2100C601C60A2E001208210005
:10066000BF003F08C0002E0013082100BF003F0854
:10067000C1002F0013082100BF003F08C2009B31BA
:100680002423823121004C080319592B4C08043EC5
:100690008600013087000108FF3EBF003F08CB0005
:1006A000C50140302E0098002F00980122001D1037
:1006B0006C2B3E08043E8600013087000108FF3E97
:1006C000BF003F08CB00C501C50A2E00980140308D
:1006D0002F00980022001D142100A2014C0888312F
:1006E000A52082312100A201A20A3E088831A5205E
:1006F000823120006F106F11EF1122006C089A31C7
:10070000022282319931E62182312200B401B50101
:1007100021004508031D942B2000111B902BEF1086
:10072000111F902B11139B2B2000121B982BEF10E5
:10073000121F982B121321302100BF003F082E00FA
:10074000980621302100BF003F082F009806C030D6
:100750002100BF003F082E009406C0302100BF00DA
:100760003F082F00940621004B18032C2E001A0876
:100770002200A0072E001B082200A13D2F001A080E
:100780002200A2072F001B082200A33D21004608DB
:10079000031DE52B2E001A0821004902B4002E008B
:1007A0001B0821004A3BB5009C31F724823121000F
:1007B00034082200B407210035082200B53D2E0080
:1007C0001B082100CA002E00FF2B2F001A08210051
:1007D0004902B4002F001B0821004A3BB5009C31A0
:1007E000F7248231210034082200B40721003508A3
:1007F0002200B53D2F001B082100CA002F001A0857
:100800002100C9003B2C2E001A082200A0022E0055
:100810001B082200A13B2F001A082200A2022F0071
:100820001B082200A33B21004608031D1E2C2E009E
:100830001A0821004702B4002E00242C2F001A08A9
:1008400021004702B4002F001B082100483BB500DF
:100850009C31F7248231210034082200B4072100A2
:1008600035082200B53D2E001B082100C8002E00CF
:100870001A082100C7004B08031D402C20006F14EC
:1008800001302100CB022000EF1C482C6F156F14A3
:10089000EF146F1C882B9931E92182312100400827
:1008A0002E009200210041082E00930021004208F2
:1008B0002F00930020006F1D5F2CFB300800EF1D00
:1008C000632CFA3008002100430803196D2C4C08F2
:1008D000083E860001308700811144080319762CF8
:1008E0003E08083E86000130870081114C089B318C
:1008F00077238231003A03198A2C21004C089A315F
:10090000B1228231003A031D8A2C21004C08973114
:100910006727823121003E089B3177238231003ADC
:1009200003199F2C21003E089A31B1228231003AEE
:10093000031D9F2C21003E089731672782312E002E
:1009400096012F0096012E0097012F0097012E008F
:1009500011102F001110212B2100C9003C08D000DC
:100960003D08D1003E08D2003F08D3004008D40023
:100970004108D5004208D6004308D700D030860091
:1009800000308700473FC400C41FC82C0130C92C69
:1009900000302100C500C6014508CE004608CF0042
:1009A0004E084F040319F22CD009D109D209D309FA
:1009B000D409D509D609D709D00A031DF22CD10ACA
:1009C000031DF22CD20A031DF22CD30A031DF22CB4
:1009D000D40A031DF22CD50A031DF22CD60A031DDE
:1009E000F22CD70A2200A91BF92CFD30AA05FF30F2
:1009F000AB052908803A2100C40080304402031D61
:100A0000042D01302200280203180C2D0130210092
:100A1000CA000030CB00142D220029082100CB0091
:100A2000220028082100CA00220027082100CD004A
:100A3000220026082100CC004E084F04031D232D60
:100A400022002A1D282DFF302100CC07FF30CD3D8C
:100A50001F302100D8000030D9002400EF01BE2D46
:100A60002100500851045204530454045504560400
:100A70005704031D552D4B08803AC40080304402B2
:100A8000031D442D01304A020318552D21004D0845
:100A9000803AC40080304402031D502D01304C02C6
:100AA000031CCA2D2200AA1CCA2DFF302100D80722
:100AB000FF30D93D0A30A100A201A301A401A50184
:100AC000A601A701A8015008A9005108AA005208D0
:100AD000AB005308AC005408AD005508AE005608F2
:100AE000AF005708B0008A31372284312100220834
:100AF000B5002108B4009C31F7248431210034086A
:100B0000303EC4005808503E86000230870044083A
:100B10008100FF30CA07FF30CB3DFF30CC07FF30EC
:100B2000CD3D0A30A100A201A301A401A501A601A7
:100B3000A701A8015008A9005108AA005208AB005B
:100B40005308AC005408AD005508AE005608AF007D
:100B50005708B0008C31E924843121002108D000ED
:100B60002208D1002308D2002408D3002508D4008D
:100B70002608D5002708D6002808D70021005908E4
:100B8000803AC40080304402031DC82D0130580251
:100B90000318302D21004E084F04031DD22D2200D2
:100BA0002A1DEA2DFF302100D807FF30D93D4E081D
:100BB0004F04031DDD2D2B30DE2D2D30C7000030FE
:100BC000C8004708C4005808503E8600023087001D
:100BD0004408810021005808503EC4004408B30076
:100BE0004D08B5004C08B40049089231B0222100EC
:100BF0003408BD003308BC0008002000BB003008EA
:100C0000C4003108C5003208C6003308C7003408E4
:100C1000C8003508C9003608CA003708CB00443080
:100C2000860000308700473FB800B81F192E0130FA
:100C30001A2E00302000B900BA013908C2003A0863
:100C4000C300420843040319432EC409C509C60959
:100C5000C709C809C909CA09CB09C40A031D432E1B
:100C6000C50A031D432EC60A031D432EC70A031DD2
:100C7000432EC80A031D432EC90A031D432ECA0A68
:100C8000031D432ECB0A2200A91B4A2EFD30AA05C4
:100C9000FF30AB052908803A2000B80080303802C8
:100CA000031D552E01302200280203185D2E01304D
:100CB0002000BE000030BF00652E22002908200061
:100CC000BF00220028082000BE00220027082000C4
:100CD000C100220026082000C00042084304031D72
:100CE000742E22002A1D792EFF302000C007FF300D
:100CF000C13D1F302000CC000030CD002400EF01AA
:100D00000F2F2000440845044604470448044904C2
:100D10004A044B04031DA62E3F08803AB8008030D9
:100D20003802031D952E01303E020318A62E200026
:100D30004108803AB80080303802031DA12E0130EE
:100D40004002031C1B2F2200AA1C1B2FFF30200077
:100D5000CC07FF30CD3D0A30A000A101A201A301C4
:100D6000A401A501A601A7014408A8004508A900FF
:100D70004608AA004708AB004808AC004908AD0087
:100D80004A08AE004B08AF0089315B218531200055
:100D90002108F4002008F3009B31EF23853173080C
:100DA000303E2000B8004C08503E860002308700DC
:100DB00038088100FF30BE07FF30BF3DFF30C0075D
:100DC000FF30C13D0A30A000A101A201A301A4018E
:100DD000A501A601A7014408A8004508A9004608E6
:100DE000AA004708AB004808AC004908AD004A0813
:100DF000AE004B08AF008B31F62385312000200870
:100E0000C4002108C5002208C6002308C700240822
:100E1000C8002508C9002608CA002708CB00200002
:100E20004D08803AB80080303802031D192F013078
:100E30004C020318812E200042084304031D232F77
:100E400022002A1D3B2FFF302000CC07FF30CD3D74
:100E500042084304031D2E2F2B302F2F2D30BC00B2
:100E60000030BD003C08B8004C08503E86000230FF
:100E700087003808810020004C08503EB800380830
:100E8000A4004108A6004008A5003B08923160225A
:100E900020002508B1002408B00008002100D0007F
:100EA000220035082100CF00220034082100CE00A6
:100EB000CF36CE0CCF36CE0C2200340821004E07A0
:100EC000D1002200350821004F3DD20022006C08DD
:100ED0002100CE004E08D300220021082100D600B8
:100EE000220020082100D500220023082100D8007C
:100EF000220022082100D700D90159084D3E840064
:100F000098300318013E85000008CE004E082200EC
:100F1000EC07AE306C020318932FAE302100CE00E8
:100F20004E082200EC0705302100CE004E08D40008
:100F30004D08CE004E08BE0050088231C8228731CD
:100F4000003A0319AB2F01302100D4025408031DCD
:100F5000982FFC3008002200350821005202031DA2
:100F6000B52F22003408210051020318D52F22008A
:100F700035082100D200220034082100D1002200CF
:100F80006C082100CE004E08D30022002108210069
:100F9000D600220020082100D500220023082100CD
:100FA000D800220022082100D7000130CE004E08D0
:100FB000D90705305902031C7D2F5308CE004E0877
:100FC0002200EC00210056082200A1002100550853
:100FD0002200A000210058082200A3002100570889
:100FE0002200A200003008009B31442387319D314C
:100FF0009A2587319B31C42387319B3124230800F4
:101000000800080022004F08093E860002308700D1
:101010000108803AD0004F080E3E8600023087005B
:101020000103FF3A803AD002031841284F080A3ED4
:101030008600023087000130810741310318810AA0
:101040004F080A3E860002308700403FD000413FF3
:10105000D10000305102413003195002031C822894
:101060004F080A3E8600023087000030C03FC13F73
:101070004F088600023087000108913164218831D1
:1010800082284F08093E8600023087000108D00000
:10109000D101D01BD1034F080E3E860002308700DD
:1010A0005108803A803C031D57285008010203185C
:1010B000792802302200D0004F08023E860002301C
:1010C0008700500881004F080A3E860002308700E2
:1010D0000030C03FC13F4F08860002308700010842
:1010E000D0005008CC0069088A0068080A008831DE
:1010F000822822004F080A3E860002308700003016
:10110000C03FC13F22004F080C3E860002308700DE
:101110000130810741310318810A4F080C3E8600D7
:10112000023087001600403AD0001600D004031D9C
:1011300008004F080C3E8600023087000030C03F98
:10114000C13F4F089631402608002100A900290818
:10115000031908002208031DB028A601A701B4281E
:101160008030A6000030A7002608A3002308A800AE
:10117000290A8600013087000108A3002808113ED3
:10118000A400A5010730A53D240886002508870096
:10119000230881002908053E8600013087000108E8
:1011A000A3002808193EA400A5010730A53D240886
:1011B000860025088700230881002808133EA30025
:1011C000A4010730A43D230886002408870050307E
:1011D0008100FE30A3002808183E860087010730F2
:1011E000873D2308810529089A31B1228831003AC8
:1011F00003190F2921002908023E860001308700CB
:101200000108A3002808163EA400A5010730A53D4B
:10121000240886002508870023088100242921004E
:101220002808163EA300A4010730A43D2308860029
:10123000240887002030810029089A31A7228831AC
:10124000003A0319372921002908033E860001309E
:1012500087000108A3002808173EA400A501073055
:10126000A53D24088600250887002308432921007E
:101270002808173EA300A4010730A43D23088600D8
:1012800024088700203081002908043E86000130B0
:1012900087000108A300A4010930A335A40D890B20
:1012A0004D292235203E8600013087002308C03FAB
:1012B0002408C13F0800F201283086000030870072
:1012C000473FF000F01F85292000A809A909AA09B5
:1012D000AB09AC09AD09AE09AF09A80A031D832902
:1012E000A90A031D8329AA0A031D8329AB0A031D2A
:1012F0008329AC0A031D8329AD0A031D8329AE0A85
:10130000031D8329AF0AF201F20A20308600003063
:101310008700473FF000F01FAC292000A009A10979
:10132000A209A309A409A509A609A709A00A031DE2
:10133000AC29A10A031DAC29A20A031DAC29A30AEA
:10134000031DAC29A40A031DAC29A50A031DAC2961
:10135000A60A031DAC29A70A2000200821042204A4
:10136000230424042504260427040319042AF10174
:10137000F10AA71BC829A035A10DA20DA30DA40D2C
:10138000A50DA60DA70D0130F0007008F107B929D1
:1013900027082F02031DE62926082E02031DE62931
:1013A00025082D02031DE62924082C02031DE62929
:1013B00023082B02031DE62922082A02031DE62921
:1013C00021082902031DE62920082802031CF82908
:1013D0002008A8022108A93B2208AA3B2308AB3B0E
:1013E0002408AC3B2508AD3B2608AE3B2708AF3BA5
:1013F000A736A60CA50CA40CA30CA20CA10CA00C47
:101400000130F102031DC82972080319252AA80911
:10141000A909AA09AB09AC09AD09AE09AF09A80A27
:10142000031D252AA90A031D252AAA0A031D252A08
:10143000AB0A031D252AAC0A031D252AAD0A031D8C
:10144000252AAE0A031D252AAF0A20002808A0007D
:101450002908A1002A08A2002B08A3002C08A40038
:101460002D08A5002E08A6002F08A70008002100BF
:10147000B301A930860000308700473FB100B11F9B
:10148000632A2100A909AA09AB09AC09AD09AE0973
:10149000AF09B009A90A031D602AAA0A031D602A20
:1014A000AB0A031D602AAC0A031D602AAD0A031DA6
:1014B000602AAE0A031D602AAF0A031D602AB00A23
:1014C0002100B301B30AA130860000308700473FF6
:1014D0002100B100B11F8B2A2100A109A209A30993
:1014E000A409A509A609A709A809A10A031D8B2A11
:1014F000A20A031D8B2AA30A031D8B2AA40A031D1B
:101500008B2AA50A031D8B2AA60A031D8B2AA70A6C
:10151000031D8B2AA80A2100210822042304240485
:1015200025042604270428040319E32AB201B20A79
:10153000A81BA72AA135A20DA30DA40DA50DA60DCC
:10154000A70DA80D0130B1003108B207982A28086C
:101550003002031DC52A27082F02031DC52A2608AD
:101560002E02031DC52A25082D02031DC52A2408A5
:101570002C02031DC52A23082B02031DC52A22089D
:101580002A02031DC52A21082902031CD72A210883
:10159000A9022208AA3B2308AB3B2408AC3B250840
:1015A000AD3B2608AE3B2708AF3B2808B03BA8362A
:1015B000A70CA60CA50CA40CA30CA20CA10C01302A
:1015C000B202031DA72A33080319042BA909AA098B
:1015D000AB09AC09AD09AE09AF09B009A90A031DF1
:1015E000042BAA0A031D042BAB0A031D042BAC0A0F
:1015F000031D042BAD0A031D042BAE0A031D042B8F
:10160000AF0A031D042BB00A21002908A1002A08F3
:10161000A2002B08A3002C08A4002D08A5002E086A
:10162000A6002F08A7003008A80008002200CE005E
:10163000D02B2100A101A201A20A01309231132274
:101640008B3122002E122100A101A201A20A023038
:10165000923113228B312200AE122100A101A2018E
:10166000A20A0330923113228B3122002E13003054
:10167000AE1A01302100A100003022002E1B0130E3
:101680002100A20022002E0E01399D317D2522006D
:10169000B90108002100A101A201A20A0130923182
:1016A00013228B3122002E12802B2100A101A201D6
:1016B000A20A0130923113228B3122002E12952B77
:1016C0002100A101A201A20A0130923113228B3123
:1016D00022002E12AA2B2100A101A10AA201013091
:1016E000923113228B3122002E16232B2100A101CF
:1016F000A10AA2010130923113228B3122002E1651
:101700002100A101A201A20A0230923113228B31E1
:101710002200AE12B42B2100A101A10AA2010130C6
:10172000923113228B3122002E162100A101A10A31
:10173000A2010230923113228B312200AE162D2BE2
:101740002100A101A10AA2010130923113228B31A3
:1017500022002E162100A101A10AA201023092311D
:1017600013228B312200AE162100A101A10AA20191
:101770000330923113228B3122002E17372B473042
:10178000C5009830C6009431CA248B312200CC00A9
:10179000CD014C08C7004D08C8009B31AF2308009D
:1017A0004E08CC00CD014D08003A0319D82B472B29
:1017B0004C08303A0319192B013A03194A2B033A02
:1017C0000319552B013A0319602B073A03196B2BA8
:1017D000013A0319762B033A03198B2B013A0319AB
:1017E000A02B623A0319BF2B472B0800F2012030CF
:1017F000860000308700473FF000F01F202C2000BB
:10180000A009A109A209A309A409A509A609A70974
:10181000A00A031D1E2CA10A031D1E2CA20A031DD3
:101820001E2CA30A031D1E2CA40A031D1E2CA50A90
:10183000031D1E2CA60A031D1E2CA70AF201F20A84
:101840002830860000308700473FF000F01F4B2C07
:101850002000A809A909AA09AB09AC09AD09AE097C
:10186000AF09A80A031D472CA90A031D472CAA0A81
:10187000031D472CAB0A031D472CAC0A031D472C44
:10188000AD0A031D472CAE0A031D472CAF0A0130D9
:10189000F0007008F20673308600003087000830D0
:1018A000F00000301E00F00B522C20002008210414
:1018B0002204230424042504260427040319B62C37
:1018C000F101F10AA71B712CA035A10DA20DA30DEA
:1018D000A40DA50DA60DA70D0130F0007008F107AD
:1018E000622CF335F40DF50DF60DF70DF80DF90D2D
:1018F000FA0D27082F02031D972C26082E02031D20
:10190000972C25082D02031D972C24082C02031D5B
:10191000972C23082B02031D972C22082A02031D53
:10192000972C21082902031D972C20082802031C4C
:10193000AA2C2008A8022108A93B2208AA3B2308B8
:10194000AB3B2408AC3B2508AD3B2608AE3B270843
:10195000AF3B7314A736A60CA50CA40CA30CA20CC9
:10196000A10CA00C0130F102031D712C72080319A7
:10197000D72CF309F409F509F609F709F809F9096B
:10198000FA09F30A031DD72CF40A031DD72CF50A14
:10199000031DD72CF60A031DD72CF70A031DD72CDD
:1019A000F80A031DD72CF90A031DD72CFA0A73086D
:1019B0002000A0007408A1007508A2007608A3000A
:1019C0007708A4007808A5007908A6007A08A7007F
:1019D00008002100B301A130860000308700473F96
:1019E000B100B11F152D2100A109A209A309A40965
:1019F000A509A609A709A809A10A031D122DA20A73
:101A0000031D122DA30A031D122DA40A031D122D5E
:101A1000A50A031D122DA60A031D122DA70A031DD8
:101A2000122DA80A2100B301B30AA93086000030A4
:101A30008700473F2100B100B11F422D2100A909B5
:101A4000AA09AB09AC09AD09AE09AF09B009A90AE9
:101A5000031D3D2DAA0A031D3D2DAB0A031D3D2D7F
:101A6000AC0A031D3D2DAD0A031D3D2DAE0A031D1D
:101A70003D2DAF0A031D3D2DB00A01302100B100FC
:101A80003108B306B43086000030870008302100EA
:101A9000B10000301E00B10B4A2D2108220423049E
:101AA000240425042604270428040319AD2DB201BB
:101AB000B20AA81B682DA135A20DA30DA40DA50D7A
:101AC000A60DA70DA80D0130B1003108B207592DA0
:101AD000B435B50DB60DB70DB80DB90DBA0DBB0DBA
:101AE00028083002031D8E2D27082F02031D8E2D7E
:101AF00026082E02031D8E2D25082D02031D8E2D76
:101B000024082C02031D8E2D23082B02031D8E2D6D
:101B100022082A02031D8E2D21082902031CA12D53
:101B20002108A9022208AA3B2308AB3B2408AC3BAE
:101B30002508AD3B2608AE3B2708AF3B2808B03B45
:101B40003414A836A70CA60CA50CA40CA30CA20C4C
:101B5000A10C0130B202031D682D33080319CE2DEC
:101B6000B409B509B609B709B809B909BA09BB0971
:101B7000B40A031DCE2DB50A031DCE2DB60A031DD2
:101B8000CE2DB70A031DCE2DB80A031DCE2DB90ADE
:101B9000031DCE2DBA0A031DCE2DBB0A2100340829
:101BA000A1003508A2003608A3003708A4003808B1
:101BB000A5003908A6003A08A7003B08A8000800BD
:101BC0002000E0004E0886004F088700403FD2000A
:101BD000413FD30052088400530885001200253A83
:101BE000031DCB2E4E0886004F0887000130810769
:101BF00041310318810A2200A601A701AA01AB0105
:101C0000FF30A800FF30A90020004E0886004F08D2
:101C10008700403FD200413FD30052088400530860
:101C200085001200633A031D392E4E0886004F08C6
:101C300087000130810741310318810A500886006E
:101C400051088700010884000130850002308107B7
:101C50000008D2005208DF005F08D2005208AD0031
:101C600060089F31A02720002E08CF002D08CE004D
:101C700008004E0886004F088700403FD200413FD1
:101C8000D30052088400530885001200643A0319F7
:101C9000592E4E0886004F088700403FD200413F32
:101CA000D30052088400530885001200693A031DCE
:101CB000962E4E0886004F0887000130810741317B
:101CC0000318810A50088600510887000108840023
:101CD0000130850002308107003FD200013FD30070
:101CE0005208D7005308D800890D893B8909D900CB
:101CF000DA00DB00DC00DD00DE005708B000580829
:101D0000B1005908B2005A08B3005B08B4005C087F
:101D1000B5005D08B6005E08B70060088531FD2596
:101D200020003108CF003008CE0008004E088600A1
:101D30004F088700403FD200413FD3005208840043
:101D4000530885001200253A031DBF2E4E08860059
:101D50004F0887000130810741310318810A25307F
:101D6000F2000030F3006008D2005208F400903115
:101D7000C32001302000CE000030CF0008004E0804
:101D800086004F0887000130810741310318810A1E
:101D9000CE01CF0108004E0886004F088700403F63
:101DA000D200413FD3005208840053088500000848
:101DB000D400D5015408F2005508F3006008D6009D
:101DC0005608F4009031C3208D3120004E08860063
:101DD0004F0887000130810741310318810AB92E6D
:101DE0002100EA005A08860001308700403FDC00ED
:101DF000413FDD005C0884005D0885001200253A43
:101E0000031DDB2F5A08860001308700013081074F
:101E100041310318810A2200A601A701AA01AB01E2
:101E2000FF30A800FF30A90021005A0886000130C9
:101E30008700403FDC00413FDD005C0884005D0816
:101E400085001200633A031D492F5A0886000130AD
:101E500087000130810741310318810A5B08860041
:101E600001308700010884000130850002308107BD
:101E70000008DC005C08E9006908DC005C08BC00C4
:101E80006A0890312C2021003D08DB003C08DA0074
:101E900008005A08860001308700403FDC00413FBF
:101EA000DD005C0884005D0885001200643A0319B7
:101EB000692F5A08860001308700403FDC00413F0F
:101EC000DD005C0884005D0885001200693A031D8E
:101ED000A62F5A0886000130870001308107413162
:101EE0000318810A5B08860001308700010884001E
:101EF0000130850002308107003FDC00013FDD003A
:101F00005C08E1005D08E200890D893B8909E30076
:101F1000E400E500E600E700E8006108BC006208B4
:101F2000BD006308BE006408BF006508C000660805
:101F3000C1006708C2006808C3006A088431AC2485
:101F400021003D08DB003C08DA0008005A08860042
:101F500001308700403FDC00413FDD005C08840029
:101F60005D0885001200253A031DCF2F5A08860010
:101F7000013087000130810741310318810A253083
:101F8000A3000030A4006A08DC005C08A5009131C1
:101F90002D2101302100DA000030DB0008005A0852
:101FA0008600013087000130810741310318810A22
:101FB000DA01DB0108005A08860001308700403F43
:101FC000DC00413FDD005C0884005D0885000008FE
:101FD000DE00DF015E08A3005F08A4006A08E000DD
:101FE0006008A50091312D218E3121005A0886000C
:101FF000013087000130810741310318810AC92F60
:102000002100A9002208A8002108A7002908A5008E
:102010002508AA000130A3020030A43B230A0319BB
:10202000240A0319080027088400280885000008EE
:10203000A5002508A6000130A7070030A83D260806
:10204000A5002A088600023087002508810001309B
:10205000A5002508AA070A282100C1002200260899
:102060002704031D3B2827082100C0002200260862
:102070002100BF0044282608FF3E2100BF00FF309A
:102080002200273D2100C0003C08BE003E0824007D
:10209000D000D10150302100BE003E08B3004008FE
:1020A000B5003F08B40041089231B0222100340845
:1020B000BD003308BC0008002100A30063280130E4
:1020C0000800003008002308A100A2012208003AFD
:1020D00003196B2861282108303A03195F28013A57
:1020E00003195F28033A03195F28013A03195F288F
:1020F000073A03195F28013A03195F28033A0319C5
:102100005F28013A03195F28713A03195F28123AD0
:1021100003195F28013A03195F286128080022008B
:10212000C20021006C082200C40021006B082200BC
:10213000C300A401A50143088400440885001200DF
:102140000319BB284330C00040082100DA006D08A5
:102150002200C10041082100DB00220042088E312C
:10216000F026903121005A082200A40721005B08C4
:102170002200A53D9B2825082100EC002200240810
:102180002100EB0008007408031D7408031DCC280F
:1021900072089931F72108007408033E8600870110
:1021A000160001040319EF287408033E8600870116
:1021B000403FF500413FF600740A86008701403F2A
:1021C000F700413FF8007808803AF9007608803A35
:1021D0007902031DED287508770203180800740AB8
:1021E000860087010130810741310318810A080008
:1021F000210091129B30A1001130A2009A3182225D
:102200009031083023009F0090309D0024309E00C4
:1022100040309B0003309C00DA302100A1001930CF
:10222000A2009A3170229031EF302100A1001930C4
:10223000A2009A3179229031DD302100A1001930BD
:10224000A2009A3167222200BB012000EE01220089
:10225000BD01BC0121009116080021002508031DC5
:102260002508031D372923089931FC21080025087A
:10227000033E860087011600010403195A29250828
:10228000033E86008701403FA600413FA700250A84
:1022900086008701403FA800413FA9002908803AF5
:1022A000AA002708803A2A02031D58292608280276
:1022B000031808002100250A8600870101308107E4
:1022C00041310318810A08002100A9002908A7004C
:1022D0000330A735FF3E031D69292735203EA8009E
:1022E0002808AA002A08023E8600023087008101E1
:1022F0002A08053E8600023087000030C03F0030CB
:10230000C13FC23FC33F2A080A3E86000230870011
:102310000030C03FC13F2A080C3E860002308700D3
:102320000030C03FC13F2A0A860002308700010802
:102330009B318923080020006E08C13E86000130D1
:102340008700810123001D1DB22920006E08C13EB7
:102350008600013087008114230056088A00550842
:102360000A00913123009D1CC22920006E08C13E45
:102370008600013087000115230054088A005308A5
:102380000A00913120006E08C13E860001308700AE
:1023900001080319D229230052088A0051080A00B3
:1023A000913108009C31AC2408002100BC003C089D
:1023B0009F31142791312100B8003808B9003C083A
:1023C0009B3177239131003A0319012A21003C08FF
:1023D000063E8600013087003935203E84000130FA
:1023E0008500403F0002B4000131413F003BB50091
:1023F0009C31F724913121003508BB003408BA0024
:10240000042A2100BA01BB0100303B0265300319E8
:102410003A02031C0F2A3C089A31432208003C0868
:102420009A314C2208002100A5004C2A21080319EA
:102430001C2A22008E111E2A22008E15210022083D
:102440000319252A22000E11080022000E1508008B
:10245000210803192E2A22008E13302A22008E17FB
:10246000210022080319372A22008E1208002200B8
:102470008E16080021080319402A22008C10422AD7
:1024800022008C14210022080319492A22000C1072
:10249000080022000C1408002508A300A401240849
:1024A000003A0319542A5F2A2308013A0319162A0D
:1024B000033A0319282A013A03193A2A5F2A080025
:1024C0002000AC0022002A1C6E2A20002C08A70045
:1024D0002708FA0024089D31F52592312000A61B1B
:1024E000762A2608AB002508AA00782AAA01AB01A3
:1024F000A801A9012908803AA7002B08803A2702E1
:10250000031D842A2A0828020318982A2030F20082
:102510000030F30020002C08A7002708F4009031B9
:10252000C320923101302000A8070030A93D7A2A4B
:1025300022002A18A42A20002C08A7002708FA0045
:1025400024089D31F5259231200024089C31342443
:1025500020002A087007A4002B08713DA500080080
:102560002100BB0022002A1CBE2A21003B08B60025
:102570003608AB0033089E311B2692312100B51B73
:10258000C62A3508BA003408B900C82AB901BA0108
:10259000B701B8013808803AB6003A08803A3602E6
:1025A000031DD42A390837020318E82A20302100F5
:1025B000A3000030A4003B08B6003608A500913106
:1025C0002D21923101302100B7070030B83DCA2AD1
:1025D00022002A18F42A21003B08B6003608AB0076
:1025E00033089E311B269231210033089C31DE24B2
:1025F000210039082107B3003A08223DB400080041
:102600002100AB002B08023E860002308700010843
:1026100003193E2B2B08033E860002308700403F03
:10262000A900413FAA00AA36A90CAA36A90C2B087A
:10263000033E8600023087002908810241312A08C2
:10264000813B7F312B0A86000230870001089D31D3
:10265000102521002508A9002608AA00AA36A90CE1
:10266000AA36A90C2B08033E8600023087002908F1
:10267000810741312A08813D7F3108002B0A8600FD
:102680000230870001089D31102521002B08033EF0
:102690008600023087002508C03F2608C13F080099
:1026A0002200D6005608D4000330D435FF3E031D67
:1026B000552B5435203ED5005508D700570A8600C3
:1026C0000230870001089B3104239331003A03193B
:1026D00008002200570A86000230870001089C315A
:1026E0001D249331003A03190800220057089A313B
:1026F000C9229331220057089531B9259331220020
:102700005708023E86000230870003300102031C96
:10271000912B57088600023087000108913164210F
:10272000933122005708D4005408CF005708023EC6
:102730008600023087000135A03E86000130870008
:10274000413F8A00403F0A00933108002100DD002C
:102750000530DB005B08DC005D08031DBC2B5A085C
:10276000031DBC2BFF30080001302100DC025C0897
:10277000031DBC2BFC3008005A08DB005B08BE00C0
:102780005D088231C8229331003A031DB42B210029
:102790005D080319CF2B5D089131D52193312100BC
:1027A0005A080319D72B5A089131D52193312100AA
:1027B0005D089A31F5229331003A0319E72B210085
:1027C0005D089A31B1229331003A031DF72B2100A5
:1027D0005A089A31F5229331003A0319002C21004E
:1027E0005A089A31B1229331003A0319002C210082
:1027F0005A08DB005B08CD005D0887314E270800D2
:102800000030080022004F080A3E86000230870090
:10281000403FD000413FD100003051020930031940
:1028200050020318182C4F089F31712794311C2C2B
:102830004F0896314026943122004F080A3E860008
:10284000023087000130810741310318810A4F08A7
:102850000A3E860002308700403FD000413FD10051
:1028600000305102103003195002031C08004F08B9
:10287000053E860002308700403FD000413FD10036
:10288000423FD200433FD3000430D336D20CD10CA8
:10289000D00C890B452C4F08033E86000230870080
:1028A0005008C03F5108C13F4F08023E8600023029
:1028B00087008101810A4F080A3E860002308700A6
:1028C0000030C03FC13F080022004F080A3E86008A
:1028D00002308700403FD000413FD1000730510215
:1028E000D03003195002031C8C2C4F088600023094
:1028F0008700010891316421943122004F0886003D
:10290000023087000108D0005008CC0067088A0018
:1029100066080A00943108004F08093E860002301C
:1029200087000108803AD0004F080E3E8600023032
:1029300087004F080E3E84000230850000360102F9
:10294000803AD002031808004F08023E8600023089
:1029500087008101810A4F080A3E86000230870005
:102960000030C03FC13F4F080C3E86000230870058
:10297000FF30C03FFB30C13F4F0886000230870068
:102980000108D0005008CC0067088A0066080A00D9
:102990009431080022002E1ED02C2200AE14D22C1E
:1029A0002200AE10AE1ED72C22002E15D92C2200EC
:1029B0002E112E1FDE2C2200AE15E02C2200AE11AF
:1029C000AE1C2E19E72CAE19E72C2100A201220023
:1029D000AE1C2E19F02CAE1DF02C2100A201A20A73
:1029E0002200AE1C2E1DFB2CAE19FB2C0230210048
:1029F000A1002108A2002200AE1C2E1D062DAE1D36
:102A0000062D03302100A1002108A2002200AE18EB
:102A10002E19112DAE19112D04302100A10021080D
:102A2000A2002200AE182E191C2DAE1D1C2D053043
:102A30002100A1002108A2002200AE182E1D272D82
:102A4000AE19272D06302100A1002108A200220086
:102A5000AE182E1D322DAE1D322D07302100A100E3
:102A60002108A20021002208080022003A08031DC4
:102A70000800AC01AD014C08031D5F2D03102E1F93
:102A80000314031C462D22002E17482D22002E135E
:102A90002E1F552D2100A101A10AA2010330923160
:102AA000132295312200AE155F2D2100A101A20154
:102AB000A20A03309231132295312200AE114C0349
:102AC000031D832D0310AE1E0314031C6A2D220068
:102AD000AE166C2D2200AE12AE1E792D2100A10182
:102AE000A10AA201023092311322953122002E1543
:102AF000832D2100A101A201A20A023092311322EA
:102B0000953122002E1102304C06031DA82D031012
:102B10002E1E0314031C8F2D22002E16912D220031
:102B20002E122E1E9E2D2100A101A10AA20101300C
:102B30009231132295312200AE14A82D2100A1015B
:102B4000A201A20A01309231132295312200AE1067
:102B500000302E1901302100A10000302200AE19F2
:102B600001302100A20022002E0C01399D317D256B
:102B700008002100AB002B08053E860002308700CC
:102B8000403FA100413FA200423FA300433FA400B9
:102B90000430A436A30CA20CA10C890BC92D2B0860
:102BA000033E860002308700403FA500413FA6005B
:102BB0002508A7002608A800A901AA012108A70244
:102BC0002208A83B2308A93B2408AA3B2A08AF00F7
:102BD0002908AE002808AD002708AC002C08A10089
:102BE0002D08A2002E08A3002F08A4002B080F3EDA
:102BF000860002308700010A012EA437A30CA20C24
:102C0000A10C890BFD2D2408AF002308AE0022087B
:102C1000AD002108AC00AF1B222E2F08031D1A2E79
:102C20002E08031D1A2E2D08031D1A2E80302C028B
:102C3000031C222E0030AF000030AE000030AD008B
:102C40007F30AC00AF1F362E80302C02FF302D3B82
:102C5000FF302E3BFF302F3B0318362EFF30AF00E6
:102C6000FF30AE00FF30AD008030AC002C08A1007A
:102C70002B08093E860002308700210881000800E9
:102C80002100A7008B1F8B2E8B132708053E860083
:102C900002308700403FA100413FA200423FA30015
:102CA000433FA4000430A436A30CA20CA10C890B52
:102CB000532E2708053E8600023087002108810236
:102CC00041312208813B41312308813B41312408B5
:102CD000813B7D312708033E860002308700403F5C
:102CE000A100413FA2002108A3002208A400A501E1
:102CF000A6012708053E86000230870023088107C9
:102D000041312408813D41312508813D413126086A
:102D1000813D8B1708002708053E8600023087009A
:102D2000403FA100413FA200423FA300433FA40017
:102D30000430A436A30CA20CA10C890B992E2708F1
:102D4000053E8600023087002108810241312208B9
:102D5000813B41312308813B41312408813B7D3156
:102D60002708033E860002308700403FA100413F14
:102D7000A2002108A3002208A400A501A60127089B
:102D8000053E860002308700230881074131240870
:102D9000813D41312508813D41312608813D0800B2
:102DA0002100E1006108DE00DF01DE35DF0D523079
:102DB0005E07840098305F3D85000008E0006008F1
:102DC000E3006108DE00DF01DE35DF0D53305E0712
:102DD000840098305F3D85000008E0006008E40052
:102DE0006408DE005E08DA0063089331A62396319A
:102DF0002100DF005F08E200412F63089B31772349
:102E00009631003A03191E2F22003E08031D0D2F94
:102E1000210063089E31E8269631210063089A312B
:102E20005522963121006308860001308700010891
:102E3000DE005E08A100883101209631210064087F
:102E40009B3177239631003A0319642F22003E0804
:102E5000031D2F2F210064089E31E82696312100A2
:102E600064089A31552296312100640886000130A9
:102E700087000108DE005E08A1008831012096313C
:102E8000642F6208DE00DF01DE1BDF035F08003A0B
:102E900003194E2FFF3A0319532F642F5E08003A8F
:102EA0000319FD2E642F5E08FB3A0319642F073ABD
:102EB0000319642F013A0319642F033A0319642F8D
:102EC000013A0319642F642F2100620808002100D1
:102ED000BD003D089F31142797312100B800380804
:102EE000BC003D089A31A7229731003A031DAC2F50
:102EF00021003C35203E860001308700403FB8006D
:102F0000413FB9003D08043E8600013087000108BA
:102F1000BA00BB010930BA35BB0D890B8B2F3908BC
:102F20003B02031D952F38083A020318A82F0130E1
:102F3000B8003D08053E860001308700380881074B
:102F40000F300102031C08003D089B3134230800A8
:102F50003D089B313423080021003D08043E8600D3
:102F6000013087000108B800B901B835B90D3D0836
:102F7000063E8600013087003C35203E840001304B
:102F80008500403F0002B4000131413F003BB500E5
:102F90009C31F7249731210039083502031DD22FC7
:102FA000380834020318E12F2030B8003D08023EF3
:102FB000860001308700380881003D089A31E622FA
:102FC00008000230B8003D08033E8600013087004B
:102FD000380881073D08033E860001308700203015
:102FE0000102031C08002030B8003D08023E8600A4
:102FF00001308700380881003D089A31E622080038
:103000000034003400340034003400340034003420
:1030100000340034003400340034003464340134AB
:1030200001340134003400340034003400340034FE
:10303000003400340034003400340034643401348B
:1030400002340234003400340034003400340034DC
:10305000003400340034003400340034643401346B
:1030600053344D34413452345434203443344F3487
:103070004E344634493447340A34003450344934E9
:10308000433453344D344134523454340034503486
:103090004934433425346434003400340D341C3452
:1030A0001E341734A634AF340034B83425346334B6
:0230B0000034EA
:1033B4000800080008009C31AC24080022003C08E6
:1033C400080022000C11080020001C150800200031
:1033D4001C1108009C314C24080023001D121D16EA
:1033E40008001630210097000800F10071089A3196
:1033F400212208002100A20022089A319D220800FF
:103404002100A100210820009B000800F0302100C9
:103414009900220096010800640080010131890BA3
:103424000F2A0034FE0012001E00FE0B152A003481
:10343400003408340034083401340834AE34F00065
:103444002000111E222A700823009A000800FF3071
:1034540020009B009A01911004309C000800210078
:1034640022082200E700210021082200E6000800CB
:10347400210022082200E900210021082200E8009E
:1034840008002100A1002108083E860001308700C1
:10349400811408002100A1002108083E86000130A3
:1034A4008700811008002100A1002108083E860041
:1034B40001308700011408002100A1002108083E02
:1034C4008600013087000110080021002208230033
:1034D400D200210021082300D10008002100220885
:1034E4002300D600210021082300D5000800210074
:1034F40022082300D400210021082300D30008005F
:10350400210022082200E400210021082200E30017
:103514000800210022082200E200210021082200E4
:10352400E1000800210022082200DE002100210819
:103534002200DD0008002100A1002000111E9F2AA6
:103544002100210823009A0008002100A10021087D
:10355400083E860001308700010E01390800210071
:10356400A1002108083E860001308700010C890C67
:10357400013908008B122200B9015D085E040319A9
:1035840008005E088A005D080A009A3108002100DC
:10359400AC008B1FD32A8B132C08933100238B1779
:1035A40008002C089331002308002000181DE12A8C
:1035B4001810710897007008960018140800710814
:1035C40097007008960008002100A1002108083E19
:1035D40086000130870001152108083E860001306D
:1035E4008700011208002100A1002108031DFC2A04
:1035F400003008002108083E860001308700010CD5
:10360400013908002100A6000930A5002508A10001
:1036140026089B316523AE3E8600013087000108F1
:10362400013908002200D9015908933150239B31F4
:1036340001302200D8005808D90703305902031872
:103644000800162BFC3020009C052E0091012F0051
:10365400910190302E0092004030940040302F00B1
:10366400940008002100A1002108083E86000130D2
:10367400870001162108033E86000130870081017E
:10368400810A08002100AA012A089C3164249B3184
:1036940001302100A9002908AA0703302A020318CF
:1036A4000800462B6B302000ED000030EE006A0865
:1036B400E2006908E1006D30E3000030E40000300E
:1036C4009F31422708002100A400A301241C6E2B73
:1036D4002108A2002208A3070310A10D0310A40CC3
:1036E4002408031D682B230808002100A2002208D7
:1036F4000319872B2208083E860001308700010C3D
:10370400A100A10C210C013908000030080021009F
:10371400A60003302602031808000930A500250876
:10372400A10026089B316523AE3E86000130870048
:10373400011108002100A600033026020318080026
:103744000930A5002508A10026089B316523AE3E5B
:103754008600013087008115080047302100EE0003
:103764006E082200CB0046082100EC002200450828
:103774002100EB004B30EE006E08ED00003090317C
:103784008F200800A6302100A2002208A300B83030
:10379400A20023082202031C080023089A315E2297
:1037A4009B3109302100A2002208A307C92B210064
:1037B400E60166089631D0269B31003A0319E42BC2
:1037C4000030080001302100E5006508E6070230FA
:1037D4006602031CDB2B013008007408803AF500F4
:1037E40080307502031DF82B0130730203180800A2
:1037F4007309F5007409F600F50A0319F60A750849
:10380400F3007608F40008000B112200650820007C
:10381400950001302200B2070030B33D033033027B
:10382400E83003193202031C08009C31C52422002D
:10383400B201B30108002100A600033026020318D8
:10384400322C0930A5002508A10026089B316523E8
:10385400AE3E860001308700010C890C0139080056
:1038640000300800F4007408F2007208F3007408D1
:1038740086000230870001080319452C0130F2004C
:103884007208F407392C73087402F000F101F01B7C
:10389400F10308002100A5012508A4000330A43584
:1038A400FF3E031D512C2435203E9E3141269C3180
:1038B40001302100A4002408A507033025020318C1
:1038C40008004E2C2100A80028089B319C239C3121
:1038D400210028089B3189239C3109302100A7004D
:1038E4002708A10028089B3165239C31A63E9A3104
:1038F4005E22080021001508C0391738950064308D
:103904002000950064302100A30023082200E50074
:103914000B118B16DB302100A1001930A2009A3163
:103924008B2208009D31B7259C319A3108229C31A5
:103934009931F3219C319A3129229C319D312A25D8
:103944009C319C317C249C319031F8209C3187310E
:10395400F427080023001908F00020006E08C93E6F
:10396400860001308700700881000130F000700883
:10397400EE0708306E020318EE010130F000700803
:103984002200BC07080030302000E9009830EA002B
:103994009B3154239C3101302100A00020082200D7
:1039A400BA008B12610862040319080062088A00D5
:1039B40061080A009C3108002100A5002508A30025
:1039C4002308A40025088600023087000108031993
:1039D400F02C0130A3002308A507E42C24082502B9
:1039E400A100A201A11BA203080021003508803A0E
:1039F400B60080303602031D012D01303402031855
:103A0400080021003409B6003509B700B60A0319C5
:103A1400B70A3608B4003708B50008002100A8002A
:103A2400033028020318272D0930A7002708A10016
:103A340028089B316523AC3E860001308700403F57
:103A44002100A500413FA6000800A501A601080029
:103A5400200099013C309700B030960017082200EE
:103A6400E000200016082200DF00200011102100D1
:103A74001114DC30A1001930A2009A3194223130A3
:103A84002000980008002100A2000330220203183D
:103A94005F2D2208A1000330A135FF3E031D4E2DEA
:103AA4002135223E86000230870002300106031DC4
:103AB4005D2D0130080000300800003008002200AD
:103AC400BF01BF0A9B31D9239D31003A031D6C2DE0
:103AD400003008009B3114239D31803102209D3138
:103AE4002200DA005A08BF009B31C4239D3199316A
:103AF400EC21013008002100A30023080319852DBF
:103B040022008C12872D22008C1621002108031913
:103B14008E2D22000C12902D22000C16210022085A
:103B24000319972D22000D13080022000D17080019
:103B340000302100A1009830A2003030A3000030F2
:103B4400A4002030903100209D312100AC012C08CC
:103B5400913164219D3101302100AB002B08AC0769
:103B640003302C0203180800A92D373022008C00E2
:103B7400C0308D00BF308E00083021008C00203012
:103B84008D0040308E00EC3023008E0040308D00DC
:103B940037308C0024008D018C0121009517220000
:103BA4009D0108000234143402340834643414349B
:103BB40000343534303410342034003400340034CC
:103BC400003401345D343034103420340034003493
:103BD4000034003402346934303410342034003476
:103BE4000034003400342000A000A201A301220804
:103BF4002007FB007B088600023087000108FC00D8
:103C04007C08A1002108031908002108FB00FC011D
:103C14007B08F2007C08F3007A08FD007D08F400BC
:103C24009031C3209D3101302000A2070030A33D14
:103C3400F92D2100B200B001B10130083207AC0007
:103C44002C088600023087000108AD002D08AF0063
:103C54002F08031908002F08AC00AD012C08A3009D
:103C64002D08A4002B08AE002E08A50091312D21AB
:103C74009E3101302100B0070030B13D1F2E2100DC
:103C8400A3002308023E86000230870002300106AA
:103C9400031D080023080A3E860002308700013015
:103CA400810741310318810A23080A3E8600023045
:103CB400870016000104031D080023080A3E86003D
:103CC40002308700FF30C03FFF30C13F08002200B0
:103CD400CE00812EB90108005630C5009830C600C8
:103CE4004E08CC00CD014C08C7004D08C8009B31DC
:103CF400AF2301302200CC004C08B90008004E0864
:103D0400CC00CD014D08003A0319892E6E2E4C08C3
:103D1400463A03196C2E123A03196C2E6E2E0800C3
:103D240022003C080319922E3D08C13E8600013052
:103D3400870001082100A10021082200BB003D08E2
:103D4400C93E86000130870001082100A100210836
:103D5400A2000130A10021082200BD0708303D0265
:103D64000318BD012100911201302200BC02210080
:103D740091162208080022003A08031D08000030AA
:103D84009D3145259E31003A031D080001309D31C7
:103D940045259E31003A031D080002309D3145251A
:103DA4009E31003A031D080047302200C5009830B8
:103DB400C6009431CA249E312200CD00CE014D08A4
:103DC400C7004E08C8009B31AF2308002100A7009C
:103DD40027089F3114279E312100A5002508A6003D
:103DE4008B1F052F8B132635203E8600013087005C
:103DF4002708063E840001308500403F803F413F54
:103E0400813F8B1708002635203E8600013087004D
:103E14002708063E840001308500403F803F413F33
:103E2400813F08002100A300A4012408A100A201ED
:103E3400A135A20D5230210784009830223D85001F
:103E440000082306031D282F003008002408A100C1
:103E5400A201A135A20D5330210784009830223DE0
:103E6400850000082306031D392F013008000130A6
:103E7400A1002108A407023024020318262F172FBB
:103E84002000E6006208E8006108E7002200A401BF
:103E9400A501200067088400680885001200031942
:103EA400682F6730CE000030CF006408D10063086B
:103EB400D00066088D31E0259F3120004E08220095
:103EC400A40720004F082200A53D4B2F22002508FF
:103ED4002000E200220024082000E1000800210064
:103EE400AD002D0A86000230870001089D3110259F
:103EF4009F3121002508A9002608AA00AB01AC01C6
:103F04002D08053E8600023087002908C03F2A0894
:103F1400C13F2B08C23F2C08C33F2D08053E860035
:103F240002308700043081354131810D4131810DEA
:103F34004131810D7D31890B952F08002000B0009F
:103F4400220026082704031DAF2F27082000B200F3
:103F5400220026082000B100B82F2608FF3E2000CA
:103F6400B100FF302200273D2000B2002D08AF0031
:103F74002F082400D000D10150302000AF002F08BA
:103F8400A4003208A6003108A5003008923160224E
:103F940020002508AE002408AD0008002000111000
:103FA40022006008F1005F08F0009A31D7229F31A7
:103FB40022003A03031DF42F0130B0070030B13D55
:103FC4000B303102B83003193002031C0800BA0167
:103FD4000130F2007208B8009A31BC222200B0010C
:103FE400B10108000130B0070030B13D00303102AA
:0C3FF4000A3003193002031C0800EE2FF5
:020000040001F9
:04000E00E4FDFFFF0F
:00000001FF
