:020000040000FA
:1000000080311528003008007E1480310B1F132822
:100010002100911E13282000911E13286F088A00CA
:100020006E080A0080317E100900803117282230C6
:1000300084008B3085005F308600003087000D30F3
:100040008A31B5228031363084008D308500A03071
:1000500086000030870024308A31B5228031FC01CF
:10006000493084000030850016308A31AF2280315B
:10007000C43084000030850008308A31AF228031DE
:10008000203084000130850040308A31AF227E105C
:1000900020008C318F2C2000AD00A801A901AA01FD
:1000A000AB01A701A401A5012D0803198A287B082B
:1000B00003198A282D08083E8600870181196E28B9
:1000C0007B08083E86008701811D6E282D08083EAA
:1000D000860087018115A401A40A9E287B08083E9A
:1000E00086008701811982282D08083E8600870135
:1000F000811D82287B08083E860087018115A501A5
:10010000A50A9E282D08083E8600870181199E2891
:100110007B0897282D08031D90287B08031D88283D
:100120002D0803199E287B08031D9E282D08083ED4
:100130008600870181199E28003008007B088B31DA
:1001400015238031003A0319A8282000A701A70A27
:100150002E0012082000A0002008A1002E00130885
:100160002000A0002008A2002F0013082000A000FB
:100170002008A3008B316923803120002D0803194A
:10018000D3282D08043E860087010108FF3EA00009
:100190002008AC00A60140302E0098002F009801E6
:1001A00022001D10E5287B08043E86008701010817
:1001B000FF3EA0002008AC00A601A60A2E00980170
:1001C00040302F00980022001D14F20120002D085D
:1001D000823109228031F201F20A7B088231092240
:1001E0008031200059105911D9116B088A318022B1
:1001F00080318A31732280312000D501D601260852
:10020000031D0829111FD910111F042911130E29CC
:10021000121B0B29D910121F0B2912132130A00019
:1002200020082E00980621302000A00020082F0072
:100230009806C0302000A00020082E009406C03090
:100240002000A00020082F00940620002C186E2902
:100250002E001A082000D1072E001B082000D23DD6
:100260002F001A082000D3072F001B082000D43DC0
:100270002708031D53292E001A0820002A02F10026
:100280002E001B0820002B3BF2008C31782480319B
:1002900071082000D5077208D63D2E001B082000EB
:1002A000AB002E006A292F001A0820002A02F10054
:1002B0002F001B0820002B3BF2008C31782480316A
:1002C00071082000D5077208D63D2F001B082000BA
:1002D000AB002F001A082000AA00A2292E001A083D
:1002E0002000D1022E001B082000D23B2F001A084C
:1002F0002000D3022F001B082000D43B2708031D39
:1003000088292E001A0820002802F1002E008E29CC
:100310002F001A0820002802F1002F001B082000DF
:10032000293BF2008C317824803171082000D507F8
:100330007208D63D2E001B082000A9002E001A08C6
:100340002000A8002C08031959140130AC02D91C54
:10035000AB2959155914D914591CFF288A31762212
:100360008031200021082E009200200022082E005B
:100370009300200023082F0093002000591DC2295C
:10038000FB300800D91DC629FA30080024080319DB
:10039000CE292D08083E8600870181112508031902
:1003A000D6297B08083E8600870181112D088B31F4
:1003B00079238031003A0319EA2920002D088A3177
:1003C000E7228031003A031DEA2920002D088531FB
:1003D000B32580317B088B3179238031003A0319B2
:1003E000FC297B088A31E7228031003A031DFC2971
:1003F0007B088531B32580312E0096012F009601B0
:100400002E0097012F0097012E0011102F001110C0
:100410009C28F9007908031908007208031D132AA3
:10042000F601F701172A8030F6000030F700760851
:10043000F3007308F800790A860087010108F300C9
:100440007808113EF400F5010730F53D7408860088
:1004500075088700730881007908053E86008701CA
:100460000108F3007808193EF400F5010730F53D66
:100470007408860075088700730881007808133EA9
:10048000F300F4010730F43D730886007408870018
:1004900050308100FE30F3007808183E8600870156
:1004A0000730873D7308810579088A31E722823158
:1004B000003A03196E2A7908023E86008701010876
:1004C000F3007808163EF400F5010730F53D740896
:1004D00086007508870073088100812A7808163E17
:1004E000F300F4010730F43D7308860074088700B8
:1004F0002030810079088A31D7228231003A0319ED
:10050000932A7908033E860087010108F3007808E2
:10051000173EF400F5010730F53D740886007508B4
:10052000870073089E2A7808173EF300F40107300D
:10053000F43D730886007408870020308100790834
:10054000043E860087010108F300F4010930F33509
:10055000F40D890BA72A7235513E86008701730876
:10056000C03F7408C13F080020002408093E8600EF
:10057000013087000108803AA50024080E3E86005D
:10058000013087000103FF3A803AA5020318F32ADD
:1005900024080A3E8600013087000130810741317E
:1005A0000318810A24080A3E860001308700403F74
:1005B000A500413FA6000030260241300319250264
:1005C000031C342B24080A3E8600013087000030CB
:1005D000C03FC13F240886000130870001088E31EA
:1005E0008F268231342B2408093E86000130870093
:1005F0000108A500A601A51BA60324080E3E86003F
:10060000013087002608803A803C031D092B25080D
:10061000010203182B2B02302000A5002408023E03
:100620008600013087002508810024080A3E8600E4
:10063000013087000030C03FC13F240886000130F0
:1006400087000108A5002508F70068088A006708E8
:100650000A008331342B200024080A3E8600013032
:1006600087000030C03FC13F200024080C3E8600B8
:10067000013087000130810741310318810A2408C5
:100680000C3E8600013087001600403AA500160097
:10069000A504031D080024080C3E860001308700D5
:1006A0000030C03FC13F2408853124250800F300F5
:1006B000B92B22000D178E168C160C16080022007E
:1006C0000D178E168C160C12080022000D178E16B0
:1006D0008C120C16080022000D178E168C120C12AC
:1006E000080022000D178E128C160C16080022002E
:1006F0000D178E128C160C12080022000D178E1288
:100700008C120C16080022000D178E128C120C127F
:10071000080022000D138E168C160C1608002200FD
:100720000D138E168C160C12080022000D138E1657
:100730008C120C16080022000D138E168C120C124F
:10074000080022000D138E128C160C1608002200D1
:100750000D138E128C160C12080022000D138E122F
:100760008C120C16080022000D138E128C120C1223
:1007700008007308F100F2017208003A0319C12B56
:10078000F32B7108003A0319592B013A03195F2B17
:10079000033A0319652B013A03196B2B073A031926
:1007A000712B013A0319772B033A03197D2B013A78
:1007B0000319832B0F3A0319892B013A03198F2B45
:1007C000033A0319952B013A03199B2B073A031996
:1007D000A12B013A0319A72B033A0319AD2B013AB8
:1007E0000319B32BF32B0800F300562C22000C1432
:1007F0008E178C148E15080022000C148E178C1482
:100800008E11080022000C148E178C108E15080013
:1008100022000C148E178C108E11080022000C146C
:100820008E138C148E15080022000C148E138C1459
:100830008E11080022000C148E138C108E150800E7
:1008400022000C148E138C108E11080022000C1044
:100850008E178C148E15080022000C108E178C1425
:100860008E11080022000C108E178C108E150800B7
:1008700022000C108E178C108E11080022000C1014
:100880008E138C148E15080022000C108E138C14FD
:100890008E11080022000C108E138C108E1508008B
:1008A00022000C108E138C108E1108007308F100BA
:1008B000F2017208003A03195E2C902C7108003A7C
:1008C0000319F62B013A0319FC2B033A0319022CE6
:1008D000013A0319082C073A03190E2C013A03199F
:1008E000142C033A03191A2C013A0319202C0F3A3D
:1008F0000319262C013A03192C2C033A0319322C24
:10090000013A0319382C073A03193E2C013A03190E
:10091000442C033A03194A2C013A0319502C902C09
:1009200008002000C2004208BF00C001BF35C00D52
:1009300045303F0784009030403D85000008C100ED
:100940004108C4004208BF00C001BF35C00D463099
:100950003F0784009030403D85000008C1004108F9
:10096000C5004508BF003F08BB0044088731A027E9
:1009700084312000C0004008C300FE2C44088B31A5
:1009800079238431003A0319DD2C20005A08031D15
:10099000CD2C44088D315A258431200044088A31F9
:1009A000C922843120004408860087010108BF0065
:1009B0003F08F1008A316F228431200045088B31D5
:1009C00079238431003A0319212D20005A08031D90
:1009D000ED2C45088D315A258431200045088A3197
:1009E000C922843120004508860087010108BF0024
:1009F0003F08F1008A316F228431212D4308BF0066
:100A0000C001BF1BC0034008003A03190B2DFF3A79
:100A10000319102D212D3F08003A0319BE2C212D5A
:100A20003F08FB3A0319212D073A0319212D013AFA
:100A30000319212D033A0319212D013A0319212D00
:100A4000212D200043080800F7008B1F6E2D8B130B
:100A50007708053E860001308700403FF100413FA6
:100A6000F200423FF300433FF4000430F436F30C4D
:100A7000F20CF10C890B362D7708053E860001300B
:100A800087007108810241317208813B413173084E
:100A9000813B41317408813B7D317708033E8600FC
:100AA00001308700403FF100413FF2007108F30040
:100AB0007208F400F501F6017708053E8600013062
:100AC00087007308810741317408813D4131750801
:100AD000813D41317608813D8B1708007708053E3E
:100AE000860001308700403FF100413FF200423F65
:100AF000F300433FF4000430F436F30CF20CF10C35
:100B0000890B7C2D7708053E86000130870071082F
:100B1000810241317208813B41317308813B41318F
:100B20007408813B7D317708033E860001308700E1
:100B3000403FF100413FF2007108F3007208F400F9
:100B4000F501F6017708053E86000130870073083D
:100B5000810741317408813D41317508813D413142
:100B60007608813D0800FA007A088D31D22585315A
:100B7000F5007508F9007A088A31D7228531003AE4
:100B8000031DF22D7935513E86008701403FF50067
:100B9000413FF6007A08043E860087010108F7000D
:100BA000F8010930F735F80D890BD22D7608780257
:100BB000031DDC2D750877020318EE2D0130F500BA
:100BC0007A08053E86008701750881070F3001020B
:100BD000031C08007A088B31082308007A088B313F
:100BE000082308007A08043E860087010108F50002
:100BF000F601F535F60D7A08063E8600870179354F
:100C0000513E84008501403F0002F1000131413F27
:100C1000003BF2008C317824853176087202031D86
:100C2000132E750871020318212E2030F5007A0862
:100C3000023E86008701750881007A088A31F02219
:100C400008000230F5007A08033E86008701750827
:100C500081077A08033E8600870120300102031CC9
:100C600008002030F5007A08023E860087017508EA
:100C700081007A088A31F02208002000A0002008B4
:100C8000053E860001308700403FF100413FF20001
:100C9000423FF300433FF4000430F436F30CF20C0F
:100CA000F10C890B4D2E2008033E86000130870091
:100CB000403FF500413FF6007508F7007608F80060
:100CC000F901FA017108F7027208F83B7308F93B61
:100CD0007408FA3B7A08A4007908A3007808A200F7
:100CE0007708A1002108F1002208F2002308F30090
:100CF0002408F40020080F3E860001308700010A16
:100D0000852EF437F30CF20CF10C890B812E74084C
:100D1000A4007308A3007208A2007108A100A41B1C
:100D2000A62E2408031D9E2E2308031D9E2E220896
:100D3000031D9E2E80302102031CA62E0030A4002D
:100D40000030A3000030A2007F30A100A41FBA2E03
:100D500080302102FF30223BFF30233BFF30243B19
:100D60000318BA2EFF30A400FF30A300FF30A2000A
:100D70008030A1002108F1002008093E86000130E2
:100D800087007108810008002000B1005608B000FB
:100D90005508AF00B036AF0CB036AF0C55082F0772
:100DA000B2005608303DB3006B08AF002F08B40006
:100DB0005208B7005108B6005408B9005308B800EB
:100DC000BA013A08403E840090300318013E850085
:100DD0000008AF002F08EB07AE306B020318F42EAB
:100DE000AE30AF002F08EB070530AF002F08B5007D
:100DF0002E08AF002F08FB00310880314B208631D0
:100E0000003A03190B2F01302000B5023508031DED
:100E1000F82EFC300800200056083302031D122F64
:100E2000550832020318242F5608B3005508B200A3
:100E30006B08AF002F08B4005208B7005108B60085
:100E40005408B9005308B8000130AF002F08BA07A2
:100E500005303A02031CE12E3408AF002F08EB00E6
:100E60003708D2003608D1003908D4003808D3003A
:100E700000300800200024080A3E86000130870068
:100E8000403FA500413FA60007302602D03003199D
:100E90002502031C622F2408860001308700010808
:100EA0008E318F268731200024088600013087008C
:100EB0000108A5002508F70066088A0065080A00F1
:100EC000873108002408093E8600013087000108A8
:100ED000803AA50024080E3E8600013087002408D1
:100EE0000E3E84000130850000360102803AA502E2
:100EF000031808002408023E8600013087008101A3
:100F0000810A24080A3E8600013087000030C03F75
:100F1000C13F24080C3E860001308700FF30C03FEF
:100F2000FB30C13F24088600013087000108A5007E
:100F30002508F70066088A0065080A00873108005E
:100F40002000BE000530BC003C08BD003E08031D6B
:100F5000B62F3B08031DB62FFF30080001302000DC
:100F6000BD023D08031DB62FFC3008003B08BC0045
:100F70003C08FB003E0880314B208731003A031DBE
:100F8000AE2F20003E080319C92F3E088E31C5261A
:100F9000873120003B080319D12F3B088E31C5262D
:100FA000873120003E088B3115238731003A031921
:100FB000E12F20003E088A31E7228731003A031DE5
:100FC000F12F20003B088B3115238731003A03199C
:100FD000FA2F20003B088A31E7228731003A0319B3
:100FE000FA2F20003B08BC003C08AE003E088631CA
:100FF000C4260800003008001630210097000800C1
:1014D80008000800080008008C314A240800200091
:1014E8001C15080020001C1108008C313424080049
:1014F80023001D121D160800F100710820009B0032
:10150800080072082000E6007108E500080072086B
:101518002000E8007108E700080072082100CD00EB
:101528007108CC00080072082000ED007108EC007A
:10153800080072082100CF007108CE000800720868
:101548002000EF007108EE000800F030210099003B
:10155800220096010800640080010131890BB02A3D
:101568000034FE0012001E00FE0BB62A0034F10003
:101578007108083E8600870181140800F10071088F
:10158800083E8600870181100800F1007108083EB6
:101598008600870101140800F1007108083E8600E2
:1015A800870101100800F1007108083E86008701D4
:1015B800010E01390800FF3020009B009A019110AC
:1015C80004309C000800F1007108083E860087017D
:1015D800010C890C01390800F1007108083E8600E9
:1015E800870101157108083E86008701011208006D
:1015F8008B314B238A318C31DF248A318B31E123C3
:101608008A318B3169230800F1007108083E860091
:10161800870101167108033E860087018101810A4E
:101628000800F1007108031D1B2B00300800710829
:10163800083E86008701010C013908009E340F34EA
:10164800B43402343A3407346E340A346E340A340B
:101658006F340A34AE342000A0008B1F392B8B1353
:1016680020088E31FC268B17080020088E31FC26B6
:101678000800F6000930F5007508F10076088B318E
:101688008923A83E86008701010801390800FA016C
:101698007A088C3109248B310130F9007908FA076E
:1016A80004307A02031808004C2B2000AE012E08E3
:1016B8008F3149278B3101302000AD002D08AE074E
:1016C80004302E02031808005B2BFC3020009C0518
:1016D8002E0091012F00910190302E009200403091
:1016E800940040302F0094000800F200720803199B
:1016F800872B7208083E86008701010CF100F10C67
:10170800710C0139080000300800F400F301741C62
:10171800912B7108F2007208F3070310F10D031002
:10172800F40C7408031D8B2B73080800F6000430B2
:101738007602031808000930F5007508F1007608EC
:101748008B318923A83E8600870101110800F60025
:1017580004307602031808000930F5007508F10016
:1017680076088B318923A83E8600870181150800F9
:101778008C31FB248B318A31A9228B318731FC27AC
:101788008B318A31DF228B318E312D268B318A3194
:10179800FC2208008D3118258B31F80020005708ED
:1017A8007806D7005808D80057088331F4238B31BE
:1017B80020005708833157230800A030F200720830
:1017C800F300BB30F20073087202031C08007308B0
:1017D8008A31D0228B310930F2007208F307E52BE9
:1017E800F600043076020318072C0930F500750856
:1017F800F10076088B318923A83E86008701010C09
:10180800890C0139080000300800F80078088B318D
:10181800AB238C3178088B319A238C310930F7004F
:101828007708F10078088B3189238C31A03E8A3102
:10183800D02208002000C7014708843191248C3148
:10184800003A0319292C0030080001302000C60096
:101858004608C70702304702031C202C0130080045
:10186800F5017508F4000330F435FF3E031D382CEC
:101878007435203E8D3180258C310130F400740898
:10188800F5070430750203180800352C23001908E1
:10189800F0007C08C43E8600870170088100013092
:1018A800F0007008FC0708307C020318FC010130C6
:1018B800F00070082000DD070800F8000430780206
:1018C8000318752C0930F7007708F10078088B3178
:1018D8008923A63E86008701403FF500413FF60078
:1018E8000800F501F60108007208803AF30080301C
:1018F8007302031D812C013071020318080071095D
:10190800F3007209F400F30A0319F40A7308F100EA
:101918007408F20008008B31BC238C318B170B172D
:10192800CE30F1000B30F2008A318B228C316D30D1
:10193800F1000A30F2008A3185228C3122000C1124
:101948008C31C3248C31A42CF200043072020318A9
:10195800C12C7208F1000330F135FF3E031DB02C95
:101968007135223E86000130870002300106031DD2
:10197800BF2C0130080000300800003008002000AB
:10198800DB01DB0A8C311E248C31003A031DCE2C7E
:10199800003008008B3159238C31803102208C3182
:1019A8002000C8004808DB008B31E1238C318A31E4
:1019B8007922013008000030F1009030F200403008
:1019C800F3000030F40020308D31A7258C31200041
:1019D800A00120088E318F268C310130FB007B0856
:1019E8002000A0070430200203180800ED2C37302F
:1019F80022008C00C0308D00BF308E0008302100DE
:101A08008C0020308D0040308E00E83023008E009E
:101A180040308D0037308C0024008D018C0121006E
:101A2800951722009D010800F501F60176088C3112
:101A3800A8248D31013A031D2C2D0130F300760ABC
:101A4800262DF335890B252D7308F4007408F50449
:101A58000130F3007308F60704307602031C1A2DD0
:101A680075080800003469343034103420340034E8
:101A7800003400340034013431343034103420342C
:101A8800003400340034003402345D34303410340F
:101A98002034003400340034003403343534303416
:101AA800103420340034003400340034F700770850
:101AB8008D31D2258D31F5007508F6008B1F732DF9
:101AC8008B137635513E860087017708063E8400E1
:101AD8008501403F803F413F813F8B1708007635A5
:101AE800513E860087017708063E84008501403F05
:101AF800803F413F813F0800F3007308023E8600A3
:101B08000130870002300106031D080073080A3EF1
:101B18008600013087000130810741310318810AAE
:101B280073080A3E86000130870016000104031D71
:101B3800080073080A3E860001308700FF30C03F66
:101B4800FF30C13F0800F9007208F8007108F7007B
:101B58007908F5007508FA000130F3020030F43B0B
:101B6800730A0319740A03190800770884007808AF
:101B780085000008F5007508F6000130F707003009
:101B8800F83D7608F5007A08860001308700750868
:101B980081000130F5007508FA07B02DF300F40153
:101BA8007408F100F201F135F20D45307107840037
:101BB8009030723D850000087306031DE52D003046
:101BC80008007408F100F201F135F20D4630710792
:101BD80084009030723D850000087306031DF62DC1
:101BE800013008000130F1007108F4070230740276
:101BF8000318E32DD42DF900790A860001308700F7
:101C080001088C3161248D3175082000A000760808
:101C1800A100A201A3017908053E860001308700D2
:101C28002008C03F2108C13F2208C23F2308C33F04
:101C38007908053E8600013087000430813541313E
:101C4800810D4131810D4131810D7D31890B222E6C
:101C58000800210091125D30F1000E30F2008A3147
:101C6800A3228E31083023009F0090309D0024303D
:101C78009E0040309B0003309C006C30F1000A301D
:101C8800F2008A3197228E317C30F1000A30F2005E
:101C98008A319D228E317030F1000A30F2008A318B
:101CA80091222000DC01FC01DE01DD0121009116FA
:101CB80008007C08493E86008701810123001D1D1C
:101CC800702E7C08493E86008701811420006D082B
:101CD8008A006C080A008E3123009D1C7E2E7C0829
:101CE800493E86008701011521004F088A004E08E9
:101CF8000A008E317C08493E8600870101080319D5
:101D08008C2E21004D088A004C080A008E310800EC
:101D18008C314A240800F9007908F7000330F735B8
:101D2800FF3E031D932E7735203EF8007808FA0011
:101D38007A08023E86000130870081017A08053E54
:101D48008600013087000030C03F0030C13FC23FED
:101D5800C33F7A080A3E8600013087000030C03F42
:101D6800C13F7A080C3E8600013087000030C03F32
:101D7800C13F7A0A86000130870001088B319A2317
:101D88000800F90079088D31D2258E31F5007508E3
:101D9800F80079088B3179238E31003A0319EB2E3C
:101DA8007908063E860087017835513E8400850112
:101DB800403F0002F1000131413F003BF2008C310D
:101DC80078248E317208F7007108F600ED2EF601BE
:101DD800F70100307702653003197602031CF82EEC
:101DE80079088A31BB22080079088A31C2220800A2
:101DF800FB007B08023E86000130870001080319BA
:101E0800382F7B08033E860001308700403FF900E9
:101E1800413FFA00FA36F90CFA36F90C7B08033E12
:101E28008600013087007908810241317A08813BB8
:101E38007F317B0A86000130870001088C316124DC
:101E48007508F9007608FA00FA36F90CFA36F90C32
:101E58007B08033E860001308700790881074131FD
:101E68007A08813D7F3108007B0A860001308700AF
:101E780001088C3161247B08033E8600013087000D
:101E88007508C03F7608C13F08002000AB002B084A
:101E9800A9000330A935FF3E031D4E2F2935203EEA
:101EA800AA002A08AC002C0A860001308700010825
:101EB8008B313D238F31003A0319080020002C0A8A
:101EC80086000130870001088B31F4238F31003AF6
:101ED8000319080020002C088B312F238F31200094
:101EE8002C0886313D268F3120002C08023E8600C2
:101EF8000130870003300102031C8A2F2C0886005A
:101F08000130870001088E318F268F3120002C0880
:101F1800A9002908A4002C08023E86000130870089
:101F280001355F3E86008701413F8A00403F0A0035
:101F38008F310800200024080A3E860001308700FF
:101F4800403FA500413FA600003026020930031992
:101F580025020318B42F24088D31FF258F31B82F9F
:101F68002408853124258F31200024080A3E860064
:101F7800013087000130810741310318810A2408A4
:101F88000A3E860001308700403FA500413FA60079
:101F980000302602103003192502031C080024080B
:101FA800053E860001308700403FA500413FA6005E
:101FB800423FA700433FA8000430A836A70CA60C50
:101FC800A50C890BE12F2408033E86000130870009
:101FD8002508C03F2608C13F2408023E860001307C
:101FE80087008101810A24080A3E860001308700A3
:101FF8000030C03FC13F08000034013400340034D1
:102008000034003400340034003400340034003428
:1020180000340034643401340134003400340034B2
:102028000034003400340034003400340034003408
:10203800003400346434013402340334003400348E
:1020480000340034003400340034003400340034E8
:10205800003400346434013403340234003400346E
:1020680000340034003400340034003400340034C8
:10207800003400346434013400340D341C341E340C
:0A2088001734A934A034BB34B2347D
:020000040001F9
:04000E00E4FDFFFF0F
:00000001FF
