:020000040000FA
:1000000080311628003008007E1480310B1F142820
:100010002100911E14282000911E1428210051084F
:100020008A0050080A0080317E10090080311828AB
:10003000883100208031EE00CF308400943085007C
:10004000BE308600003087000C3094317A24803135
:100050000130840088308500203086000130870020
:10006000243094317A248031FC015C3084000030EB
:1000700085001230943174248031A0308400003027
:1000800085001E3094317424803144308400013066
:1000900085002030943174248031A03084000130F8
:1000A00085004030943174247E1020008231222A51
:1000B0002000AD00A801A901AA01AB01A701A4017C
:1000C000A5012D0803199E287B0803199E282D08D9
:1000D000083E86000130870081197E287B08083E93
:1000E000860001308700811D7E282D08083E86008D
:1000F000013087008115A401A40AB3287B08083EBB
:10010000860001308700811995282D08083E860059
:1001100001308700811D95287B08083E860001304C
:1001200087008115A501A50AB3282D08083E860081
:10013000013087008119B3287B08AB282D08031DE7
:10014000A4287B08031D9C282D080319B3287B08CD
:10015000031DB3282D08083E860001308700811951
:10016000B328003008007B089431F7248031003A2E
:100170000319BD282000A701A70A2E00120820009D
:10018000A0002008A1002E0013082000A0002008D5
:10019000A2002F0013082000A0002008A300953122
:1001A0004125803120002D080319E9282D08043E3F
:1001B0008600013087000108FF3EA0002008AC0047
:1001C000A60140302E0098002F00980122001D103B
:1001D000FC287B08043E8600013087000108FF3EB2
:1001E000A0002008AC00A601A60A2E00980140300D
:1001F0002F00980022001D14F20120002D088431E8
:10020000F8248031F201F20A7B088431F82480312D
:10021000200064106411E4116E089431452480318B
:1002200094312F2480312000E001E1012608031DD4
:100230001F29111FE410111F1B2911132529121B3F
:100240002229E410121F222912132130A0002008B5
:100250002E00980621302000A00020082F009806CC
:10026000C0302000A00020082E009406C0302000DE
:10027000A00020082F00940620002C1885292E00AD
:100280001A082000DC072E001B082000DD3D2F008F
:100290001A082000DE072F001B082000DF3D27087A
:1002A000031D6A292E001A0820002A02F1002E00E0
:1002B0001B0820002B3BF20096313B268031710851
:1002C0002000E0077208E13D2E001B082000AB0073
:1002D0002E0081292F001A0820002A02F1002F0089
:1002E0001B0820002B3BF20096313B268031710821
:1002F0002000E0077208E13D2F001B082000AB0042
:100300002F001A082000AA00B9292E001A08200080
:10031000DC022E001B082000DD3B2F001A08200005
:10032000DE022F001B082000DF3B2708031D9F294A
:100330002E001A0820002802F1002E00A5292F0007
:100340001A0820002802F1002F001B082000293B7A
:10035000F20096313B26803171082000E0077208D8
:10036000E13D2E001B082000A9002E001A082000E5
:10037000A8002C08031964140130AC02E41CC22943
:1003800064156414E414641C1629943132248031F9
:10039000200021082E009200200022082E00930049
:1003A000200023082F0093002000641DD929FB3072
:1003B0000800E41DDD29FA30080024080319E629A5
:1003C0002D08083E86000130870081112508031999
:1003D000EF297B08083E86000130870081112D0837
:1003E000953173258031003A0319032A20002D0826
:1003F0009431B9248031003A031D032A20002D08CE
:100400008D319F2580317B08953173258031003AED
:100410000319152A7B089431B9248031003A031D51
:10042000152A7B088D319F2580312E0096012F00E3
:1004300096012E0097012F0097012E0011102F001A
:100440001110B1289531A82582318B170B178030F8
:10045000F1000830F200943150248231F330F10081
:100460001630F20094314A24823122000C1120000F
:10047000E201E30194312C248231003A03192A2B42
:100480009731382782312100D20052082000EB003A
:100490006B088A3113228231003A03192A2B20007B
:1004A0006808031D5E2A6B082100D2005208200054
:1004B000EA006B089731862782312A2B6903031DD6
:1004C0001D2B54306B06031DBE2A0F308E31C626FD
:1004D000823115302100D3004B30D200BE30890B61
:1004E0006F2AD20B6F2AD30B6F2A00001530210020
:1004F000D3004B30D200BE30890B7C2AD20B7C2A31
:10050000D30B7C2A000015302100D3004B30D200E1
:10051000BE30890B892AD20B892AD30B892A000085
:1005200015302100D3004B30D200BE30890B962A03
:10053000D20B962AD30B962A000015302100D30047
:100540004B30D200BE30890BA32AD20BA32AD30B87
:10055000A32A000015302100D3004B30D200BE305A
:10056000890BB02AD20BB02AD30BB02A000020008E
:10057000E901E80162088E31C6268231463020004A
:100580006B06031D2A2B00308E31C62682311530B2
:100590002100D3004B30D200BE30890BCD2AD20BC4
:1005A000CD2AD30BCD2A000015302100D3004B30CB
:1005B000D200BE30890BDA2AD20BDA2AD30BDA2A20
:1005C000000015302100D3004B30D200BE30890B23
:1005D000E72AD20BE72AD30BE72A000015302100C7
:1005E000D3004B30D200BE30890BF42AD20BF42A50
:1005F000D30BF42A000015302100D3004B30D20079
:10060000BE30890B012BD20B012BD30B012B000029
:1006100015302100D3004B30D200BE30890B0E2B99
:10062000D20B0E2BD30B0E2B00002000E901E801AA
:1006300062088E31C62682312A2B54306B06031D88
:10064000252B6A088331D4238231463020006B0683
:100650000319E8019631B9268231003A03193A2A82
:1006600020006908031D892B6803031D452B0130F9
:100670002100B8070030B93D143038063904031D95
:10068000452BB801B9012000E801003096318226DF
:100690008231013A031D852B013096318226823149
:1006A000003A031D852B0230963182268231003AB2
:1006B000031D852B0330963182268231013A031DBA
:1006C000852B01302100BA070030BB3DDC303A06F3
:1006D000053003193B06031D3A2ABA01BB0100305D
:1006E0002000C7009830C800953151258231200084
:1006F000E901E90AE801E80A2100B801B90100307E
:100700008E31C62682312000D22B2100BA01BB01D6
:100710003A2A6803031DB22B01302100B8070030CC
:10072000B93D75303902313003193802031CB22B40
:1007300000308E31C626823101302100B8070030EA
:10074000B93D7D303902003003193802031CB22B49
:10075000B801B901200062088E31C626823120001E
:10076000E801E90101302100D20052082000E6072B
:100770006708031DC82B00308E31C6268231C83071
:1007800020006606031D3A2AE601E701E70A3A2A35
:100790000F308E31C6268231C83020006606031D18
:1007A0003A2AE601E7013A2A2000D100BA2C0030AB
:1007B0008E31C626833100308F3163272000E80157
:1007C000E201E301080001308E31C6268331013099
:1007D0008F3163272000E8010130E2000030E300A0
:1007E000080002308E31C626833102308F316327F4
:1007F0002000E8010230E2000030E300080003308E
:100800008E31C626833103308F3163272000E80103
:100810000330E2000030E300080004308E31C626C9
:10082000833104308F3163272000E8010430E20077
:100830000030E300080005308E31C62683310530D4
:100840008F3163272000E8010530E2000030E3002B
:10085000080006308E31C626833106308F3163277B
:100860002000E8010630E2000030E3000800073015
:100870008E31C626833107308F3163272000E8018F
:100880000730E2000030E300080008308E31C62651
:10089000833108308F3163272000E8010830E200FF
:1008A0000030E300080009308E31C626833109305C
:1008B0008F3163272000E8010930E2000030E300B7
:1008C00008000A308E31C62683310A308F31632703
:1008D0002000E8010A30E2000030E30008000B309D
:1008E0008E31C62683310B308F3163272000E8011B
:1008F0000B30E2000030E30008000C308E31C626D9
:1009000083310C308F3163272000E8010C30E20086
:100910000030E30008000D308E31C62683310D30E3
:100920008F3163272000E8010D30E2000030E30042
:1009300008000E308E31C62683310E308F3163278A
:100940002000E8010E30E2000030E30008000F3024
:100950008E31C62683310F308F3163272000E801A6
:100960000F30E2000030E30008008531A8250800C0
:10097000E80108005108CF00D0015008003A0319DF
:10098000C22CB82C4F08303A0319D72B013A03195F
:10099000E32B033A0319F12B013A0319FF2B073A12
:1009A00003190D2C013A03191B2C033A0319292CA6
:1009B000013A0319372C0F3A0319452C013A031950
:1009C000532C783A0319612C033A03196F2C013A1E
:1009D00003197D2C073A03198B2C013A0319992C22
:1009E000023A0319A72C123A0319B52CB82C0800A7
:1009F000F9007908031908007208031D022DF60199
:100A0000F701062D8030F6000030F7007608F3007D
:100A10007308F800790A8600013087000108F300A6
:100A20007808113EF400F5010730F53D74088600A2
:100A300075088700730881007908053E860001303B
:100A400087000108F3007808193EF400F50107302B
:100A5000F53D7408860075088700730881007808E2
:100A6000133EF300F4010730F43D73088600740868
:100A7000870050308100FE30F3007808183E860071
:100A800087010730873D7308810579089431B924BF
:100A90008431003A0319602D7908023E8600013046
:100AA00087000108F3007808163EF400F5010730CE
:100AB000F53D740886007508870073088100732D62
:100AC0007808163EF300F4010730F43D7308860001
:100AD000740887002030810079089431B024843173
:100AE000003A0319862D7908033E860001308700FD
:100AF0000108F3007808173EF400F5010730F53DD2
:100B000074088600750887007308912D7808173ED1
:100B1000F300F4010730F43D730886007408870081
:100B2000203081007908043E8600013087000108EA
:100B3000F300F4010930F335F40D890B9B2D723568
:100B40005C3E860087017308C03F7408C13F0800FF
:100B5000192E0E30C7009830C80095315125080075
:100B60001330C7009830C80095315125080018305F
:100B7000C7009830C8009531512508001D30C700C6
:100B80009830C8009531512508002230C7009830B0
:100B9000C8009531512508002730C7009830C8009B
:100BA0009531512508002C30C7009830C800953188
:100BB000512508003130C7009830C80095315125C3
:100BC00008003630C7009830C8009531512508001C
:100BD0003B30C7009830C80095315125080040309F
:100BE000C7009830C8009531512508004530C7002E
:100BF0009830C8009531512508004A30C700983018
:100C0000C8009531512508004F30C7009830C80002
:100C10009531512508005430C7009830C8009531EF
:100C2000512508005930C7009830C800953151252A
:100C3000080020006308003A03191F2E512E620895
:100C4000003A0319A92D013A0319B02D033A0319EB
:100C5000B72D013A0319BE2D073A0319C52D013AE4
:100C60000319CC2D033A0319D32D013A0319DA2DB8
:100C70000F3A0319E12D013A0319E82D033A03193C
:100C8000EF2D013A0319F62D073A0319FD2D013A0C
:100C90000319042E033A03190B2E013A0319122EDD
:100CA000512E08002000BE00360886008701403F14
:100CB000B800413FB90038088400390885001200A7
:100CC000253A031DD72E360886008701013081079B
:100CD00041310318810A2100B201B301B601B70105
:100CE000FF30B400FF30B5002000360886008701D1
:100CF000403FB800413FB9003808840039088500FA
:100D00001200633A031DA52E3608860087010130C4
:100D1000810741310318810A3708860087010108DD
:100D200084008501023081070008B8003808BD0042
:100D30003D08B8003808B0003E088831DD202000AA
:100D40003108B7003008B600080036088600870171
:100D5000403FB800413FB900380884003908850099
:100D60001200253A031DCC2E36088600870101307B
:100D7000810741310318810A2530F3000030F40067
:100D80003E08B8003808F500893170210130200094
:100D9000B6000030B7000800360886008701013031
:100DA000810741310318810AB601B70108003608EE
:100DB00086008701403FB800413FB90038088400F1
:100DC000390885000008BA00BB013A08F3003B0867
:100DD000F4003E08BC003C08F500893170218631E2
:100DE0002000360886008701013081074131031851
:100DF000810AC62E20005008093E86000130870077
:100E00000108803AD10050080E3E8600013087006C
:100E10000103FF3A803AD1020318392F50080A3EE5
:100E20008600013087000130810741310318810AB3
:100E300050080A3E860001308700403FD100413F04
:100E4000D20000305202413003195102031C7B2FA3
:100E500050080A3E8600013087000030C03FC13F85
:100E6000500886000130870001088931A5218631AC
:100E70007B2F5008093E8600013087000108D10011
:100E8000D201D11BD20350080E3E860001308700EC
:100E90005208803A803C031D4F2F5108010203186D
:100EA000722F02302000D1005008023E860001302F
:100EB00087005108810050080A3E860001308700F3
:100EC0000030C03FC13F5008860001308700010854
:100ED000D1005108CF00210047088A0046080A00C7
:100EE00087317B2F200050080A3E860001308700A2
:100EF0000030C03FC13F200050080C3E860001304A
:100F000087000130810741310318810A50080C3EE7
:100F10008600013087001600403AD1001600D10447
:100F2000031D080050080C3E860001308700003089
:100F3000C03FC13F50088D311025080020005008E7
:100F40000A3E860001308700403FD100413FD20079
:100F5000003052020930031951020318B42F50080F
:100F6000883152208731B82F50088D3110258731B4
:100F7000200050080A3E86000130870001308107BA
:100F800041310318810A50080A3E8600013087006B
:100F9000403FD100413FD2000030520210300319CF
:100FA0005102031C08005008053E860001308700EE
:100FB000403FD100413FD200423FD300433FD400E5
:100FC0000430D436D30CD20CD10C890BE12F50084D
:100FD000033E8600013087005108C03F5208C13FE0
:100FE0005008023E8600013087008101810A5008C6
:100FF0000A3E8600013087000030C03FC13F080034
:10100000AE340034693430341034203400340034C9
:10101000003400340134313430341034203400349E
:1010200000340034003402345D3430341034203461
:101030000034003400340034033435343034103498
:1010400020340034003400340034F300F401740818
:10105000F100F201F135F20D5E3071078400983035
:10106000723D850000087306031D38280030080013
:101070007408F100F201F135F20D5F307107840060
:101080009830723D850000087306031D4928013021
:1010900008000130F1007108F407023074020318EF
:1010A00036282728F900790A8600013087000108D0
:1010B00096316A26883175082000A0007608A100C4
:1010C000A201A3017908053E8600013087002008AF
:1010D000C03F2108C13F2208C23F2308C33F79080F
:1010E000053E860001308700043081354131810D95
:1010F0004131810D4131810D7D31890B7528080009
:101100002100BA01BB0120006908031D08004F0837
:10111000031D8E280130E2060030E3064F03031D55
:1011200095280230E2060030E30602304F06031D28
:101130009D280430E2060030E30603304F06031D0D
:10114000A5280830E2060030E30662088E31C62684
:101150008831200062088F31632708002000C40016
:101160004008C6003F08C5002100B001B1012000C1
:10117000450884004608850012000319D42845302C
:10118000C2004208B6004108C3004308B700440843
:10119000863152268831200036082100B007200011
:1011A00037082100B13DB728210031082000C000D8
:1011B000210030082000BF0008002000B5002100F9
:1011C00032083304031DEC2833082000B40021004A
:1011D00032082000B300F5283208FF3E2000B3009B
:1011E000FF302100333D2000B4003008B200320847
:1011F0002200C400C50144302000B2003208A7001C
:101200003408A9003308A80035088A31AA22200032
:101210002808B1002708B0000800210091123E30D4
:10122000F1000930F200943168248931083023003C
:101230009F0090309D0024309E0040309B00033082
:101240009C002630F1001430F20094315C24893186
:101250003830F1001430F2009431622489312930A1
:10126000F1001430F200943156242100BD01FC013C
:101270002000ED01EC012100911608007C08A03E41
:1012800086008701810123001D1D51297C08A03E95
:1012900086008701811421004F088A004E080A0049
:1012A000893123009D1C5F297C08A03E86008701B0
:1012B000011521004D088A004C080A0089317C087C
:1012C000A03E86008701010803196D2921004B0803
:1012D0008A004A080A00893108009631242608004D
:1012E0007508031D7508031D79297308943140247E
:1012F00008007508033E86008701160001040319E3
:101300009C297508033E86008701403FF600413F57
:10131000F700750A86008701403FF800413FF90059
:101320007908803AFA007708803A7A02031D9A29F0
:101330007608780203180800750A860087010130D4
:10134000810741310318810A0800F9007908F70084
:101350000330F735FF3E031DA9297735A03EF8007D
:101360007808FA007A08023E860001308700810181
:101370007A08053E8600013087000030C03F00300B
:10138000C13FC23FC33F7A080A3E86000130870052
:101390000030C03FC13F7A080C3E86000130870014
:1013A0000030C03FC13F7A0A860001308700010843
:1013B000953184250800F900790888312520893184
:1013C000F5007508F8007908953173258931003AE0
:1013D0000319022A7908063E860001308700783515
:1013E0005C3E84008501403F0002F1000131413F35
:1013F000003BF20096313B2689317208F7007108F4
:10140000F600042AF601F70100307702653003196F
:101410007602031C0F2A7908943188240800790881
:10142000943190240800F300192A0130080000309C
:1014300008007308F100F2017208003A0319212A2A
:10144000172A7108303A0319152A013A0319152A87
:10145000033A0319152A013A0319152A073A031901
:10146000152A013A0319152A033A0319152A013AD4
:101470000319152A0F3A0319152A013A0319152AD7
:10148000783A0319152A033A0319152A013A031960
:10149000152A073A0319152A013A0319152A033A9E
:1014A0000319152A013A0319152A133A0319152AA3
:1014B000013A0319152A172A0800FB007B08023E8F
:1014C00086000130870001080319992A7B08033E32
:1014D000860001308700403FF900413FFA00FA36AC
:1014E000F90CFA36F90C7B08033E860001308700C0
:1014F0007908810241317A08813B7F317B0A86007D
:1015000001308700010896316A267508F9007608CF
:10151000FA00FA36F90CFA36F90C7B08033E86001D
:10152000013087007908810741317A08813D7F3198
:1015300008007B0A860001308700010896316A2680
:101540007B08033E8600013087007508C03F76089F
:10155000C13F08002000AF002100361CB82A20003F
:101560002F08AA002A08FB002708973112278A3182
:101570002000A91BC02A2908AE002808AD00C22AF5
:10158000AD01AE01AB01AC012C08803AAA002E08D7
:10159000803A2A02031DCE2A2D082B020318E22AC4
:1015A0002030F3000030F40020002F08AA002A08A1
:1015B000F500893170218A3101302000AB070030FD
:1015C000AC3DC42A21003618EE2A20002F08AA00BC
:1015D0002A08FB002708973112278A3120002708A4
:1015E0009631522620002D087107A7002E08723D63
:1015F000A80008002000D7005708D5000330D535D3
:10160000FF3E031DFF2A5535A03ED6005608D800E0
:10161000580A8600013087000108953113258A3168
:10162000003A031908002000580A8600013087009C
:1016300001089531E2258A31003A0319080020009B
:1016400058089431DB248A31200058088C318924D1
:101650008A3120005808023E86000130870003309E
:101660000102031C3B2B580886000130870001084B
:101670008931A5218A3120005808D5005508D000AD
:101680005808023E8600013087000135BE3E8600C4
:101690008701413F8A00403F0A008B31080020004B
:1016A000BE000530BC003C08BD003E08031D652B94
:1016B0003B08031D652BFF30080001302000BD02F0
:1016C0003D08031D652BFC3008003B08BC003C08AE
:1016D000FB003E08803158208B31003A031D5D2B02
:1016E00020003E080319782B3E088931DB218B311D
:1016F00020003B080319802B3B088931DB218B310B
:1017000020003E089431F7248B31003A0319902BC6
:1017100020003E089431B9248B31003A031DA02BE0
:1017200020003B089431F7248B31003A0319A92B90
:1017300020003B089431B9248B31003A0319A92BBE
:1017400020003B08BC003C08AE003E088C3113244E
:10175000080000300800200050080A3E86000130D2
:101760008700403FD100413FD20007305202D030C5
:1017700003195102031CD42B500886000130870046
:1017800001088931A5218B312000500886000130E5
:1017900087000108D1005108CF00210045088A00C8
:1017A00044080A008B3108005008093E86000130C9
:1017B00087000108803AD10050080E3E86000130B3
:1017C000870050080E3E840001308500003601027B
:1017D000803AD102031808005008023E860001300A
:1017E00087008101810A50080A3E86000130870087
:1017F0000030C03FC13F50080C3E860001308700DA
:10180000FF30C03FFB30C13F5008860001308700E9
:101810000108D1005108CF00210045088A00440882
:101820000A008C3108002000B1006108B000600897
:10183000AF00B036AF0CB036AF0C60082F07B20067
:101840006108303DB3006E08AF002F08B4005D089A
:10185000B7005C08B6005F08B9005E08B800BA01BE
:101860003A08093E840098300318013E85000008BC
:10187000AF002F08EE07AE306E020318432CAE30D7
:10188000AF002F08EE070530AF002F08B5002E0877
:10189000AF002F08FB003108803158208C31003A0E
:1018A00003195A2C01302000B5023508031D472CBE
:1018B000FC300800200061083302031D612C600821
:1018C00032020318732C6108B3006008B2006E087E
:1018D000AF002F08B4005D08B7005C08B6005F08D1
:1018E000B9005E08B8000130AF002F08BA07053014
:1018F0003A02031C302C3408AF002F08EE003708E2
:10190000DD003608DC003908DF003808DE00003072
:1019100008002000A0002008053E86000130870056
:10192000403FF100413FF200423FF300433FF400EB
:101930000430F436F30CF20CF10C890B992C2008CE
:10194000033E860001308700403FF500413FF6002E
:101950007508F7007608F800F901FA017108F70236
:101960007208F83B7308F93B7408FA3B7A08A40044
:101970007908A3007808A2007708A1002108F100E7
:101980002208F2002308F3002408F40020080F3E88
:10199000860001308700010AD12CF437F30CF20CD9
:1019A000F10C890BCD2C7408A4007308A3007208F5
:1019B000A2007108A100A41BF22C2408031DEA2C2C
:1019C0002308031DEA2C2208031DEA2C8030210283
:1019D000031CF22C0030A4000030A3000030A20051
:1019E0007F30A100A41F062D80302102FF30223B52
:1019F000FF30233BFF30243B0318062DFF30A400AB
:101A0000FF30A300FF30A2008030A1002108F100C8
:101A10002008093E86000130870071088100080017
:101A2000F7008B1F5A2D8B137708053E8600013077
:101A30008700403FF100413FF200423FF300433F47
:101A4000F4000430F436F30CF20CF10C890B222D67
:101A50007708053E86000130870071088102413118
:101A60007208813B41317308813B41317408813BED
:101A70007D317708033E860001308700403FF1004A
:101A8000413FF2007108F3007208F400F501F6011D
:101A90007708053E860001308700730881074131D1
:101AA0007408813D41317508813D41317608813DA1
:101AB0008B1708007708053E860001308700403FFD
:101AC000F100413FF200423FF300433FF400043095
:101AD000F436F30CF20CF10C890B682D7708053EF7
:101AE0008600013087007108810241317208813B14
:101AF00041317308813B41317408813B7D31770866
:101B0000033E860001308700403FF100413FF20074
:101B10007108F3007208F400F501F6017708053E3C
:101B20008600013087007308810741317408813DC8
:101B300041317508813D41317608813D0800FA0048
:101B40007A08883125208D31F5007508F9007A086A
:101B50009431B0248D31003A031DE02D79355C3E7F
:101B600086008701403FF500413FF6007A08043EB9
:101B70008600013087000108F700F8010930F735C9
:101B8000F80D890BBF2D76087802031DC92D750845
:101B900077020318DC2D0130F5007A08053E860037
:101BA00001308700750881070F300102031C08000F
:101BB0007A089531222508007A08953122250800F7
:101BC0007A08043E8600013087000108F500F6011E
:101BD000F535F60D7A08063E860001308700793526
:101BE0005C3E84008501403F0002F1000131413F2D
:101BF000003BF20096313B268D3176087202031DC0
:101C0000032E750871020318122E2030F5007A0891
:101C1000023E860001308700750881007A08943101
:101C2000E92408000230F5007A08033E86000130FE
:101C30008700750881077A08033E86000130870017
:101C400020300102031C08002030F5007A08023E13
:101C5000860001308700750881007A089431E924F4
:101C600008002000C2004208BF00C001BF35C00DFF
:101C70005E303F0784009830403D85000008C10079
:101C80004108C4004208BF00C001BF35C00D5F302D
:101C90003F0784009830403D85000008C10041089E
:101CA000C5004508BF003F08BB0044088B314F23E7
:101CB0008E312000C0004008C300A02E440895319A
:101CC00073258E31003A03197E2E20006508031D0E
:101CD0006D2E44089731AD278E3120004408943191
:101CE00098248E31200044088600013087000108C6
:101CF000BF003F08F100943128248E3120004508B0
:101D0000953173258E31003A0319C32E20006508E2
:101D1000031D8E2E45089731AD278E3120004508D2
:101D2000943198248E3120004508860001308700C8
:101D30000108BF003F08F100943128248E31C32EE2
:101D40004308BF00C001BF1BC0034008003A03198D
:101D5000AD2EFF3A0319B22EC32E3F08003A0319E5
:101D60005E2EC32E3F08FB3A0319C32E073A031910
:101D7000C32E013A0319C32E033A0319C32E013AA5
:101D80000319C32EC32E200043080800F300282F98
:101D900022000C148E178C148E15080022000C14CF
:101DA0008E178C148E11080022000C148E178C10C4
:101DB0008E15080022000C148E178C108E1108004E
:101DC00022000C148E138C148E15080022000C14A3
:101DD0008E138C148E11080022000C148E138C109C
:101DE0008E15080022000C148E138C108E11080022
:101DF00022000C108E178C148E15080022000C1077
:101E00008E178C148E11080022000C108E178C1067
:101E10008E15080022000C108E178C108E110800F1
:101E200022000C108E138C148E15080022000C104A
:101E30008E138C148E11080022000C108E138C103F
:101E40008E15080022000C108E138C108E110800C5
:101E50007308F100F2017208003A0319302F622F63
:101E60007108003A0319C82E013A0319CE2E033A1D
:101E70000319D42E013A0319DA2E073A0319E02E7A
:101E8000013A0319E62E033A0319EC2E013A03191D
:101E9000F22E0F3A0319F82E013A0319FE2E033AD7
:101EA0000319042F013A03190A2F073A0319102FB7
:101EB000013A0319162F033A03191C2F013A03198B
:101EC000222F622F0800F300C52F22000D178E1657
:101ED0008C160C16080022000D178E168C160C128C
:101EE000080022000D178E168C120C160800220016
:101EF0000D178E168C120C12080022000D178E1270
:101F00008C160C16080022000D178E128C160C125F
:101F1000080022000D178E128C120C1608002200E9
:101F20000D178E128C120C12080022000D138E1643
:101F30008C160C16080022000D138E168C160C122F
:101F4000080022000D138E168C120C1608002200B9
:101F50000D138E168C120C12080022000D138E1217
:101F60008C160C16080022000D138E128C160C1203
:101F7000080022000D138E128C120C16080022008D
:101F80000D138E128C120C1208007308F100F2016E
:101F90007208003A0319CD2FFF2F7108003A031978
:101FA000652F013A03196B2F033A0319712F013A78
:101FB0000319772F073A03197D2F013A0319832F4D
:101FC000033A0319892F013A03198F2F0F3A031986
:101FD000952F013A03199B2F033A0319A12F013AB8
:101FE0000319A72F073A0319AD2F013A0319B32F8D
:101FF000033A0319B92F013A0319BF2FFF2F080025
:10200000003401340034003400340034003400342F
:1020100000340034003400340034003464340134BB
:10202000013400340034003400340034003400340F
:10203000003400340034003400340034643401349B
:1020400002340334003400340034003400340034EB
:10205000003400340034003400340034643401347B
:1020600003340234003400340034003400340034CB
:10207000003400340034003400340034643401345B
:10284C0008000800080096312426080020006C08B7
:10285C00080020001C15080020001C1108009631EF
:10286C000E26080023001D121D160800163021002C
:10287C0097000800F2007208943180240800F100DF
:10288C00710820009B00080072082100C500710827
:10289C00C400080072082100C7007108C6000800B7
:1028AC0072082100CB007108CA00080072082100D0
:1028BC00CF007108CE00080072082100CD0071080D
:1028CC00CC00080072082100D1007108D00008006B
:1028DC00F03021009900220096010800640080016C
:1028EC000131890B752C0034FE0012001E00FE0B0A
:1028FC007B2C0034F1002000111E812C7108230068
:10290C009A000800F1007108083E8600013087002B
:10291C0081140800F1007108083E86000130870020
:10292C0081100800F1007108083E86000130870014
:10293C0001140800F1007108083E86000130870080
:10294C0001100800FF3020009B009A019110043008
:10295C009C000800F1007108083E860001308700D9
:10296C00010E01390800F1007108083E86000130A3
:10297C008700010C890C013908009531052594312B
:10298C0096319D2694319531BA2594319531412556
:10299C0008009E340734FA340634AB340B34273435
:1029AC00143427341434283414342000A0008B1F22
:1029BC00E52C8B1320088A315D228B170800200828
:1029CC008A315D220800F1007108083E8600013052
:1029DC00870001157108083E86000130870001123E
:1029EC000800F1007108031DFD2C0030080071086F
:1029FC00083E860001308700010C01390800FA01FD
:102A0C007A089531CD2595310130F9007908FA070E
:102A1C0004307A0203180800062DF6000930F50080
:102A2C007508F100760895316225283E8600013044
:102A3C008700010801390800F1007108083E860082
:102A4C000130870001167108033E860001308700B3
:102A5C008101810A08002000DA015A088A31FA2221
:102A6C00953101302000D9005908DA0704305A0298
:102A7C0003180800332DFC3020009C052E0091011A
:102A8C002F00910190302E00920040309400403085
:102A9C002F009400080049302000CB004B08CE00DA
:102AAC004808C0004708BF004E30CB004B08C1009F
:102ABC0000308831AE200800F400F301741C6A2D3C
:102ACC007108F2007208F3070310F10D0310F40CF7
:102ADC007408031D642D73080800F20072080319B2
:102AEC00822D7208083E860001308700010CF1002F
:102AFC00F10C710C0139080000300800F6000430AC
:102B0C007602031808000930F5007508F100760804
:102B1C0095316225283E860001308700011108009E
:102B2C00F60004307602031808000930F500750829
:102B3C00F100760895316225283E86000130870029
:102B4C00811508009631D626953194316E24953135
:102B5C0094313C2495319431A824953189310D213F
:102B6C0095319431C32408002030F2007208F30030
:102B7C003B30F20073087202031C08007308943196
:102B8C00A02495310930F2007208F307BE2DF8002D
:102B9C0078089531962595317808953184259531AD
:102BAC000930F7007708F1007808953162259531E6
:102BBC00203E9431A0240800F6000430760203185D
:102BCC00F62D0930F5007508F1007608953162256F
:102BDC00283E860001308700010C890C0139080061
:102BEC00003008002000C70147088E31312695318E
:102BFC00003A0319032E0030080001302000C600F3
:102C0C004608C70702304702031CFA2D01300800A2
:102C1C00F5017508F4000330F435FF3E031D122E48
:102C2C007435A03E97315F2796310130F40074085B
:102C3C00F50704307502031808000F2E230019083D
:102C4C00F0007C08A83E86008701700881000130E6
:102C5C00F0007008FC0708307C020318FC010130FE
:102C6C00F00070082000EC0708007208803AF300AE
:102C7C0080307302031D442E0130710203180800CA
:102C8C007109F3007209F400F30A0319F40A7308CA
:102C9C00F1007408F2000800F5007508F3007308E1
:102CAC00F400750886000130870001080319632EB3
:102CBC000130F3007308F507572E74087502F10004
:102CCC00F201F11BF2030800F8000430780203183B
:102CDC007F2E0930F7007708F100780895316225CE
:102CEC00263E860001308700403FF500413FF6004C
:102CFC000800F501F6010800F20004307202031816
:102D0C009B2E7208F1000330F135FF3E031D8A2E15
:102D1C007135A23E86000130870002300106031D8A
:102D2C00992E0130080000300800003008000030F7
:102D3C00F1009030F2004030F3000030F400A0308D
:102D4C009731D52796312000A00120088931A52183
:102D5C0096310130FB007B082000A00704302002D4
:102D6C0003180800AB2E2100BC01BC0A9531F825D4
:102D7C009631003A031DC42E0030080095313125E0
:102D8C0096318031022096312000DB005B08210057
:102D9C00BC009531BA2596319431352401300800A8
:102DAC00373022008C00C0308D00BF308E000830D0
:102DBC0021008C0020308D0040308E00E830230044
:102DCC008E0040308D0037308C0024008D018C013A
:102DDC002100951722009D0108002100BA01BB01BA
:102DEC0020006908031D08000030963182269631B8
:102DFC00003A031D08000130963182269631003AC4
:102E0C00031D08000230963182269631003A031DCC
:102E1C0008008531A82508002000A600A401A50102
:102E2C0024082607A000200886000130870001082E
:102E3C00A1002108A3002308031908002308A000FF
:102E4C00A1012008F3002108F4007B08A20022084D
:102E5C00F50089317021973101302000A407003032
:102E6C00A53D162F20006C080319382F6D08A03EC5
:102E7C00860087010108F10071082100BD002000C7
:102E8C006D08A83E860087010108F1007108F20068
:102E9C000130F1007108ED0708306D020318ED01E7
:102EAC002100911201302000EC02210091167208D1
:102EBC000800F3007308023E8600013087000230E0
:102ECC000106031D080073080A3E860001308700C6
:102EDC000130810741310318810A73080A3E8600CC
:102EEC000130870016000104031D080073080A3E18
:102EFC00860001308700FF30C03FFF30C13F080023
:102F0C002000D1009C2FE80108006230C7009830E7
:102F1C00C8005108CF00D0014F08C9005008CA00A2
:102F2C00953151252000E801E80A08005108CF002E
:102F3C00D0015008003A0319A42F8B2F4F08463AA2
:102F4C000319892F123A0319892F8B2F0800F700C8
:102F5C007708883125209731F5007508F6008B1F0E
:102F6C00C72F8B1376355C3E860087017708063EAB
:102F7C00840001308500403F803F413F813F8B17EB
:102F8C00080076355C3E860087017708063E840093
:102F9C0001308500403F803F413F813F0800F900F0
:102FAC007208F8007108F7007908F5007508FA0046
:102FBC000130F3020030F43B730A0319740A03194D
:102FCC00080077088400780885000008F50075086B
:102FDC00F6000130F7070030F83D7608F5007A0866
:102FEC00860001308700750881000130F5007508F6
:102FFC00FA07DE2F50344934433453344D344134C2
:10300C0052345434003400340D341C341E34173410
:10301C00503449344334303400345034493443341C
:10302C003134003450344934433432340034503465
:10303C004934433433340034503449344334343415
:10304C00003450344934433435340034503449342A
:10305C004334363400345034493443343734003438
:10306C0050344934433438340034503449344334C4
:10307C0039340034503449344334413400345034FE
:10308C0049344334423400345034493443344334A7
:10309C0000345034493443344434003450344934CB
:1030AC0043344534003450344934433447340034C9
:0E30BC00293420343B3432342534633400345C
:020000040001F9
:04000E00E4FDFFFF0F
:00000001FF
