:020000040000FA
:1000000080311F28003008007E1480310B1F1D280E
:100010002100911E15282000911E1528210063083B
:100020008A0062080A0080311D282100111C1D2849
:100030002000111C1D28953141257E1009008031BA
:1000400021286C308400933085006D3086000030AC
:10005000870003309331B72380310030840088302B
:100060008500E4308600003087000C309331B723E0
:1000700080316C308400963085002030860001305D
:10008000870024309331B7238031FA01FB015530CA
:1000900084000030850018309331B1238031A030C6
:1000A00084000030850038309331B1238031A03096
:1000B00084000130850044309331B1237E1020004C
:1000C0008031622895316B2580318B170B17D23028
:1000D000F2001730F3009331872380314C30F20067
:1000E0001630F30093318123803122000C1100304F
:1000F0008E31222680312000DB01DC0120006103EB
:10010000031D8628E1018631342680319331602336
:100110008031003A03197F299631902680312200E0
:10012000C40044082000E70067088931712180314C
:10013000003A03197F2920006408031DAA286708D4
:100140002200C40044082000E60067089731012718
:1001500080317F296503031D6D2954306706031D17
:100160000C290F308E312226803115302200C50037
:100170004B30C400BE30890BBB28C40BBB28C50B59
:10018000BB28000015302200C5004B30C400BE3033
:10019000890BC828C40BC828C50BC8280000153017
:1001A0002200C5004B30C400BE30890BD528C40BDB
:1001B000D528C50BD528000015302200C5004B30CE
:1001C000C400BE30890BE228C40BE228C50BE2282C
:1001D000000015302200C5004B30C400BE30890B32
:1001E000EF28C40BEF28C50BEF28000015302200C4
:1001F000C5004B30C400BE30890BFC28C40BFC2862
:10020000C50BFC2800002000E501E401DD01DE0152
:100210005B088E3122268031463020006706031DA0
:100220007F2900308E312226803115302200C50012
:100230004B30C400BE30890B1B29C40B1B29C50BD6
:100240001B29000015302200C5004B30C400BE3011
:10025000890B2829C40B2829C50B28290000153033
:100260002200C5004B30C400BE30890B3529C40BB9
:100270003529C50B3529000015302200C5004B304B
:10028000C400BE30890B4229C40B4229C50B422948
:10029000000015302200C5004B30C400BE30890B71
:1002A0004F29C40B4F29C50B4F29000015302200E0
:1002B000C5004B30C400BE30890B5C29C40B5C29DF
:1002C000C50B5C2900002000E501E401DD01DE0131
:1002D0005B088E31222680317F2954306706031D4A
:1002E000782966088431592480312000DD01DE013F
:1002F00046306706031D7F29E401DD01DE019631EA
:1003000012268031003A03197E2820006508031D5B
:10031000172A6403031D98290130DD070030DE3DF4
:100320001E305D065E04031D9829DD01DE01E40137
:100330000030943176248031013A031D132A0130B4
:10034000943176248031003A031D132A023094310F
:1003500076248031003A031D132A03309431762429
:100360008031013A031D132A01302100B607003005
:10037000B73D08303606073003193706031D7E28BF
:10038000B601B70100302000CA009830CB0095318B
:100390000A25803115302200C5004B30C400BE3024
:1003A000890BD029C40BD029C50BD02900001530EA
:1003B0002200C5004B30C400BE30890BDD29C40BC0
:1003C000DD29C50BDD29000015302200C5004B30AA
:1003D000C400BE30890BEA29C40BEA29C50BEA29FF
:1003E000000015302200C5004B30C400BE30890B20
:1003F000F729C40BF729C50BF729000009302000A5
:10040000CA009830CB0095310A2580312000E501E3
:10041000E50AE401E40ADD01DE0100308E31222626
:1004200080312000892A2100B601B7017E286403AB
:10043000031D7E280130DD070030DE3D75305E0291
:10044000303003195D02031C692A00308E312226E8
:1004500080312000DD01DE0115302200C5004B3067
:10046000C400BE30890B322AC40B322AC50B322A93
:10047000000015302200C5004B30C400BE30890B8F
:100480003F2AC40B3F2AC50B3F2A0000153022002B
:10049000C5004B30C400BE30890B4C2AC40B4C2A1B
:1004A000C50B4C2A000015302200C5004B30C4009B
:1004B000BE30890B592AC40B592AC50B592A000092
:1004C00020005B088E31222680312000E401E50106
:1004D0007E2801302200C40044082000E20763089F
:1004E000031D7F2A00308E3122268031C830200043
:1004F0006202031C7E28E201E301E30A7E280F303A
:100500008E3122268031C83020006202031C7E28F2
:10051000E201E3017E282000B200AD01AE01AF018F
:10052000B001AC01A901AA0132080319D12A24089B
:100530000319D12A3208083E86000130870081194C
:10054000B12A2408083E860001308700811DB12AA7
:100550003208083E8600013087008115A901A90AEA
:10056000E62A2408083E8600013087008119C82A3F
:100570003208083E860001308700811DC82A240801
:10058000083E8600013087008115AA01AA0AE62AE2
:100590003208083E8600013087008119E62A2408C7
:1005A000DE2A3208031DD72A2408031DCF2A320869
:1005B0000319E62A2408031DE62A3208083E8600AD
:1005C000013087008119E62A0030080024089431A0
:1005D0002D248231003A0319F02A2000AC01AC0A24
:1005E0002E0012082000A5002508A6002E001308E2
:1005F0002000A5002508A7002F0013082000A50053
:100600002508A8009431A62482312000320803195D
:100610001C2B3208043E8600013087000108FF3E93
:10062000A5002508B100AB0140302E0098002F0036
:10063000980122001D102F2B2408043E8600013053
:1006400087000108FF3EA5002508B100AB01AB0AF9
:100650002E00980140302F00980022001D14F30155
:100660002000320885317F258231F301F30A200012
:10067000240885317F25823120006A106A11EA1131
:100680006F089331772382319331632382312000C5
:10069000DF01E0012B08031D532B111FEA10111F6E
:1006A0004F2B1113592B121B562BEA10121F562BCE
:1006B00012132130A50025082E00980621302000B5
:1006C000A50025082F009806C0302000A5002508A9
:1006D0002E009406C0302000A50025082F009406A7
:1006E00020003118B92B2E001A082000D5072E0043
:1006F0001B082000D63D2F001A082000D7072F0026
:100700001B082000D83D2C08031D9E2B2E001A0824
:1007100020002F02F2002E001B082000303BF300C7
:100720009531AD25823172082000DF077308E03D66
:100730002E001B082000B0002E00B52B2F001A0839
:1007400020002F02F2002F001B082000303BF30096
:100750009531AD25823172082000DF077308E03D36
:100760002F001B082000B0002F001A082000AF0047
:10077000ED2B2E001A082000D5022E001B082000A9
:10078000D63B2F001A082000D7022F001B0820009C
:10079000D83B2C08031DD32B2E001A0820002D0255
:1007A000F2002E00D92B2F001A0820002D02F20093
:1007B0002F001B0820002E3BF3009531AD25823120
:1007C00072082000DF077308E03D2E001B082000A0
:1007D000AE002E001A082000AD00310803196A147B
:1007E0000130B102EA1CF62B6A156A14EA146A1C7D
:1007F0004A2B933166238231200026082E00920076
:10080000200027082E009300200028082F009300C6
:1008100020006A1D0D2CFB300800EA1D112CFA3057
:100820000800290803191A2C3208083E86000130F6
:10083000870081112A080319232C2408083E86000A
:1008400001308700811132089431E8248231003A66
:100850000319372C200032089331EE238231003AFD
:10086000031D372C200032088D318A25823120006B
:1008700024089431E8248231003A03194C2C2000DA
:1008800024089331EE238231003A031D4C2C2000C2
:1008900024088D318A2582312E0096012F00960181
:1008A0002E0097012F0097012E0011102F0011101C
:1008B000E42AF7002000DD01DE01412D00308E31F9
:1008C0002226843100308E31BF262000E401DB0176
:1008D000DC01080001308E312226843101308E3156
:1008E000BF262000E4010130DB000030DC000800FE
:1008F00002308E312226843102308E31BF26200014
:10090000E4010230DB000030DC00080003308E31EF
:100910002226843103308E31BF262000E4010330CB
:10092000DB000030DC00080004308E3122268431E8
:1009300004308E31BF262000E4010430DB0000309B
:10094000DC00080005308E312226843105308E31DE
:10095000BF262000E4010530DB000030DC00080089
:1009600006308E312226843106308E31BF2620009B
:10097000E4010630DB000030DC00080007308E3177
:100980002226843107308E31BF262000E401073053
:10099000DB000030DC00080008308E312226843174
:1009A00008308E31BF262000E4010830DB00003023
:1009B000DC00080009308E312226843109308E3166
:1009C000BF262000E4010930DB000030DC00080015
:1009D0000A308E31222684310A308E31BF26200023
:1009E000E4010A30DB000030DC0008000B308E31FF
:1009F000222684310B308E31BF262000E4010B30DB
:100A0000DB000030DC0008000C308E3122268431FF
:100A10000C308E31BF262000E4010C30DB000030AA
:100A2000DC0008000D308E31222684310D308E31ED
:100A3000BF262000E4010D30DB000030DC000800A0
:100A40000E308E31222684310E308E31BF262000AA
:100A5000E4010E30DB000030DC0008000F308E3186
:100A6000222684310F308E31BF262000E4010F3062
:100A7000DB000030DC000800E101E10A0800E401CD
:100A800008007708F500F6017608003A0319492DA9
:100A90003F2D7508303A03195E2C013A03196A2C70
:100AA000033A0319782C013A0319862C073A0319E3
:100AB000942C013A0319A22C033A0319B02C013AE1
:100AC0000319BE2C0F3A0319CC2C013A0319DA2C66
:100AD000783A0319E82C033A0319F62C013A031962
:100AE000042D073A0319122D013A0319202D023A59
:100AF00003192E2D123A03193C2D3F2D080020001A
:100B0000A3002308031908007308031D8A2DA00100
:100B1000A1018E2D8030A0000030A1002008F4003B
:100B20007408A200230A8600013087000108F4003F
:100B30002208113EF500F6010730F63D75088600E3
:100B400076088700740881002308053E860001307E
:100B500087000108F4002208193EF500F60107306D
:100B6000F63D750886007608870074088100220823
:100B7000133EF400F5010730F53D74088600750852
:100B8000870050308100FE30F4002208183E8600B5
:100B900087010730873D7408810523089331EE23D0
:100BA0008531003A0319E92D20002308023E860012
:100BB000013087000108F4002208163EF500F60116
:100BC0000730F63D750886007608870074088100B6
:100BD000FE2D20002208163EF400F5010730F53DF9
:100BE000740886007508870020308100230893313F
:100BF000E5238531003A0319112E20002308033E16
:100C00008600013087000108F4002208173EF50035
:100C1000F6010730F63D75088600760887007408EF
:100C20001D2E20002208173EF400F5010730F53D87
:100C30007408860075088700203081002308043E70
:100C40008600013087000108F400F5010930F43511
:100C5000F50D890B272E7335553E860087017408E4
:100C6000C03F7508C13F0800A52E1430CA00983057
:100C7000CB0095310A2508001930CA009830CB0006
:100C800095310A2508001E30CA009830CB009531F6
:100C90000A2508002330CA009830CB0095310A2578
:100CA00008002830CA009830CB0095310A2508008A
:100CB0002D30CA009830CB0095310A25080032301B
:100CC000CA009830CB0095310A2508003730CA0099
:100CD0009830CB0095310A2508003C30CA00983086
:100CE000CB0095310A2508004130CA009830CB006E
:100CF00095310A2508004630CA009830CB0095315E
:100D00000A2508004B30CA009830CB0095310A25DF
:100D100008005030CA009830CB0095310A250800F1
:100D20005530CA009830CB0095310A2508005A305A
:100D3000CA009830CB0095310A2508005F30CA0000
:100D40009830CB0095310A25080020005C08003A55
:100D50000319AB2EDD2E5B08003A0319352E013A3C
:100D600003193C2E033A0319432E013A03194A2E64
:100D7000073A0319512E013A0319582E033A031961
:100D80005F2E013A0319662E0F3A03196D2E013AB0
:100D90000319742E033A03197B2E013A0319822E8C
:100DA000073A0319892E013A0319902E033A0319C1
:100DB000972E013A03199E2EDD2E08002000C10057
:100DC000390886008701403FBB00413FBC003B081B
:100DD00084003C0885001200253A031D632F390862
:100DE000860087010130810741310318810AD9014A
:100DF000DA012100B401B501FF30B200FF30B300C9
:100E00002000390886008701403FBB00413FBC00FD
:100E10003B0884003C0885001200633A031D312F13
:100E20003908860087010130810741310318810AA2
:100E30003A08860087010108840085010230810795
:100E40000008BB003B08C0004008BB003B08B300E3
:100E500041089731502720003408BA003308B90000
:100E60000800390886008701403FBB00413FBC00B5
:100E70003B0884003C0885001200253A031D582FCA
:100E80003908860087010130810741310318810A42
:100E90002530F4000030F5004108BB003B08F600A7
:100EA0008831FE2001302000B9000030BA0008006F
:100EB0003908860087010130810741310318810A12
:100EC000B901BA010800390886008701403FBB001C
:100ED000413FBC003B0884003C0885000008BD0081
:100EE000BE013D08F4003E08F5004108BF003F0880
:100EF000F6008831FE2086312000390886008701FF
:100F00000130810741310318810A522F2000250842
:100F10000A3E860001308700403FA600413FA700FF
:100F200007302702D03003192602031CAE2F2508F4
:100F300086000130870001088831CC2087312000ED
:100F400025088600013087000108A6002608F50064
:100F50006E088A006D080A00873108002508093EDE
:100F60008600013087000108803AA60025080E3E61
:100F700086000130870025080E3E84000130850080
:100F80000008A7002508103E840001308500000AF3
:100F9000CA2FA736890BC92F27080102803AA6025B
:100FA000031808002508023E8600013087008101F1
:100FB000810A25080A3E8600013087000030C03FC4
:100FC000C13F25080C3E860001308700FF30C03F3E
:100FD000FB30C13F25088600013087000108A600CC
:100FE0002608F5006E088A006D080A00873108009F
:100FF000F2002000111EF92F720823009A00080049
:1010000007340B345C340F34863407345B341334C8
:101010005C341334FF348E342000A400240A86008C
:101020000130870001089431D724883176082000E8
:10103000A0007708A100A201A3012408053E8600B4
:10104000013087002008C03F2108C13F2208C23F6D
:101050002308C33F2408053E860001308700043082
:1010600081354131810D4131810D4131810D7D311C
:10107000890B302808002000C7004308C900420837
:10108000C8002100B001B1012000480884004908CF
:1010900085001200031961284830C5004508B900D1
:1010A0004408C6004608BA0047088631DE26883163
:1010B000200039082100B00720003A082100B13D86
:1010C0004428210031082000C300210030082000FE
:1010D000C2000800210091129A30F2000830F3009B
:1010E00093319F238831083023009F0090309D006A
:1010F00024309E0040309B0003309C005930F200A9
:101100001330F3009331932388316F30F2001330A2
:10111000F3009331992388315D30F2001330F300EE
:1011200093318D232000E801FB01FA01E901210040
:10113000911608007B08A03E8600870181012300EC
:101140001D1DAD287B08A03E86008701811421006B
:1011500061088A0060080A00883123009D1CBB28B2
:101160007B08A03E86008701011521005F088A00E8
:101170005E080A0088317B08A03E860087010108CE
:101180000319C92821005D088A005C080A0088311B
:1011900008009531962508002000A000200EF039A7
:1011A0002007A03EF8007808A1002108023E860032
:1011B0000130870081012108053E8600013087004B
:1011C0000030C03F0030C13FC23FC33F21080A3E4C
:1011D0008600013087000030C03FC13F21080C3E2F
:1011E0008600013087000030C03FC13F210A8600E1
:1011F0000130870001089431112408007608031D8E
:101200007608031D0729740893317C2308007608AB
:10121000033E860087011600010403192B29760876
:10122000033E86008701403F2000A000413FA1000F
:10123000760A86008701403FA200413FA3002308B1
:10124000803AA4002108803A2402031D292920089D
:10125000220203180800760A860087010130810700
:1012600041310318810A08002000A30023089731A8
:10127000A5278931F60076082000A00023089431C4
:10128000E8248931003A03195F2920002308063E2B
:101290008600013087002035553E84008501403F9F
:1012A0000002F2000131413F003BF3009531AD25D2
:1012B000893173082000A2007208A1006229200071
:1012C000A101A20100302202653003192102031C92
:1012D0006D2923089331BD23080023089331C523CA
:1012E0000800F40077290130080000300800740875
:1012F000F200F3017308003A03197F297529720877
:10130000303A03197329013A03197329033A03196F
:101310007329013A03197329073A03197329013A0A
:1013200003197329033A03197329013A031973291D
:101330000F3A03197329013A03197329783A0319EB
:101340007329033A03197329013A03197329073AD8
:1013500003197329013A03197329033A03197329ED
:10136000013A03197329133A03197329013A03192E
:101370007329752908002000A2002208023E860079
:101380000130870001080319F9292208033E86006D
:1013900001308700403FA000413FA100A136A00CD2
:1013A000A136A00C2208033E8600013087002008E9
:1013B000810241312108813B7F31220A86000130C0
:1013C000870001089431D72476082000A000770810
:1013D000A100A136A00CA136A00C2208033E860075
:1013E000013087002008810741312108813D7F318C
:1013F0000800220A86000130870001089431D724B2
:1014000020002208033E8600013087007608C03F96
:101410007708C13F08002000AB002B0EF0392B07E6
:10142000A03EAA002A08AC002C0A860001308700E2
:101430000108943158248A31003A03190800200029
:101440002C0A8600013087000108943186248A31F5
:10145000003A0319080020002C08943103248A3133
:1014600020002C088B31E5238A3120002C08023E15
:1014700086000130870003300102031C472A2C0834
:1014800086000130870001088831CC208A31200095
:101490002C08AA002A08A5002C08023E860001306C
:1014A00087000135E43E86008701413F8A00403FC6
:1014B0000A008A3108002000B2002100341C692A89
:1014C00020003208AD002D08A5002A089631B52667
:1014D0008A312000AC1B712A2C08B1002B08B00007
:1014E000732AB001B101AE01AF012F08803AAD00FF
:1014F0003108803A2D02031D7F2A30082E0203187E
:10150000932A2030F4000030F50020003208AD00AE
:101510002D08F6008831FE208A3101302000AE0708
:101520000030AF3D752A210034189F2A2000320870
:10153000AD002D08A5002A089631B5268A31200075
:101540002A089531C425200030087207AA00310806
:10155000733DAB0008002000C3000530C100410806
:10156000C2004308031DC12A4008031DC12AFF30E1
:10157000080001302000C2024208031DC12AFC30CD
:1015800008004008C1004108A400430882318B22B2
:101590008A31003A031DB92A200043080319D42ACE
:1015A0004308893134218A31200040080319DC2A9C
:1015B0004008893134218A312000430894312D2498
:1015C0008A31003A0319EC2A200043089331EE23B4
:1015D0008A31003A031DFC2A2000400894312D2452
:1015E0008A31003A0319052B200040089331EE237D
:1015F0008A31003A0319052B20004008C100410838
:10160000B30043088B316923080000300800200034
:1016100025080A3E860001308700403FA600413F72
:10162000A7000030270209300319260203181D2BDA
:10163000250888310C208B31212B25088C316C2416
:101640008B31200025080A3E8600013087000130DA
:10165000810741310318810A25080A3E86000130BE
:101660008700403FA600413FA7000030270210300E
:1016700003192602031C08002508053E86000130D8
:101680008700403FA600413FA700423FA800433FDC
:10169000A9000430A936A80CA70CA60C890B4A2B6C
:1016A0002508033E8600013087002608C03F270832
:1016B000C13F2508023E8600013087008101810A72
:1016C00025080A3E8600013087000030C03FC13F38
:1016D00008002000B6006008B5005F08B400B53609
:1016E000B40CB536B40C5F083407B7006008353D5C
:1016F000B8006F08B4003408B9005608BC0055089B
:10170000BB005808BE005708BD00BF013F080F3E90
:10171000840098300318013E85000008B4003408A6
:10172000EF076F0A031D972BFF30EF029B2BAE30A4
:101730006F0203189F2BAE30B4003408EF0705305A
:10174000B4003408BA003308B4003408A4003608E2
:1017500082318B228B31003A0319B62B01302000E5
:10176000BA023A08031DA32BFC30080020006008D1
:101770003802031DBD2B5F0837020318CF2B60080A
:10178000B8005F08B7006F08B4003408B900560805
:10179000BC005508BB005808BE005708BD0001300A
:1017A000B4003408BF0705303F02031C862B3908FC
:1017B000B4003408EF003C08D6003B08D5003E08D2
:1017C000D8003D08D70000300800F2007208053E3E
:1017D000860001308700403F2000A000413FA1006B
:1017E000423FA200433FA3000430A336A20CA10C49
:1017F000A00C890BF52B7208033E86000130870090
:10180000403FA400413FA5002408A6002508A700EA
:10181000A801A9012008A6022108A73B2208A83B8D
:101820002308A93B2908F6002808F5002708F4003A
:101830002608F3007308A0007408A1007508A20030
:101840007608A30072080F3E860001308700010A67
:101850002D2CA337A20CA10CA00C890B292C23083A
:10186000F6002208F5002108F4002008F300F61B1A
:101870004E2C7608031D462C7508031D462C740853
:10188000031D462C80307302031C4E2C0030F600E2
:101890000030F5000030F4007F30F300F61F622CBA
:1018A00080307302FF30743BFF30753BFF30763B76
:1018B0000318622CFF30F600FF30F500FF30F40013
:1018C0008030F3007308A0007208093E86000130E2
:1018D0008700200881000800F8008B1FB62C8B13AE
:1018E0007808053E860001308700403FF200413F06
:1018F000F300423FF400433FF5000430F536F40CAA
:10190000F30CF20C890B7E2C7808053E8600013022
:1019100087007208810241317308813B41317408AC
:10192000813B41317508813B7D317808033E86005B
:1019300001308700403FF200413FF3007208F4009D
:101940007308F500F601F7017808053E86000130BE
:1019500087007408810741317508813D413176085F
:10196000813D41317708813D8B1708007808053E9D
:10197000860001308700403FF200413FF300423FC4
:10198000F400433FF5000430F536F40CF30CF20C90
:10199000890BC42C7808053E860001308700720848
:1019A000810241317308813B41317408813B4131EF
:1019B0007508813B7D317808033E86000130870041
:1019C000403FF200413FF3007208F4007308F50055
:1019D000F601F7017808053E86000130870074089B
:1019E000810741317508813D41317608813D4131A2
:1019F0007708813D08002000C7004708C400C501E2
:101A0000C435C50D6430440784009830453D8500D9
:101A10000008C6004608C9004708C400C501C4350F
:101A2000C50D6530440784009830453D85000008A9
:101A3000C6004608CA004A08C4004408C000490855
:101A40008A31AB228C312000C5004508C800642DC6
:101A500049089431E8248C31003A0319452D2000BF
:101A60004908973128278C31200049089331CD232C
:101A70008C31200049088600013087000108C4002D
:101A80004408F20093315C238C3120004A089431E1
:101A9000E8248C31003A0319872D20004A08973139
:101AA00028278C3120004A089331CD238C31200027
:101AB0004A088600013087000108C4004408F2008B
:101AC00093315C238C31872D4808C400C501C41BA9
:101AD000C5034508003A0319712DFF3A0319762D05
:101AE000872D4408003A0319282D872D4408FB3A16
:101AF0000319872D073A0319872D013A0319872DFA
:101B0000033A0319872D013A0319872D872D2000E9
:101B1000480808002000A10021089731A5278D3131
:101B2000F60076082000A00021089331E5238D31CE
:101B3000003A031DCE2D20002035553E860087013A
:101B4000403FF600413FF7002108043E8600013087
:101B500087000108F800F9010930F835F90D890B03
:101B6000AD2D77087902031DB72D7608780203188A
:101B7000CA2D0130F6002108053E8600013087009D
:101B8000760881070F300102031C080021089431F8
:101B900067240800210894316724080020002108E8
:101BA000043E8600013087000108F600F701F63593
:101BB000F70D2108063E8600013087002035553E8E
:101BC00084008501403F0002F2000131413F003BAB
:101BD000F3009531AD258D3177087302031DF22D89
:101BE000760872020318022E2030F6002000210829
:101BF000023E86000130870076088100210894317A
:101C00001F2408000230F60020002108033E860051
:101C100001308700760881072108033E86000130E5
:101C2000870020300102031C08002030F600210844
:101C3000023E860001308700760881002108943139
:101C40001F240800F400842E22000C148E178C141C
:101C50008E15080022000C148E178C148E110800AB
:101C600022000C148E178C108E15080022000C1404
:101C70008E178C108E11080022000C148E138C14F9
:101C80008E15080022000C148E138C148E1108007F
:101C900022000C148E138C108E15080022000C14D8
:101CA0008E138C108E11080022000C108E178C14CD
:101CB0008E15080022000C108E178C148E1108004F
:101CC00022000C108E178C108E15080022000C10AC
:101CD0008E178C108E11080022000C108E138C149D
:101CE0008E15080022000C108E138C148E11080023
:101CF00022000C108E138C108E15080022000C1080
:101D00008E138C108E1108007408F200F301730812
:101D1000003A03198C2EBE2E7208003A03197E2E4B
:101D2000013A0319782E033A0319722E013A031966
:101D30006C2E073A0319662E013A0319602E033AF6
:101D400003195A2E013A0319542E0F3A03194E2E35
:101D5000013A0319482E033A0319422E013A031996
:101D60003C2E073A0319362E013A0319302E033A56
:101D700003192A2E013A0319242EBE2E0800F4005E
:101D8000212F22008E160D170C168C16080022002B
:101D90008E160D170C168C12080022008E160D17C9
:101DA0000C128C16080022008E160D170C128C12C5
:101DB000080022008E160D130C168C160800220047
:101DC0008E160D130C168C12080022008E160D13A1
:101DD0000C128C16080022008E160D130C128C1299
:101DE000080022008E120D170C168C160800220017
:101DF0008E120D170C168C12080022008E120D1771
:101E00000C128C16080022008E120D170C128C1268
:101E1000080022008E120D130C168C1608002200EA
:101E20008E120D130C168C12080022008E120D1348
:101E30000C128C16080022008E120D130C128C123C
:101E400008007408F200F3017308003A0319292FFF
:101E50005B2F7208003A0319C12E013A0319C72EED
:101E6000033A0319CD2E013A0319D32E073A031969
:101E7000D92E013A0319DF2E033A0319E52E013A50
:101E80000319EB2E0F3A0319F12E013A0319F72E1D
:101E9000033A0319FD2E013A0319032F073A0319D8
:101EA000092F013A03190F2F033A0319152F013A8D
:101EB00003191B2F5B2F080020002508093E860010
:101EC000013087000108803AA60025080E3E8600F2
:101ED000013087000103FF3A803AA60203189B2FC6
:101EE00025080A3E86000130870001308107413114
:101EF0000318810A25080A3E860001308700403F0A
:101F0000A600413FA70000302702413003192602F6
:101F1000031CDD2F25080A3E8600013087000030B3
:101F2000C03FC13F25088600013087000108883185
:101F3000CC208F31DD2F2508093E86000130870037
:101F40000108A600A701A61BA70325080E3E8600D0
:101F5000013087002708803A803C031DB12F2608F6
:101F600001020318D42F02302000A6002508023EEB
:101F70008600013087002608810025080A3E860079
:101F8000013087000030C03FC13F25088600013086
:101F900087000108A6002608F50021006B088A00CA
:101FA0006A080A008F31DD2F200025080A3E8600CE
:101FB000013087000030C03FC13F200025080C3EA3
:101FC0008600013087000130810741310318810A02
:101FD00025080C3E8600013087001600403AA60016
:101FE0001600A604031D080025080C3E86000130DB
:101FF00087000030C03FC13F25088C316C240800A9
:10200000003401340034003400340034003400342F
:1020100000340034003400340034003464340134BB
:10202000013401340034003400340034003400340E
:10203000003400340034003400340034003464349C
:1020400001340134023403340034003400340034E9
:1020500000340034003400340034003400340034E0
:102060006434013401340334023400340034003465
:1020700000340034003400340034003400340034C0
:08208000003464340134013422
:1026B200080008000800080095319625080020004F
:1026C2006908080020001C15080020001C110800E1
:1026D2009431F92408005B341334AE3423001D1204
:1026E2001D1608001630210097000800F20072083B
:1026F20020009B000800F30073088731F8270800C8
:1027020073082000EE007208ED0008007308210033
:10271200EB007208EA00080073082100DD0072086D
:10272200DC00080073082100E1007208E0000800E4
:1027320073082100DF007208DE0008007308210020
:10274200E3007208E200080073082100D900720851
:10275200D8000800F03021009900220096010800FC
:10276200640080010131890BB22B0034FE0012009B
:102772001E00FE0BB82B0034F2007208083E8600E1
:102782000130870081140800F2007208083E8600BA
:102792000130870081100800F2007208083E8600AE
:1027A2000130870001140800F2007208083E86001A
:1027B2000130870001100800FF3020009B009A01C1
:1027C200911004309C000800F2007208083E860056
:1027D20001308700010E01390800F2007208083E3C
:1027E200860001308700010C890C013908002100A4
:1027F2006F08F1006E08F000943149242000EC01CA
:10280200EC0A08002000A3008B1F0D2C8B13230859
:102812008931BB218B17080023088931BB210800AD
:10282200F7000930F6007608F20077089431C624E2
:10283200283E86000130870001110800F20072086C
:10284200083E86000130870001157208083E8600A6
:102852000130870001120800F2007208031D332CB8
:10286200003008007208083E860001308700010C23
:1028720001390800F7000930F6007608F2007708FF
:102882009431C624283E8600013087008115080055
:102892002000181D532C181071089700700896001C
:1028A2001814080071089700700896000800F700D5
:1028B2000930F6007608F20077089431C624283EE3
:1028C200860001308700010801390800F200720811
:1028D200083E86000130870001167208033E86001A
:1028E200013087008101810A0800F200720EF0397E
:1028F2007207A23E86000130870002300106031DE6
:10290200842C0130080000300800F7000930F6007E
:102912007608F20077089431C624283E86000130FA
:102922008700010C890C0139080000308A310B2222
:10293200943101308A310B22943102308A310B22D8
:10294200943103308A310B220800FC3020009C05B0
:102952002E0091012F00910190302E009200403004
:10296200940040302F009400080000309531562525
:1029720094310130953156259431023095315625E6
:1029820094310330953156250800F500F401751C89
:10299200CE2C7208F3007308F4070310F20D031033
:1029A200F50C7508031DC82C74080800F9000930DD
:1029B200F8007808F20079089431C624263E860091
:1029C20001308700403FF600413FF7000800F30066
:1029D20073080319F72C7308083E8600013087003C
:1029E200010CF200F20C720C0139080000300800F0
:1029F200F601760EF0397607A03E9631DA2694314A
:102A02000130F5007508F607043076020318080055
:102A1200FA2C4C302000CE004E08D1004B08C300E7
:102A22004A08C2005130CE004E08C400003088313E
:102A32003B2008002030F3007308F4003B30F30021
:102A420074087302031C080074089331D52395316E
:102A52000930F3007308F4071F2D9431B624953121
:102A62009531F625953195311B2595319431A62462
:102A72009531F830F2001330F3009331A5230800AA
:102A82002000111021005B08F1005A08F000943177
:102A9200492495312100580859040319080059089E
:102AA2008A0058080A0095310800F9007908943123
:102AB2003B24953179089431112495310930F8007D
:102AC2007808F20079089431C6249531203E93317A
:102AD200D523080096312F2695319331AB239531BA
:102AE2009331732395319331DD2395319531DB2574
:102AF200953188316A20953195312E2508002000C4
:102B0200CC014C088C31FB249531003A03198B2DF2
:102B12000030080001302000CB004B08CC07023007
:102B22004C02031C822D0130080023001908F0001A
:102B32007B08A83E86008701700881000130F00002
:102B42007008FB0708307B020318FB010130F0001C
:102B520070082000E90708007308803AF40080300A
:102B62007402031DB62D01307202031808007209A7
:102B7200F4007309F500F40A0319F50A7408F20067
:102B82007508F3000800F6007608F4007408F500F2
:102B920076088600870101080319D42D0130F4005C
:102BA2007408F607C92D75087602F200F301F21BCC
:102BB200F303080020009901E0309700C03096002E
:102BC20017082100DB00200016082100DA0020008F
:102BD2001110210011145A30F2001330F300933116
:102BE200A52305302000980008000030F200903044
:102BF200F3004430F4000030F500A030973179271B
:102C0200953100308831CC20953101308831CC208B
:102C1200953102308831CC20953103308831CC2077
:102C2200080020006C0803191C2E9531802596316E
:102C3200003A031D1E2E003008009431962496316E
:102C42008031022096312000CD004D08EC009531F4
:102C52001B25963193316923013008003730220059
:102C62008C00C0308D00BF308E00083021008C00F7
:102C720020308D0040308E00E83023008E0040303E
:102C82008D0037308C0024008D018C0121009517B6
:102C920022009D0108002100B601B701200065084D
:102CA200031D08000030943176249631003A031D4A
:102CB20008000130943176249631003A031D080051
:102CC2000230943176249631003A031D0800200028
:102CD200E101E10A08000034693430341034203450
:102CE20000340034003400340134313430341034D0
:102CF2002034003400340034003402345D34303483
:102D020010342034003400340034003403343534B9
:102D120030341034203400340034003400342000C5
:102D220069080319902E7A08A03E860087010108DF
:102D3200F2007208E8007A08A83E860087010108BE
:102D4200F2007208F3000130F2007208FA0708304C
:102D52007A020318FA012100911201302000E902DF
:102D620021009116730808002000A900A701A801FC
:102D720027082907F7007708860087010108F8006D
:102D82007808A6002608031908002608F700F801AB
:102D92007708F4007808F5002508F9007908F600AC
:102DA2008831FE20963101302000A7070030A83D6F
:102DB200B92EF4007408023E86000130870002300A
:102DC2000106031D080074080A3E860001308700D0
:102DD2000130810741310318810A74080A3E8600D6
:102DE2000130870016000104031D080074080A3E22
:102DF200860001308700FF30C03FFF30C13F08002E
:102E02002000D400172FE40108006830CA0098306F
:102E1200CB005408D200D3015208CC005308CD0095
:102E220095310A252000E401E40A08005408D20082
:102E3200D3015308003A03191F2F062F5208463AAE
:102E42000319042F123A0319042F062F0800F80061
:102E520078089731A5279731F6007608F7008B1F7F
:102E6200422F8B137735553E860087017808063E40
:102E7200840001308500403F803F413F813F8B17F6
:102E820008007735553E860087017808063E8400A3
:102E920001308500403F803F413F813F08002000D4
:102EA200B80059085A04031D5B2F5A08B700590885
:102EB200B600612F5908FF3EB600FF305A3DB700F9
:102EC2003308B50035082100B800B901B830200038
:102ED200B5003508AA003708AC003608AB00380840
:102EE2008A315B2220002B08B4002A08B3000800B4
:102EF2002000A3007308A2007208A1002308F600B4
:102F02007608A4000130F4020030F53B740A03197C
:102F1200750A0319080021088400220885000008A8
:102F2200F6007608A0000130A1070030A23D20087B
:102F3200F6002408860001308700760881000130FF
:102F4200F6007608A407832FF400F5017508F20055
:102F5200F301F235F30D6430720784009830733D4B
:102F6200850000087406031DB82F0030080075089C
:102F7200F200F301F235F30D6530720784009830E8
:102F8200733D850000087406031DC92F0130080037
:102F92000130F2007208F507023075020318B62FED
:102FA200A72F2100B601B70120006508031D080004
:102FB2007508031DE02F0130DB060030DC067503C7
:102FC200031DE72F0230DB060030DC0602307506F7
:102FD200031DEF2F0430DB060030DC0603307506DC
:102FE200031DF72F0830DB060030DC065B088E314C
:102FF2002226973120005B088E31BF26080050340C
:103002004934433453344D3441345234543400340B
:10301200523455344E340D340A34003400340D34F5
:103022001C341E34173450344934433430340034A1
:103032005034493443343134003450344934433405
:10304200323400345034493443343334003450344D
:1030520049344334343400345034493443343534FD
:103062000034503449344334363400345034493413
:103072004334373400345034493443343834003420
:1030820050344934433439340034503449344334AD
:1030920041340034503449344334423400345034DF
:1030A200493443344334003450344934433444348F
:1030B20000345034493443344534003450344934B4
:1030C200433447340034293420343B3432342534F9
:0430D200633400342F
:020000040001F9
:04000E00E4FDFFFF0F
:00000001FF
